{
  "_format": "hh-sol-artifact-1",
  "contractName": "EventTicket",
  "sourceName": "contracts/EventTicket.sol",
  "abi": [
    {
      "inputs": [],
      "stateMutability": "nonpayable",
      "type": "constructor"
    },
    {
      "inputs": [
        {
          "internalType": "address",
          "name": "sender",
          "type": "address"
        },
        {
          "internalType": "uint256",
          "name": "tokenId",
          "type": "uint256"
        },
        {
          "internalType": "address",
          "name": "owner",
          "type": "address"
        }
      ],
      "name": "ERC721IncorrectOwner",
      "type": "error"
    },
    {
      "inputs": [
        {
          "internalType": "address",
          "name": "operator",
          "type": "address"
        },
        {
          "internalType": "uint256",
          "name": "tokenId",
          "type": "uint256"
        }
      ],
      "name": "ERC721InsufficientApproval",
      "type": "error"
    },
    {
      "inputs": [
        {
          "internalType": "address",
          "name": "approver",
          "type": "address"
        }
      ],
      "name": "ERC721InvalidApprover",
      "type": "error"
    },
    {
      "inputs": [
        {
          "internalType": "address",
          "name": "operator",
          "type": "address"
        }
      ],
      "name": "ERC721InvalidOperator",
      "type": "error"
    },
    {
      "inputs": [
        {
          "internalType": "address",
          "name": "owner",
          "type": "address"
        }
      ],
      "name": "ERC721InvalidOwner",
      "type": "error"
    },
    {
      "inputs": [
        {
          "internalType": "address",
          "name": "receiver",
          "type": "address"
        }
      ],
      "name": "ERC721InvalidReceiver",
      "type": "error"
    },
    {
      "inputs": [
        {
          "internalType": "address",
          "name": "sender",
          "type": "address"
        }
      ],
      "name": "ERC721InvalidSender",
      "type": "error"
    },
    {
      "inputs": [
        {
          "internalType": "uint256",
          "name": "tokenId",
          "type": "uint256"
        }
      ],
      "name": "ERC721NonexistentToken",
      "type": "error"
    },
    {
      "inputs": [
        {
          "internalType": "address",
          "name": "owner",
          "type": "address"
        }
      ],
      "name": "OwnableInvalidOwner",
      "type": "error"
    },
    {
      "inputs": [
        {
          "internalType": "address",
          "name": "account",
          "type": "address"
        }
      ],
      "name": "OwnableUnauthorizedAccount",
      "type": "error"
    },
    {
      "anonymous": false,
      "inputs": [
        {
          "indexed": true,
          "internalType": "address",
          "name": "owner",
          "type": "address"
        },
        {
          "indexed": true,
          "internalType": "address",
          "name": "approved",
          "type": "address"
        },
        {
          "indexed": true,
          "internalType": "uint256",
          "name": "tokenId",
          "type": "uint256"
        }
      ],
      "name": "Approval",
      "type": "event"
    },
    {
      "anonymous": false,
      "inputs": [
        {
          "indexed": true,
          "internalType": "address",
          "name": "owner",
          "type": "address"
        },
        {
          "indexed": true,
          "internalType": "address",
          "name": "operator",
          "type": "address"
        },
        {
          "indexed": false,
          "internalType": "bool",
          "name": "approved",
          "type": "bool"
        }
      ],
      "name": "ApprovalForAll",
      "type": "event"
    },
    {
      "anonymous": false,
      "inputs": [
        {
          "indexed": false,
          "internalType": "uint256",
          "name": "_fromTokenId",
          "type": "uint256"
        },
        {
          "indexed": false,
          "internalType": "uint256",
          "name": "_toTokenId",
          "type": "uint256"
        }
      ],
      "name": "BatchMetadataUpdate",
      "type": "event"
    },
    {
      "anonymous": false,
      "inputs": [
        {
          "indexed": false,
          "internalType": "uint256",
          "name": "_tokenId",
          "type": "uint256"
        }
      ],
      "name": "MetadataUpdate",
      "type": "event"
    },
    {
      "anonymous": false,
      "inputs": [
        {
          "indexed": true,
          "internalType": "address",
          "name": "previousOwner",
          "type": "address"
        },
        {
          "indexed": true,
          "internalType": "address",
          "name": "newOwner",
          "type": "address"
        }
      ],
      "name": "OwnershipTransferred",
      "type": "event"
    },
    {
      "anonymous": false,
      "inputs": [
        {
          "indexed": true,
          "internalType": "address",
          "name": "from",
          "type": "address"
        },
        {
          "indexed": true,
          "internalType": "address",
          "name": "to",
          "type": "address"
        },
        {
          "indexed": true,
          "internalType": "uint256",
          "name": "tokenId",
          "type": "uint256"
        }
      ],
      "name": "Transfer",
      "type": "event"
    },
    {
      "inputs": [
        {
          "internalType": "address",
          "name": "to",
          "type": "address"
        },
        {
          "internalType": "uint256",
          "name": "tokenId",
          "type": "uint256"
        }
      ],
      "name": "approve",
      "outputs": [],
      "stateMutability": "nonpayable",
      "type": "function"
    },
    {
      "inputs": [
        {
          "internalType": "address",
          "name": "owner",
          "type": "address"
        }
      ],
      "name": "balanceOf",
      "outputs": [
        {
          "internalType": "uint256",
          "name": "",
          "type": "uint256"
        }
      ],
      "stateMutability": "view",
      "type": "function"
    },
    {
      "inputs": [
        {
          "internalType": "uint256",
          "name": "eventId",
          "type": "uint256"
        },
        {
          "internalType": "string",
          "name": "tokenURI",
          "type": "string"
        }
      ],
      "name": "buyTicket",
      "outputs": [],
      "stateMutability": "payable",
      "type": "function"
    },
    {
      "inputs": [
        {
          "internalType": "string",
          "name": "name",
          "type": "string"
        },
        {
          "internalType": "uint256",
          "name": "date",
          "type": "uint256"
        },
        {
          "internalType": "uint256",
          "name": "price",
          "type": "uint256"
        },
        {
          "internalType": "uint256",
          "name": "totalTickets",
          "type": "uint256"
        }
      ],
      "name": "createEvent",
      "outputs": [],
      "stateMutability": "nonpayable",
      "type": "function"
    },
    {
      "inputs": [],
      "name": "eventIdCounter",
      "outputs": [
        {
          "internalType": "uint256",
          "name": "",
          "type": "uint256"
        }
      ],
      "stateMutability": "view",
      "type": "function"
    },
    {
      "inputs": [
        {
          "internalType": "uint256",
          "name": "",
          "type": "uint256"
        }
      ],
      "name": "events",
      "outputs": [
        {
          "internalType": "string",
          "name": "name",
          "type": "string"
        },
        {
          "internalType": "uint256",
          "name": "date",
          "type": "uint256"
        },
        {
          "internalType": "uint256",
          "name": "price",
          "type": "uint256"
        },
        {
          "internalType": "uint256",
          "name": "totalTickets",
          "type": "uint256"
        },
        {
          "internalType": "uint256",
          "name": "ticketsSold",
          "type": "uint256"
        },
        {
          "internalType": "address",
          "name": "organizer",
          "type": "address"
        }
      ],
      "stateMutability": "view",
      "type": "function"
    },
    {
      "inputs": [
        {
          "internalType": "uint256",
          "name": "tokenId",
          "type": "uint256"
        }
      ],
      "name": "getApproved",
      "outputs": [
        {
          "internalType": "address",
          "name": "",
          "type": "address"
        }
      ],
      "stateMutability": "view",
      "type": "function"
    },
    {
      "inputs": [
        {
          "internalType": "address",
          "name": "owner",
          "type": "address"
        },
        {
          "internalType": "address",
          "name": "operator",
          "type": "address"
        }
      ],
      "name": "isApprovedForAll",
      "outputs": [
        {
          "internalType": "bool",
          "name": "",
          "type": "bool"
        }
      ],
      "stateMutability": "view",
      "type": "function"
    },
    {
      "inputs": [],
      "name": "name",
      "outputs": [
        {
          "internalType": "string",
          "name": "",
          "type": "string"
        }
      ],
      "stateMutability": "view",
      "type": "function"
    },
    {
      "inputs": [],
      "name": "nextTokenId",
      "outputs": [
        {
          "internalType": "uint256",
          "name": "",
          "type": "uint256"
        }
      ],
      "stateMutability": "view",
      "type": "function"
    },
    {
      "inputs": [],
      "name": "owner",
      "outputs": [
        {
          "internalType": "address",
          "name": "",
          "type": "address"
        }
      ],
      "stateMutability": "view",
      "type": "function"
    },
    {
      "inputs": [
        {
          "internalType": "uint256",
          "name": "tokenId",
          "type": "uint256"
        }
      ],
      "name": "ownerOf",
      "outputs": [
        {
          "internalType": "address",
          "name": "",
          "type": "address"
        }
      ],
      "stateMutability": "view",
      "type": "function"
    },
    {
      "inputs": [],
      "name": "renounceOwnership",
      "outputs": [],
      "stateMutability": "nonpayable",
      "type": "function"
    },
    {
      "inputs": [
        {
          "internalType": "address",
          "name": "to",
          "type": "address"
        },
        {
          "internalType": "uint256",
          "name": "tokenId",
          "type": "uint256"
        }
      ],
      "name": "resellTicket",
      "outputs": [],
      "stateMutability": "nonpayable",
      "type": "function"
    },
    {
      "inputs": [
        {
          "internalType": "address",
          "name": "from",
          "type": "address"
        },
        {
          "internalType": "address",
          "name": "to",
          "type": "address"
        },
        {
          "internalType": "uint256",
          "name": "tokenId",
          "type": "uint256"
        }
      ],
      "name": "safeTransferFrom",
      "outputs": [],
      "stateMutability": "nonpayable",
      "type": "function"
    },
    {
      "inputs": [
        {
          "internalType": "address",
          "name": "from",
          "type": "address"
        },
        {
          "internalType": "address",
          "name": "to",
          "type": "address"
        },
        {
          "internalType": "uint256",
          "name": "tokenId",
          "type": "uint256"
        },
        {
          "internalType": "bytes",
          "name": "data",
          "type": "bytes"
        }
      ],
      "name": "safeTransferFrom",
      "outputs": [],
      "stateMutability": "nonpayable",
      "type": "function"
    },
    {
      "inputs": [
        {
          "internalType": "address",
          "name": "operator",
          "type": "address"
        },
        {
          "internalType": "bool",
          "name": "approved",
          "type": "bool"
        }
      ],
      "name": "setApprovalForAll",
      "outputs": [],
      "stateMutability": "nonpayable",
      "type": "function"
    },
    {
      "inputs": [
        {
          "internalType": "bytes4",
          "name": "interfaceId",
          "type": "bytes4"
        }
      ],
      "name": "supportsInterface",
      "outputs": [
        {
          "internalType": "bool",
          "name": "",
          "type": "bool"
        }
      ],
      "stateMutability": "view",
      "type": "function"
    },
    {
      "inputs": [],
      "name": "symbol",
      "outputs": [
        {
          "internalType": "string",
          "name": "",
          "type": "string"
        }
      ],
      "stateMutability": "view",
      "type": "function"
    },
    {
      "inputs": [
        {
          "internalType": "uint256",
          "name": "",
          "type": "uint256"
        }
      ],
      "name": "ticketToEvent",
      "outputs": [
        {
          "internalType": "uint256",
          "name": "",
          "type": "uint256"
        }
      ],
      "stateMutability": "view",
      "type": "function"
    },
    {
      "inputs": [
        {
          "internalType": "uint256",
          "name": "tokenId",
          "type": "uint256"
        }
      ],
      "name": "tokenURI",
      "outputs": [
        {
          "internalType": "string",
          "name": "",
          "type": "string"
        }
      ],
      "stateMutability": "view",
      "type": "function"
    },
    {
      "inputs": [
        {
          "internalType": "address",
          "name": "from",
          "type": "address"
        },
        {
          "internalType": "address",
          "name": "to",
          "type": "address"
        },
        {
          "internalType": "uint256",
          "name": "tokenId",
          "type": "uint256"
        }
      ],
      "name": "transferFrom",
      "outputs": [],
      "stateMutability": "nonpayable",
      "type": "function"
    },
    {
      "inputs": [
        {
          "internalType": "address",
          "name": "newOwner",
          "type": "address"
        }
      ],
      "name": "transferOwnership",
      "outputs": [],
      "stateMutability": "nonpayable",
      "type": "function"
    }
  ],
  "bytecode": "0x608060405234801561001057600080fd5b50336040518060400160405280600b81526020017f4576656e745469636b65740000000000000000000000000000000000000000008152506040518060400160405280600481526020017f4554495800000000000000000000000000000000000000000000000000000000815250816000908161008d919061043d565b50806001908161009d919061043d565b505050600073ffffffffffffffffffffffffffffffffffffffff168173ffffffffffffffffffffffffffffffffffffffff16036101125760006040517f1e4fbdf70000000000000000000000000000000000000000000000000000000081526004016101099190610550565b60405180910390fd5b6101218161012760201b60201c565b5061056b565b6000600760009054906101000a900473ffffffffffffffffffffffffffffffffffffffff16905081600760006101000a81548173ffffffffffffffffffffffffffffffffffffffff021916908373ffffffffffffffffffffffffffffffffffffffff1602179055508173ffffffffffffffffffffffffffffffffffffffff168173ffffffffffffffffffffffffffffffffffffffff167f8be0079c531659141344cd1fd0a4f28419497f9722a3daafe3b4186f6b6457e060405160405180910390a35050565b600081519050919050565b7f4e487b7100000000000000000000000000000000000000000000000000000000600052604160045260246000fd5b7f4e487b7100000000000000000000000000000000000000000000000000000000600052602260045260246000fd5b6000600282049050600182168061026e57607f821691505b60208210810361028157610280610227565b5b50919050565b60008190508160005260206000209050919050565b60006020601f8301049050919050565b600082821b905092915050565b6000600883026102e97fffffffffffffffffffffffffffffffffffffffffffffffffffffffffffffffff826102ac565b6102f386836102ac565b95508019841693508086168417925050509392505050565b6000819050919050565b6000819050919050565b600061033a6103356103308461030b565b610315565b61030b565b9050919050565b6000819050919050565b6103548361031f565b61036861036082610341565b8484546102b9565b825550505050565b600090565b61037d610370565b61038881848461034b565b505050565b5b818110156103ac576103a1600082610375565b60018101905061038e565b5050565b601f8211156103f1576103c281610287565b6103cb8461029c565b810160208510156103da578190505b6103ee6103e68561029c565b83018261038d565b50505b505050565b600082821c905092915050565b6000610414600019846008026103f6565b1980831691505092915050565b600061042d8383610403565b9150826002028217905092915050565b610446826101ed565b67ffffffffffffffff81111561045f5761045e6101f8565b5b6104698254610256565b6104748282856103b0565b600060209050601f8311600181146104a75760008415610495578287015190505b61049f8582610421565b865550610507565b601f1984166104b586610287565b60005b828110156104dd578489015182556001820191506020850194506020810190506104b8565b868310156104fa57848901516104f6601f891682610403565b8355505b6001600288020188555050505b505050505050565b600073ffffffffffffffffffffffffffffffffffffffff82169050919050565b600061053a8261050f565b9050919050565b61054a8161052f565b82525050565b60006020820190506105656000830184610541565b92915050565b6132508061057a6000396000f3fe6080604052600436106101405760003560e01c8063715018a6116100b6578063b88d4fde1161006f578063b88d4fde14610450578063c87b56dd14610479578063e01a0ebe146104b6578063e985e9c5146104e1578063f2fde38b1461051e578063f6ac04da1461054757610140565b8063715018a61461037357806375794a3c1461038a5780638da5cb5b146103b557806395d89b41146103e05780639afb93cb1461040b578063a22cb4651461042757610140565b80630b791430116101085780630b7914301461023c57806321b9656e1461027e57806323b872dd146102a757806342842e0e146102d05780636352211e146102f957806370a082311461033657610140565b806301ffc9a7146101455780630374ab0b1461018257806306fdde03146101ab578063081812fc146101d6578063095ea7b314610213575b600080fd5b34801561015157600080fd5b5061016c600480360381019061016791906122c9565b610584565b6040516101799190612311565b60405180910390f35b34801561018e57600080fd5b506101a960048036038101906101a491906124a8565b6105e5565b005b3480156101b757600080fd5b506101c0610769565b6040516101cd91906125aa565b60405180910390f35b3480156101e257600080fd5b506101fd60048036038101906101f891906125cc565b6107fb565b60405161020a919061263a565b60405180910390f35b34801561021f57600080fd5b5061023a60048036038101906102359190612681565b610817565b005b34801561024857600080fd5b50610263600480360381019061025e91906125cc565b61082d565b604051610275969594939291906126d0565b60405180910390f35b34801561028a57600080fd5b506102a560048036038101906102a09190612681565b610911565b005b3480156102b357600080fd5b506102ce60048036038101906102c99190612738565b610996565b005b3480156102dc57600080fd5b506102f760048036038101906102f29190612738565b610a98565b005b34801561030557600080fd5b50610320600480360381019061031b91906125cc565b610ab8565b60405161032d919061263a565b60405180910390f35b34801561034257600080fd5b5061035d6004803603810190610358919061278b565b610aca565b60405161036a91906127b8565b60405180910390f35b34801561037f57600080fd5b50610388610b84565b005b34801561039657600080fd5b5061039f610b98565b6040516103ac91906127b8565b60405180910390f35b3480156103c157600080fd5b506103ca610b9e565b6040516103d7919061263a565b60405180910390f35b3480156103ec57600080fd5b506103f5610bc8565b60405161040291906125aa565b60405180910390f35b610425600480360381019061042091906127d3565b610c5a565b005b34801561043357600080fd5b5061044e6004803603810190610449919061285b565b610df9565b005b34801561045c57600080fd5b506104776004803603810190610472919061293c565b610e0f565b005b34801561048557600080fd5b506104a0600480360381019061049b91906125cc565b610e34565b6040516104ad91906125aa565b60405180910390f35b3480156104c257600080fd5b506104cb610f47565b6040516104d891906127b8565b60405180910390f35b3480156104ed57600080fd5b50610508600480360381019061050391906129bf565b610f4d565b6040516105159190612311565b60405180910390f35b34801561052a57600080fd5b506105456004803603810190610540919061278b565b610fe1565b005b34801561055357600080fd5b5061056e600480360381019061056991906125cc565b611067565b60405161057b91906127b8565b60405180910390f35b6000634906490660e01b7bffffffffffffffffffffffffffffffffffffffffffffffffffffffff1916827bffffffffffffffffffffffffffffffffffffffffffffffffffffffff191614806105de57506105dd8261107f565b5b9050919050565b428311610627576040517f08c379a000000000000000000000000000000000000000000000000000000000815260040161061e90612a4b565b60405180910390fd5b6000811161066a576040517f08c379a000000000000000000000000000000000000000000000000000000000815260040161066190612ab7565b60405180910390fd5b6040518060c00160405280858152602001848152602001838152602001828152602001600081526020013373ffffffffffffffffffffffffffffffffffffffff16815250600a6000600954815260200190815260200160002060008201518160000190816106d89190612ce3565b506020820151816001015560408201518160020155606082015181600301556080820151816004015560a08201518160050160006101000a81548173ffffffffffffffffffffffffffffffffffffffff021916908373ffffffffffffffffffffffffffffffffffffffff1602179055509050506009600081548092919061075e90612de4565b919050555050505050565b60606000805461077890612b06565b80601f01602080910402602001604051908101604052809291908181526020018280546107a490612b06565b80156107f15780601f106107c6576101008083540402835291602001916107f1565b820191906000526020600020905b8154815290600101906020018083116107d457829003601f168201915b5050505050905090565b600061080682611161565b50610810826111e9565b9050919050565b6108298282610824611226565b61122e565b5050565b600a60205280600052604060002060009150905080600001805461085090612b06565b80601f016020809104026020016040519081016040528092919081815260200182805461087c90612b06565b80156108c95780601f1061089e576101008083540402835291602001916108c9565b820191906000526020600020905b8154815290600101906020018083116108ac57829003601f168201915b5050505050908060010154908060020154908060030154908060040154908060050160009054906101000a900473ffffffffffffffffffffffffffffffffffffffff16905086565b3373ffffffffffffffffffffffffffffffffffffffff1661093182610ab8565b73ffffffffffffffffffffffffffffffffffffffff1614610987576040517f08c379a000000000000000000000000000000000000000000000000000000000815260040161097e90612e78565b60405180910390fd5b610992338383611240565b5050565b600073ffffffffffffffffffffffffffffffffffffffff168273ffffffffffffffffffffffffffffffffffffffff1603610a085760006040517f64a0ae920000000000000000000000000000000000000000000000000000000081526004016109ff919061263a565b60405180910390fd5b6000610a1c8383610a17611226565b6113ad565b90508373ffffffffffffffffffffffffffffffffffffffff168173ffffffffffffffffffffffffffffffffffffffff1614610a92578382826040517f64283d7b000000000000000000000000000000000000000000000000000000008152600401610a8993929190612e98565b60405180910390fd5b50505050565b610ab383838360405180602001604052806000815250610e0f565b505050565b6000610ac382611161565b9050919050565b60008073ffffffffffffffffffffffffffffffffffffffff168273ffffffffffffffffffffffffffffffffffffffff1603610b3d5760006040517f89c62b64000000000000000000000000000000000000000000000000000000008152600401610b34919061263a565b60405180910390fd5b600360008373ffffffffffffffffffffffffffffffffffffffff1673ffffffffffffffffffffffffffffffffffffffff168152602001908152602001600020549050919050565b610b8c6115c7565b610b96600061164e565b565b60085481565b6000600760009054906101000a900473ffffffffffffffffffffffffffffffffffffffff16905090565b606060018054610bd790612b06565b80601f0160208091040260200160405190810160405280929190818152602001828054610c0390612b06565b8015610c505780601f10610c2557610100808354040283529160200191610c50565b820191906000526020600020905b815481529060010190602001808311610c3357829003601f168201915b5050505050905090565b6000600a600084815260200190815260200160002090506000816001015403610cb8576040517f08c379a0000000000000000000000000000000000000000000000000000000008152600401610caf90612f1b565b60405180910390fd5b80600101544210610cfe576040517f08c379a0000000000000000000000000000000000000000000000000000000008152600401610cf590612f87565b60405180910390fd5b8060030154816004015410610d48576040517f08c379a0000000000000000000000000000000000000000000000000000000008152600401610d3f90612ff3565b60405180910390fd5b80600201543414610d8e576040517f08c379a0000000000000000000000000000000000000000000000000000000008152600401610d859061305f565b60405180910390fd5b806004016000815480929190610da390612de4565b91905055506000600854905060086000815480929190610dc290612de4565b9190505550610dd13382611714565b610ddb8184611732565b83600b60008381526020019081526020016000208190555050505050565b610e0b610e04611226565b838361178e565b5050565b610e1a848484610996565b610e2e610e25611226565b858585856118fd565b50505050565b6060610e3f82611161565b506000600660008481526020019081526020016000208054610e6090612b06565b80601f0160208091040260200160405190810160405280929190818152602001828054610e8c90612b06565b8015610ed95780601f10610eae57610100808354040283529160200191610ed9565b820191906000526020600020905b815481529060010190602001808311610ebc57829003601f168201915b505050505090506000610eea611aae565b90506000815103610eff578192505050610f42565b600082511115610f34578082604051602001610f1c9291906130bb565b60405160208183030381529060405292505050610f42565b610f3d84611ac5565b925050505b919050565b60095481565b6000600560008473ffffffffffffffffffffffffffffffffffffffff1673ffffffffffffffffffffffffffffffffffffffff16815260200190815260200160002060008373ffffffffffffffffffffffffffffffffffffffff1673ffffffffffffffffffffffffffffffffffffffff16815260200190815260200160002060009054906101000a900460ff16905092915050565b610fe96115c7565b600073ffffffffffffffffffffffffffffffffffffffff168173ffffffffffffffffffffffffffffffffffffffff160361105b5760006040517f1e4fbdf7000000000000000000000000000000000000000000000000000000008152600401611052919061263a565b60405180910390fd5b6110648161164e565b50565b600b6020528060005260406000206000915090505481565b60007f80ac58cd000000000000000000000000000000000000000000000000000000007bffffffffffffffffffffffffffffffffffffffffffffffffffffffff1916827bffffffffffffffffffffffffffffffffffffffffffffffffffffffff1916148061114a57507f5b5e139f000000000000000000000000000000000000000000000000000000007bffffffffffffffffffffffffffffffffffffffffffffffffffffffff1916827bffffffffffffffffffffffffffffffffffffffffffffffffffffffff1916145b8061115a575061115982611b2e565b5b9050919050565b60008061116d83611b98565b9050600073ffffffffffffffffffffffffffffffffffffffff168173ffffffffffffffffffffffffffffffffffffffff16036111e057826040517f7e2732890000000000000000000000000000000000000000000000000000000081526004016111d791906127b8565b60405180910390fd5b80915050919050565b60006004600083815260200190815260200160002060009054906101000a900473ffffffffffffffffffffffffffffffffffffffff169050919050565b600033905090565b61123b8383836001611bd5565b505050565b600073ffffffffffffffffffffffffffffffffffffffff168273ffffffffffffffffffffffffffffffffffffffff16036112b25760006040517f64a0ae920000000000000000000000000000000000000000000000000000000081526004016112a9919061263a565b60405180910390fd5b60006112c0838360006113ad565b9050600073ffffffffffffffffffffffffffffffffffffffff168173ffffffffffffffffffffffffffffffffffffffff160361133357816040517f7e27328900000000000000000000000000000000000000000000000000000000815260040161132a91906127b8565b60405180910390fd5b8373ffffffffffffffffffffffffffffffffffffffff168173ffffffffffffffffffffffffffffffffffffffff16146113a7578382826040517f64283d7b00000000000000000000000000000000000000000000000000000000815260040161139e93929190612e98565b60405180910390fd5b50505050565b6000806113b984611b98565b9050600073ffffffffffffffffffffffffffffffffffffffff168373ffffffffffffffffffffffffffffffffffffffff16146113fb576113fa818486611d9a565b5b600073ffffffffffffffffffffffffffffffffffffffff168173ffffffffffffffffffffffffffffffffffffffff161461148c5761143d600085600080611bd5565b6001600360008373ffffffffffffffffffffffffffffffffffffffff1673ffffffffffffffffffffffffffffffffffffffff168152602001908152602001600020600082825403925050819055505b600073ffffffffffffffffffffffffffffffffffffffff168573ffffffffffffffffffffffffffffffffffffffff161461150f576001600360008773ffffffffffffffffffffffffffffffffffffffff1673ffffffffffffffffffffffffffffffffffffffff168152602001908152602001600020600082825401925050819055505b846002600086815260200190815260200160002060006101000a81548173ffffffffffffffffffffffffffffffffffffffff021916908373ffffffffffffffffffffffffffffffffffffffff160217905550838573ffffffffffffffffffffffffffffffffffffffff168273ffffffffffffffffffffffffffffffffffffffff167fddf252ad1be2c89b69c2b068fc378daa952ba7f163c4a11628f55a4df523b3ef60405160405180910390a4809150509392505050565b6115cf611226565b73ffffffffffffffffffffffffffffffffffffffff166115ed610b9e565b73ffffffffffffffffffffffffffffffffffffffff161461164c57611610611226565b6040517f118cdaa7000000000000000000000000000000000000000000000000000000008152600401611643919061263a565b60405180910390fd5b565b6000600760009054906101000a900473ffffffffffffffffffffffffffffffffffffffff16905081600760006101000a81548173ffffffffffffffffffffffffffffffffffffffff021916908373ffffffffffffffffffffffffffffffffffffffff1602179055508173ffffffffffffffffffffffffffffffffffffffff168173ffffffffffffffffffffffffffffffffffffffff167f8be0079c531659141344cd1fd0a4f28419497f9722a3daafe3b4186f6b6457e060405160405180910390a35050565b61172e828260405180602001604052806000815250611e5e565b5050565b806006600084815260200190815260200160002090816117529190612ce3565b507ff8e1a15aba9398e019f0b49df1a4fde98ee17ae345cb5f6b5e2c27f5033e8ce78260405161178291906127b8565b60405180910390a15050565b600073ffffffffffffffffffffffffffffffffffffffff168273ffffffffffffffffffffffffffffffffffffffff16036117ff57816040517f5b08ba180000000000000000000000000000000000000000000000000000000081526004016117f6919061263a565b60405180910390fd5b80600560008573ffffffffffffffffffffffffffffffffffffffff1673ffffffffffffffffffffffffffffffffffffffff16815260200190815260200160002060008473ffffffffffffffffffffffffffffffffffffffff1673ffffffffffffffffffffffffffffffffffffffff16815260200190815260200160002060006101000a81548160ff0219169083151502179055508173ffffffffffffffffffffffffffffffffffffffff168373ffffffffffffffffffffffffffffffffffffffff167f17307eab39ab6107e8899845ad3d59bd9653f200f220920489ca2b5937696c31836040516118f09190612311565b60405180910390a3505050565b60008373ffffffffffffffffffffffffffffffffffffffff163b1115611aa7578273ffffffffffffffffffffffffffffffffffffffff1663150b7a02868685856040518563ffffffff1660e01b815260040161195c9493929190613134565b6020604051808303816000875af192505050801561199857506040513d601f19601f820116820180604052508101906119959190613195565b60015b611a1c573d80600081146119c8576040519150601f19603f3d011682016040523d82523d6000602084013e6119cd565b606091505b506000815103611a1457836040517f64a0ae92000000000000000000000000000000000000000000000000000000008152600401611a0b919061263a565b60405180910390fd5b805181602001fd5b63150b7a0260e01b7bffffffffffffffffffffffffffffffffffffffffffffffffffffffff1916817bffffffffffffffffffffffffffffffffffffffffffffffffffffffff191614611aa557836040517f64a0ae92000000000000000000000000000000000000000000000000000000008152600401611a9c919061263a565b60405180910390fd5b505b5050505050565b606060405180602001604052806000815250905090565b6060611ad082611161565b506000611adb611aae565b90506000815111611afb5760405180602001604052806000815250611b26565b80611b0584611e82565b604051602001611b169291906130bb565b6040516020818303038152906040525b915050919050565b60007f01ffc9a7000000000000000000000000000000000000000000000000000000007bffffffffffffffffffffffffffffffffffffffffffffffffffffffff1916827bffffffffffffffffffffffffffffffffffffffffffffffffffffffff1916149050919050565b60006002600083815260200190815260200160002060009054906101000a900473ffffffffffffffffffffffffffffffffffffffff169050919050565b8080611c0e5750600073ffffffffffffffffffffffffffffffffffffffff168273ffffffffffffffffffffffffffffffffffffffff1614155b15611d42576000611c1e84611161565b9050600073ffffffffffffffffffffffffffffffffffffffff168373ffffffffffffffffffffffffffffffffffffffff1614158015611c8957508273ffffffffffffffffffffffffffffffffffffffff168173ffffffffffffffffffffffffffffffffffffffff1614155b8015611c9c5750611c9a8184610f4d565b155b15611cde57826040517fa9fbf51f000000000000000000000000000000000000000000000000000000008152600401611cd5919061263a565b60405180910390fd5b8115611d4057838573ffffffffffffffffffffffffffffffffffffffff168273ffffffffffffffffffffffffffffffffffffffff167f8c5be1e5ebec7d5bd14f71427d1e84f3dd0314c0f7b2291e5b200ac8c7c3b92560405160405180910390a45b505b836004600085815260200190815260200160002060006101000a81548173ffffffffffffffffffffffffffffffffffffffff021916908373ffffffffffffffffffffffffffffffffffffffff16021790555050505050565b611da5838383611f50565b611e5957600073ffffffffffffffffffffffffffffffffffffffff168373ffffffffffffffffffffffffffffffffffffffff1603611e1a57806040517f7e273289000000000000000000000000000000000000000000000000000000008152600401611e1191906127b8565b60405180910390fd5b81816040517f177e802f000000000000000000000000000000000000000000000000000000008152600401611e509291906131c2565b60405180910390fd5b505050565b611e688383612011565b611e7d611e73611226565b60008585856118fd565b505050565b606060006001611e918461210a565b01905060008167ffffffffffffffff811115611eb057611eaf612347565b5b6040519080825280601f01601f191660200182016040528015611ee25781602001600182028036833780820191505090505b509050600082602001820190505b600115611f45578080600190039150507f3031323334353637383961626364656600000000000000000000000000000000600a86061a8153600a8581611f3957611f386131eb565b5b04945060008503611ef0575b819350505050919050565b60008073ffffffffffffffffffffffffffffffffffffffff168373ffffffffffffffffffffffffffffffffffffffff161415801561200857508273ffffffffffffffffffffffffffffffffffffffff168473ffffffffffffffffffffffffffffffffffffffff161480611fc95750611fc88484610f4d565b5b8061200757508273ffffffffffffffffffffffffffffffffffffffff16611fef836111e9565b73ffffffffffffffffffffffffffffffffffffffff16145b5b90509392505050565b600073ffffffffffffffffffffffffffffffffffffffff168273ffffffffffffffffffffffffffffffffffffffff16036120835760006040517f64a0ae9200000000000000000000000000000000000000000000000000000000815260040161207a919061263a565b60405180910390fd5b6000612091838360006113ad565b9050600073ffffffffffffffffffffffffffffffffffffffff168173ffffffffffffffffffffffffffffffffffffffff16146121055760006040517f73c6ac6e0000000000000000000000000000000000000000000000000000000081526004016120fc919061263a565b60405180910390fd5b505050565b600080600090507a184f03e93ff9f4daa797ed6e38ed64bf6a1f0100000000000000008310612168577a184f03e93ff9f4daa797ed6e38ed64bf6a1f010000000000000000838161215e5761215d6131eb565b5b0492506040810190505b6d04ee2d6d415b85acef810000000083106121a5576d04ee2d6d415b85acef8100000000838161219b5761219a6131eb565b5b0492506020810190505b662386f26fc1000083106121d457662386f26fc1000083816121ca576121c96131eb565b5b0492506010810190505b6305f5e10083106121fd576305f5e10083816121f3576121f26131eb565b5b0492506008810190505b6127108310612222576127108381612218576122176131eb565b5b0492506004810190505b60648310612245576064838161223b5761223a6131eb565b5b0492506002810190505b600a8310612254576001810190505b80915050919050565b6000604051905090565b600080fd5b600080fd5b60007fffffffff0000000000000000000000000000000000000000000000000000000082169050919050565b6122a681612271565b81146122b157600080fd5b50565b6000813590506122c38161229d565b92915050565b6000602082840312156122df576122de612267565b5b60006122ed848285016122b4565b91505092915050565b60008115159050919050565b61230b816122f6565b82525050565b60006020820190506123266000830184612302565b92915050565b600080fd5b600080fd5b6000601f19601f8301169050919050565b7f4e487b7100000000000000000000000000000000000000000000000000000000600052604160045260246000fd5b61237f82612336565b810181811067ffffffffffffffff8211171561239e5761239d612347565b5b80604052505050565b60006123b161225d565b90506123bd8282612376565b919050565b600067ffffffffffffffff8211156123dd576123dc612347565b5b6123e682612336565b9050602081019050919050565b82818337600083830152505050565b6000612415612410846123c2565b6123a7565b90508281526020810184848401111561243157612430612331565b5b61243c8482856123f3565b509392505050565b600082601f8301126124595761245861232c565b5b8135612469848260208601612402565b91505092915050565b6000819050919050565b61248581612472565b811461249057600080fd5b50565b6000813590506124a28161247c565b92915050565b600080600080608085870312156124c2576124c1612267565b5b600085013567ffffffffffffffff8111156124e0576124df61226c565b5b6124ec87828801612444565b94505060206124fd87828801612493565b935050604061250e87828801612493565b925050606061251f87828801612493565b91505092959194509250565b600081519050919050565b600082825260208201905092915050565b60005b8381101561256557808201518184015260208101905061254a565b60008484015250505050565b600061257c8261252b565b6125868185612536565b9350612596818560208601612547565b61259f81612336565b840191505092915050565b600060208201905081810360008301526125c48184612571565b905092915050565b6000602082840312156125e2576125e1612267565b5b60006125f084828501612493565b91505092915050565b600073ffffffffffffffffffffffffffffffffffffffff82169050919050565b6000612624826125f9565b9050919050565b61263481612619565b82525050565b600060208201905061264f600083018461262b565b92915050565b61265e81612619565b811461266957600080fd5b50565b60008135905061267b81612655565b92915050565b6000806040838503121561269857612697612267565b5b60006126a68582860161266c565b92505060206126b785828601612493565b9150509250929050565b6126ca81612472565b82525050565b600060c08201905081810360008301526126ea8189612571565b90506126f960208301886126c1565b61270660408301876126c1565b61271360608301866126c1565b61272060808301856126c1565b61272d60a083018461262b565b979650505050505050565b60008060006060848603121561275157612750612267565b5b600061275f8682870161266c565b93505060206127708682870161266c565b925050604061278186828701612493565b9150509250925092565b6000602082840312156127a1576127a0612267565b5b60006127af8482850161266c565b91505092915050565b60006020820190506127cd60008301846126c1565b92915050565b600080604083850312156127ea576127e9612267565b5b60006127f885828601612493565b925050602083013567ffffffffffffffff8111156128195761281861226c565b5b61282585828601612444565b9150509250929050565b612838816122f6565b811461284357600080fd5b50565b6000813590506128558161282f565b92915050565b6000806040838503121561287257612871612267565b5b60006128808582860161266c565b925050602061289185828601612846565b9150509250929050565b600067ffffffffffffffff8211156128b6576128b5612347565b5b6128bf82612336565b9050602081019050919050565b60006128df6128da8461289b565b6123a7565b9050828152602081018484840111156128fb576128fa612331565b5b6129068482856123f3565b509392505050565b600082601f8301126129235761292261232c565b5b81356129338482602086016128cc565b91505092915050565b6000806000806080858703121561295657612955612267565b5b60006129648782880161266c565b94505060206129758782880161266c565b935050604061298687828801612493565b925050606085013567ffffffffffffffff8111156129a7576129a661226c565b5b6129b38782880161290e565b91505092959194509250565b600080604083850312156129d6576129d5612267565b5b60006129e48582860161266c565b92505060206129f58582860161266c565b9150509250929050565b7f4576656e74206d75737420626520696e20746865206675747572650000000000600082015250565b6000612a35601b83612536565b9150612a40826129ff565b602082019050919050565b60006020820190508181036000830152612a6481612a28565b9050919050565b7f5469636b657473206d757374206265206d6f7265207468616e20300000000000600082015250565b6000612aa1601b83612536565b9150612aac82612a6b565b602082019050919050565b60006020820190508181036000830152612ad081612a94565b9050919050565b7f4e487b7100000000000000000000000000000000000000000000000000000000600052602260045260246000fd5b60006002820490506001821680612b1e57607f821691505b602082108103612b3157612b30612ad7565b5b50919050565b60008190508160005260206000209050919050565b60006020601f8301049050919050565b600082821b905092915050565b600060088302612b997fffffffffffffffffffffffffffffffffffffffffffffffffffffffffffffffff82612b5c565b612ba38683612b5c565b95508019841693508086168417925050509392505050565b6000819050919050565b6000612be0612bdb612bd684612472565b612bbb565b612472565b9050919050565b6000819050919050565b612bfa83612bc5565b612c0e612c0682612be7565b848454612b69565b825550505050565b600090565b612c23612c16565b612c2e818484612bf1565b505050565b5b81811015612c5257612c47600082612c1b565b600181019050612c34565b5050565b601f821115612c9757612c6881612b37565b612c7184612b4c565b81016020851015612c80578190505b612c94612c8c85612b4c565b830182612c33565b50505b505050565b600082821c905092915050565b6000612cba60001984600802612c9c565b1980831691505092915050565b6000612cd38383612ca9565b9150826002028217905092915050565b612cec8261252b565b67ffffffffffffffff811115612d0557612d04612347565b5b612d0f8254612b06565b612d1a828285612c56565b600060209050601f831160018114612d4d5760008415612d3b578287015190505b612d458582612cc7565b865550612dad565b601f198416612d5b86612b37565b60005b82811015612d8357848901518255600182019150602085019450602081019050612d5e565b86831015612da05784890151612d9c601f891682612ca9565b8355505b6001600288020188555050505b505050505050565b7f4e487b7100000000000000000000000000000000000000000000000000000000600052601160045260246000fd5b6000612def82612472565b91507fffffffffffffffffffffffffffffffffffffffffffffffffffffffffffffffff8203612e2157612e20612db5565b5b600182019050919050565b7f4e6f7420746865207469636b6574206f776e6572000000000000000000000000600082015250565b6000612e62601483612536565b9150612e6d82612e2c565b602082019050919050565b60006020820190508181036000830152612e9181612e55565b9050919050565b6000606082019050612ead600083018661262b565b612eba60208301856126c1565b612ec7604083018461262b565b949350505050565b7f4576656e7420646f6573206e6f74206578697374000000000000000000000000600082015250565b6000612f05601483612536565b9150612f1082612ecf565b602082019050919050565b60006020820190508181036000830152612f3481612ef8565b9050919050565b7f4576656e7420616c7265616479206f6363757272656400000000000000000000600082015250565b6000612f71601683612536565b9150612f7c82612f3b565b602082019050919050565b60006020820190508181036000830152612fa081612f64565b9050919050565b7f536f6c64206f7574000000000000000000000000000000000000000000000000600082015250565b6000612fdd600883612536565b9150612fe882612fa7565b602082019050919050565b6000602082019050818103600083015261300c81612fd0565b9050919050565b7f496e636f727265637420616d6f756e7400000000000000000000000000000000600082015250565b6000613049601083612536565b915061305482613013565b602082019050919050565b600060208201905081810360008301526130788161303c565b9050919050565b600081905092915050565b60006130958261252b565b61309f818561307f565b93506130af818560208601612547565b80840191505092915050565b60006130c7828561308a565b91506130d3828461308a565b91508190509392505050565b600081519050919050565b600082825260208201905092915050565b6000613106826130df565b61311081856130ea565b9350613120818560208601612547565b61312981612336565b840191505092915050565b6000608082019050613149600083018761262b565b613156602083018661262b565b61316360408301856126c1565b818103606083015261317581846130fb565b905095945050505050565b60008151905061318f8161229d565b92915050565b6000602082840312156131ab576131aa612267565b5b60006131b984828501613180565b91505092915050565b60006040820190506131d7600083018561262b565b6131e460208301846126c1565b9392505050565b7f4e487b7100000000000000000000000000000000000000000000000000000000600052601260045260246000fdfea2646970667358221220e8e9e9ed24443406c838844fd590d0b04217b9ecd48dae4ececa11f657e8a7e264736f6c634300081c0033",
  "linkReferences": {},
  "deployedLinkReferences": {}
}