{
  "contractName": "EventTicket",
  "abi": [
    {
      "inputs": [],
      "stateMutability": "nonpayable",
      "type": "constructor"
    },
    {
      "anonymous": false,
      "inputs": [
        {
          "indexed": true,
          "internalType": "address",
          "name": "owner",
          "type": "address"
        },
        {
          "indexed": true,
          "internalType": "address",
          "name": "approved",
          "type": "address"
        },
        {
          "indexed": true,
          "internalType": "uint256",
          "name": "tokenId",
          "type": "uint256"
        }
      ],
      "name": "Approval",
      "type": "event"
    },
    {
      "anonymous": false,
      "inputs": [
        {
          "indexed": true,
          "internalType": "address",
          "name": "owner",
          "type": "address"
        },
        {
          "indexed": true,
          "internalType": "address",
          "name": "operator",
          "type": "address"
        },
        {
          "indexed": false,
          "internalType": "bool",
          "name": "approved",
          "type": "bool"
        }
      ],
      "name": "ApprovalForAll",
      "type": "event"
    },
    {
      "anonymous": false,
      "inputs": [
        {
          "indexed": true,
          "internalType": "address",
          "name": "previousOwner",
          "type": "address"
        },
        {
          "indexed": true,
          "internalType": "address",
          "name": "newOwner",
          "type": "address"
        }
      ],
      "name": "OwnershipTransferred",
      "type": "event"
    },
    {
      "anonymous": false,
      "inputs": [
        {
          "indexed": true,
          "internalType": "address",
          "name": "from",
          "type": "address"
        },
        {
          "indexed": true,
          "internalType": "address",
          "name": "to",
          "type": "address"
        },
        {
          "indexed": true,
          "internalType": "uint256",
          "name": "tokenId",
          "type": "uint256"
        }
      ],
      "name": "Transfer",
      "type": "event"
    },
    {
      "inputs": [
        {
          "internalType": "address",
          "name": "to",
          "type": "address"
        },
        {
          "internalType": "uint256",
          "name": "tokenId",
          "type": "uint256"
        }
      ],
      "name": "approve",
      "outputs": [],
      "stateMutability": "nonpayable",
      "type": "function"
    },
    {
      "inputs": [
        {
          "internalType": "address",
          "name": "owner",
          "type": "address"
        }
      ],
      "name": "balanceOf",
      "outputs": [
        {
          "internalType": "uint256",
          "name": "",
          "type": "uint256"
        }
      ],
      "stateMutability": "view",
      "type": "function",
      "constant": true
    },
    {
      "inputs": [],
      "name": "eventIdCounter",
      "outputs": [
        {
          "internalType": "uint256",
          "name": "",
          "type": "uint256"
        }
      ],
      "stateMutability": "view",
      "type": "function",
      "constant": true
    },
    {
      "inputs": [
        {
          "internalType": "uint256",
          "name": "",
          "type": "uint256"
        }
      ],
      "name": "events",
      "outputs": [
        {
          "internalType": "string",
          "name": "name",
          "type": "string"
        },
        {
          "internalType": "uint256",
          "name": "date",
          "type": "uint256"
        },
        {
          "internalType": "uint256",
          "name": "price",
          "type": "uint256"
        },
        {
          "internalType": "uint256",
          "name": "totalTickets",
          "type": "uint256"
        },
        {
          "internalType": "uint256",
          "name": "ticketsSold",
          "type": "uint256"
        },
        {
          "internalType": "address",
          "name": "organizer",
          "type": "address"
        }
      ],
      "stateMutability": "view",
      "type": "function",
      "constant": true
    },
    {
      "inputs": [
        {
          "internalType": "uint256",
          "name": "tokenId",
          "type": "uint256"
        }
      ],
      "name": "getApproved",
      "outputs": [
        {
          "internalType": "address",
          "name": "",
          "type": "address"
        }
      ],
      "stateMutability": "view",
      "type": "function",
      "constant": true
    },
    {
      "inputs": [
        {
          "internalType": "address",
          "name": "owner",
          "type": "address"
        },
        {
          "internalType": "address",
          "name": "operator",
          "type": "address"
        }
      ],
      "name": "isApprovedForAll",
      "outputs": [
        {
          "internalType": "bool",
          "name": "",
          "type": "bool"
        }
      ],
      "stateMutability": "view",
      "type": "function",
      "constant": true
    },
    {
      "inputs": [],
      "name": "name",
      "outputs": [
        {
          "internalType": "string",
          "name": "",
          "type": "string"
        }
      ],
      "stateMutability": "view",
      "type": "function",
      "constant": true
    },
    {
      "inputs": [],
      "name": "nextTokenId",
      "outputs": [
        {
          "internalType": "uint256",
          "name": "",
          "type": "uint256"
        }
      ],
      "stateMutability": "view",
      "type": "function",
      "constant": true
    },
    {
      "inputs": [],
      "name": "owner",
      "outputs": [
        {
          "internalType": "address",
          "name": "",
          "type": "address"
        }
      ],
      "stateMutability": "view",
      "type": "function",
      "constant": true
    },
    {
      "inputs": [
        {
          "internalType": "uint256",
          "name": "tokenId",
          "type": "uint256"
        }
      ],
      "name": "ownerOf",
      "outputs": [
        {
          "internalType": "address",
          "name": "",
          "type": "address"
        }
      ],
      "stateMutability": "view",
      "type": "function",
      "constant": true
    },
    {
      "inputs": [],
      "name": "renounceOwnership",
      "outputs": [],
      "stateMutability": "nonpayable",
      "type": "function"
    },
    {
      "inputs": [
        {
          "internalType": "address",
          "name": "from",
          "type": "address"
        },
        {
          "internalType": "address",
          "name": "to",
          "type": "address"
        },
        {
          "internalType": "uint256",
          "name": "tokenId",
          "type": "uint256"
        }
      ],
      "name": "safeTransferFrom",
      "outputs": [],
      "stateMutability": "nonpayable",
      "type": "function"
    },
    {
      "inputs": [
        {
          "internalType": "address",
          "name": "from",
          "type": "address"
        },
        {
          "internalType": "address",
          "name": "to",
          "type": "address"
        },
        {
          "internalType": "uint256",
          "name": "tokenId",
          "type": "uint256"
        },
        {
          "internalType": "bytes",
          "name": "_data",
          "type": "bytes"
        }
      ],
      "name": "safeTransferFrom",
      "outputs": [],
      "stateMutability": "nonpayable",
      "type": "function"
    },
    {
      "inputs": [
        {
          "internalType": "address",
          "name": "operator",
          "type": "address"
        },
        {
          "internalType": "bool",
          "name": "approved",
          "type": "bool"
        }
      ],
      "name": "setApprovalForAll",
      "outputs": [],
      "stateMutability": "nonpayable",
      "type": "function"
    },
    {
      "inputs": [
        {
          "internalType": "bytes4",
          "name": "interfaceId",
          "type": "bytes4"
        }
      ],
      "name": "supportsInterface",
      "outputs": [
        {
          "internalType": "bool",
          "name": "",
          "type": "bool"
        }
      ],
      "stateMutability": "view",
      "type": "function",
      "constant": true
    },
    {
      "inputs": [],
      "name": "symbol",
      "outputs": [
        {
          "internalType": "string",
          "name": "",
          "type": "string"
        }
      ],
      "stateMutability": "view",
      "type": "function",
      "constant": true
    },
    {
      "inputs": [
        {
          "internalType": "uint256",
          "name": "",
          "type": "uint256"
        }
      ],
      "name": "ticketToEvent",
      "outputs": [
        {
          "internalType": "uint256",
          "name": "",
          "type": "uint256"
        }
      ],
      "stateMutability": "view",
      "type": "function",
      "constant": true
    },
    {
      "inputs": [
        {
          "internalType": "uint256",
          "name": "",
          "type": "uint256"
        }
      ],
      "name": "ticketValidity",
      "outputs": [
        {
          "internalType": "bool",
          "name": "",
          "type": "bool"
        }
      ],
      "stateMutability": "view",
      "type": "function",
      "constant": true
    },
    {
      "inputs": [
        {
          "internalType": "uint256",
          "name": "tokenId",
          "type": "uint256"
        }
      ],
      "name": "tokenURI",
      "outputs": [
        {
          "internalType": "string",
          "name": "",
          "type": "string"
        }
      ],
      "stateMutability": "view",
      "type": "function",
      "constant": true
    },
    {
      "inputs": [
        {
          "internalType": "address",
          "name": "from",
          "type": "address"
        },
        {
          "internalType": "address",
          "name": "to",
          "type": "address"
        },
        {
          "internalType": "uint256",
          "name": "tokenId",
          "type": "uint256"
        }
      ],
      "name": "transferFrom",
      "outputs": [],
      "stateMutability": "nonpayable",
      "type": "function"
    },
    {
      "inputs": [
        {
          "internalType": "address",
          "name": "newOwner",
          "type": "address"
        }
      ],
      "name": "transferOwnership",
      "outputs": [],
      "stateMutability": "nonpayable",
      "type": "function"
    },
    {
      "inputs": [
        {
          "internalType": "string",
          "name": "name",
          "type": "string"
        },
        {
          "internalType": "uint256",
          "name": "date",
          "type": "uint256"
        },
        {
          "internalType": "uint256",
          "name": "price",
          "type": "uint256"
        },
        {
          "internalType": "uint256",
          "name": "totalTickets",
          "type": "uint256"
        }
      ],
      "name": "createEvent",
      "outputs": [],
      "stateMutability": "nonpayable",
      "type": "function"
    },
    {
      "inputs": [
        {
          "internalType": "uint256",
          "name": "eventId",
          "type": "uint256"
        },
        {
          "internalType": "string",
          "name": "tokenURI",
          "type": "string"
        }
      ],
      "name": "buyTicket",
      "outputs": [],
      "stateMutability": "payable",
      "type": "function",
      "payable": true
    },
    {
      "inputs": [
        {
          "internalType": "address",
          "name": "to",
          "type": "address"
        },
        {
          "internalType": "uint256",
          "name": "tokenId",
          "type": "uint256"
        }
      ],
      "name": "resellTicket",
      "outputs": [],
      "stateMutability": "payable",
      "type": "function",
      "payable": true
    },
    {
      "inputs": [
        {
          "internalType": "uint256",
          "name": "tokenId",
          "type": "uint256"
        }
      ],
      "name": "invalidateTicket",
      "outputs": [],
      "stateMutability": "nonpayable",
      "type": "function"
    },
    {
      "inputs": [
        {
          "internalType": "uint256",
          "name": "tokenId",
          "type": "uint256"
        }
      ],
      "name": "isTicketValid",
      "outputs": [
        {
          "internalType": "bool",
          "name": "",
          "type": "bool"
        }
      ],
      "stateMutability": "view",
      "type": "function",
      "constant": true
    }
  ],
  "bytecode": "0x60806040523480156200001157600080fd5b506040518060400160405280600b81526020017f4576656e745469636b65740000000000000000000000000000000000000000008152506040518060400160405280600481526020017f455449580000000000000000000000000000000000000000000000000000000081525081600090816200008f919062000412565b508060019081620000a1919062000412565b505050620000c4620000b8620000ca60201b60201c565b620000d260201b60201c565b620004f9565b600033905090565b6000600760009054906101000a900473ffffffffffffffffffffffffffffffffffffffff16905081600760006101000a81548173ffffffffffffffffffffffffffffffffffffffff021916908373ffffffffffffffffffffffffffffffffffffffff1602179055508173ffffffffffffffffffffffffffffffffffffffff168173ffffffffffffffffffffffffffffffffffffffff167f8be0079c531659141344cd1fd0a4f28419497f9722a3daafe3b4186f6b6457e060405160405180910390a35050565b600081519050919050565b7f4e487b7100000000000000000000000000000000000000000000000000000000600052604160045260246000fd5b7f4e487b7100000000000000000000000000000000000000000000000000000000600052602260045260246000fd5b600060028204905060018216806200021a57607f821691505b60208210810362000230576200022f620001d2565b5b50919050565b60008190508160005260206000209050919050565b60006020601f8301049050919050565b600082821b905092915050565b6000600883026200029a7fffffffffffffffffffffffffffffffffffffffffffffffffffffffffffffffff826200025b565b620002a686836200025b565b95508019841693508086168417925050509392505050565b6000819050919050565b6000819050919050565b6000620002f3620002ed620002e784620002be565b620002c8565b620002be565b9050919050565b6000819050919050565b6200030f83620002d2565b620003276200031e82620002fa565b84845462000268565b825550505050565b600090565b6200033e6200032f565b6200034b81848462000304565b505050565b5b8181101562000373576200036760008262000334565b60018101905062000351565b5050565b601f821115620003c2576200038c8162000236565b62000397846200024b565b81016020851015620003a7578190505b620003bf620003b6856200024b565b83018262000350565b50505b505050565b600082821c905092915050565b6000620003e760001984600802620003c7565b1980831691505092915050565b6000620004028383620003d4565b9150826002028217905092915050565b6200041d8262000198565b67ffffffffffffffff811115620004395762000438620001a3565b5b62000445825462000201565b6200045282828562000377565b600060209050601f8311600181146200048a576000841562000475578287015190505b620004818582620003f4565b865550620004f1565b601f1984166200049a8662000236565b60005b82811015620004c4578489015182556001820191506020850194506020810190506200049d565b86831015620004e45784890151620004e0601f891682620003d4565b8355505b6001600288020188555050505b505050505050565b613f8780620005096000396000f3fe6080604052600436106101815760003560e01c806375794a3c116100d1578063c7ddab361161008a578063e985e9c511610064578063e985e9c51461057b578063f2fde38b146105b8578063f6ac04da146105e1578063fb3ae56f1461061e57610181565b8063c7ddab36146104ea578063c87b56dd14610513578063e01a0ebe1461055057610181565b806375794a3c146103fb5780638da5cb5b1461042657806395d89b41146104515780639afb93cb1461047c578063a22cb46514610498578063b88d4fde146104c157610181565b806321b9656e1161013e5780634daa058e116101185780634daa058e1461032d5780636352211e1461036a57806370a08231146103a7578063715018a6146103e457610181565b806321b9656e146102bf57806323b872dd146102db57806342842e0e1461030457610181565b806301ffc9a7146101865780630374ab0b146101c357806306fdde03146101ec578063081812fc14610217578063095ea7b3146102545780630b7914301461027d575b600080fd5b34801561019257600080fd5b506101ad60048036038101906101a89190612529565b61065b565b6040516101ba9190612571565b60405180910390f35b3480156101cf57600080fd5b506101ea60048036038101906101e59190612708565b61073d565b005b3480156101f857600080fd5b506102016108c1565b60405161020e919061280a565b60405180910390f35b34801561022357600080fd5b5061023e6004803603810190610239919061282c565b610953565b60405161024b919061289a565b60405180910390f35b34801561026057600080fd5b5061027b600480360381019061027691906128e1565b6109d8565b005b34801561028957600080fd5b506102a4600480360381019061029f919061282c565b610aef565b6040516102b696959493929190612930565b60405180910390f35b6102d960048036038101906102d491906128e1565b610bd3565b005b3480156102e757600080fd5b5061030260048036038101906102fd9190612998565b610d1a565b005b34801561031057600080fd5b5061032b60048036038101906103269190612998565b610d7a565b005b34801561033957600080fd5b50610354600480360381019061034f919061282c565b610d9a565b6040516103619190612571565b60405180910390f35b34801561037657600080fd5b50610391600480360381019061038c919061282c565b610dba565b60405161039e919061289a565b60405180910390f35b3480156103b357600080fd5b506103ce60048036038101906103c991906129eb565b610e6b565b6040516103db9190612a18565b60405180910390f35b3480156103f057600080fd5b506103f9610f22565b005b34801561040757600080fd5b50610410610faa565b60405161041d9190612a18565b60405180910390f35b34801561043257600080fd5b5061043b610fb0565b604051610448919061289a565b60405180910390f35b34801561045d57600080fd5b50610466610fda565b604051610473919061280a565b60405180910390f35b61049660048036038101906104919190612a33565b61106c565b005b3480156104a457600080fd5b506104bf60048036038101906104ba9190612abb565b6112a8565b005b3480156104cd57600080fd5b506104e860048036038101906104e39190612b9c565b6112be565b005b3480156104f657600080fd5b50610511600480360381019061050c919061282c565b611320565b005b34801561051f57600080fd5b5061053a6004803603810190610535919061282c565b6113cb565b604051610547919061280a565b60405180910390f35b34801561055c57600080fd5b5061056561151c565b6040516105729190612a18565b60405180910390f35b34801561058757600080fd5b506105a2600480360381019061059d9190612c1f565b611522565b6040516105af9190612571565b60405180910390f35b3480156105c457600080fd5b506105df60048036038101906105da91906129eb565b6115b6565b005b3480156105ed57600080fd5b506106086004803603810190610603919061282c565b6116ad565b6040516106159190612a18565b60405180910390f35b34801561062a57600080fd5b506106456004803603810190610640919061282c565b6116c5565b6040516106529190612571565b60405180910390f35b60007f80ac58cd000000000000000000000000000000000000000000000000000000007bffffffffffffffffffffffffffffffffffffffffffffffffffffffff1916827bffffffffffffffffffffffffffffffffffffffffffffffffffffffff1916148061072657507f5b5e139f000000000000000000000000000000000000000000000000000000007bffffffffffffffffffffffffffffffffffffffffffffffffffffffff1916827bffffffffffffffffffffffffffffffffffffffffffffffffffffffff1916145b806107365750610735826116ef565b5b9050919050565b42831161077f576040517f08c379a000000000000000000000000000000000000000000000000000000000815260040161077690612cab565b60405180910390fd5b600081116107c2576040517f08c379a00000000000000000000000000000000000000000000000000000000081526004016107b990612d17565b60405180910390fd5b6040518060c00160405280858152602001848152602001838152602001828152602001600081526020013373ffffffffffffffffffffffffffffffffffffffff16815250600a6000600954815260200190815260200160002060008201518160000190816108309190612f43565b506020820151816001015560408201518160020155606082015181600301556080820151816004015560a08201518160050160006101000a81548173ffffffffffffffffffffffffffffffffffffffff021916908373ffffffffffffffffffffffffffffffffffffffff160217905550905050600960008154809291906108b690613044565b919050555050505050565b6060600080546108d090612d66565b80601f01602080910402602001604051908101604052809291908181526020018280546108fc90612d66565b80156109495780601f1061091e57610100808354040283529160200191610949565b820191906000526020600020905b81548152906001019060200180831161092c57829003601f168201915b5050505050905090565b600061095e82611759565b61099d576040517f08c379a0000000000000000000000000000000000000000000000000000000008152600401610994906130fe565b60405180910390fd5b6004600083815260200190815260200160002060009054906101000a900473ffffffffffffffffffffffffffffffffffffffff169050919050565b60006109e382610dba565b90508073ffffffffffffffffffffffffffffffffffffffff168373ffffffffffffffffffffffffffffffffffffffff1603610a53576040517f08c379a0000000000000000000000000000000000000000000000000000000008152600401610a4a90613190565b60405180910390fd5b8073ffffffffffffffffffffffffffffffffffffffff16610a726117c5565b73ffffffffffffffffffffffffffffffffffffffff161480610aa15750610aa081610a9b6117c5565b611522565b5b610ae0576040517f08c379a0000000000000000000000000000000000000000000000000000000008152600401610ad790613222565b60405180910390fd5b610aea83836117cd565b505050565b600a602052806000526040600020600091509050806000018054610b1290612d66565b80601f0160208091040260200160405190810160405280929190818152602001828054610b3e90612d66565b8015610b8b5780601f10610b6057610100808354040283529160200191610b8b565b820191906000526020600020905b815481529060010190602001808311610b6e57829003601f168201915b5050505050908060010154908060020154908060030154908060040154908060050160009054906101000a900473ffffffffffffffffffffffffffffffffffffffff16905086565b3373ffffffffffffffffffffffffffffffffffffffff16610bf382610dba565b73ffffffffffffffffffffffffffffffffffffffff1614610c49576040517f08c379a0000000000000000000000000000000000000000000000000000000008152600401610c409061328e565b60405180910390fd5b600034905060008111610c91576040517f08c379a0000000000000000000000000000000000000000000000000000000008152600401610c8890613320565b60405180910390fd5b6000600c600084815260200190815260200160002060006101000a81548160ff021916908315150217905550610cc8338484611886565b60003390508073ffffffffffffffffffffffffffffffffffffffff166108fc839081150290604051600060405180830381858888f19350505050158015610d13573d6000803e3d6000fd5b5050505050565b610d2b610d256117c5565b82611ae1565b610d6a576040517f08c379a0000000000000000000000000000000000000000000000000000000008152600401610d61906133b2565b60405180910390fd5b610d75838383611886565b505050565b610d95838383604051806020016040528060008152506112be565b505050565b600c6020528060005260406000206000915054906101000a900460ff1681565b6000806002600084815260200190815260200160002060009054906101000a900473ffffffffffffffffffffffffffffffffffffffff169050600073ffffffffffffffffffffffffffffffffffffffff168173ffffffffffffffffffffffffffffffffffffffff1603610e62576040517f08c379a0000000000000000000000000000000000000000000000000000000008152600401610e5990613444565b60405180910390fd5b80915050919050565b60008073ffffffffffffffffffffffffffffffffffffffff168273ffffffffffffffffffffffffffffffffffffffff1603610edb576040517f08c379a0000000000000000000000000000000000000000000000000000000008152600401610ed2906134d6565b60405180910390fd5b600360008373ffffffffffffffffffffffffffffffffffffffff1673ffffffffffffffffffffffffffffffffffffffff168152602001908152602001600020549050919050565b610f2a6117c5565b73ffffffffffffffffffffffffffffffffffffffff16610f48610fb0565b73ffffffffffffffffffffffffffffffffffffffff1614610f9e576040517f08c379a0000000000000000000000000000000000000000000000000000000008152600401610f9590613542565b60405180910390fd5b610fa86000611bbf565b565b60085481565b6000600760009054906101000a900473ffffffffffffffffffffffffffffffffffffffff16905090565b606060018054610fe990612d66565b80601f016020809104026020016040519081016040528092919081815260200182805461101590612d66565b80156110625780601f1061103757610100808354040283529160200191611062565b820191906000526020600020905b81548152906001019060200180831161104557829003601f168201915b5050505050905090565b6000600a6000848152602001908152602001600020905060008160010154036110ca576040517f08c379a00000000000000000000000000000000000000000000000000000000081526004016110c1906135ae565b60405180910390fd5b80600101544210611110576040517f08c379a00000000000000000000000000000000000000000000000000000000081526004016111079061361a565b60405180910390fd5b806003015481600401541061115a576040517f08c379a000000000000000000000000000000000000000000000000000000000815260040161115190613686565b60405180910390fd5b806002015434146111a0576040517f08c379a0000000000000000000000000000000000000000000000000000000008152600401611197906136f2565b60405180910390fd5b8060040160008154809291906111b590613044565b919050555060006008549050600860008154809291906111d490613044565b91905055506111e33382611c85565b6111ed8184611ca3565b83600b6000838152602001908152602001600020819055506001600c600083815260200190815260200160002060006101000a81548160ff02191690831515021790555060008260050160009054906101000a900473ffffffffffffffffffffffffffffffffffffffff1690508073ffffffffffffffffffffffffffffffffffffffff166108fc349081150290604051600060405180830381858888f193505050501580156112a0573d6000803e3d6000fd5b505050505050565b6112ba6112b36117c5565b8383611d10565b5050565b6112cf6112c96117c5565b83611ae1565b61130e576040517f08c379a0000000000000000000000000000000000000000000000000000000008152600401611305906133b2565b60405180910390fd5b61131a84848484611e7c565b50505050565b6113286117c5565b73ffffffffffffffffffffffffffffffffffffffff16611346610fb0565b73ffffffffffffffffffffffffffffffffffffffff161461139c576040517f08c379a000000000000000000000000000000000000000000000000000000000815260040161139390613542565b60405180910390fd5b6000600c600083815260200190815260200160002060006101000a81548160ff02191690831515021790555050565b60606113d682611759565b611415576040517f08c379a000000000000000000000000000000000000000000000000000000000815260040161140c90613784565b60405180910390fd5b600060066000848152602001908152602001600020805461143590612d66565b80601f016020809104026020016040519081016040528092919081815260200182805461146190612d66565b80156114ae5780601f10611483576101008083540402835291602001916114ae565b820191906000526020600020905b81548152906001019060200180831161149157829003601f168201915b5050505050905060006114bf611ed8565b905060008151036114d4578192505050611517565b6000825111156115095780826040516020016114f19291906137e0565b60405160208183030381529060405292505050611517565b61151284611eef565b925050505b919050565b60095481565b6000600560008473ffffffffffffffffffffffffffffffffffffffff1673ffffffffffffffffffffffffffffffffffffffff16815260200190815260200160002060008373ffffffffffffffffffffffffffffffffffffffff1673ffffffffffffffffffffffffffffffffffffffff16815260200190815260200160002060009054906101000a900460ff16905092915050565b6115be6117c5565b73ffffffffffffffffffffffffffffffffffffffff166115dc610fb0565b73ffffffffffffffffffffffffffffffffffffffff1614611632576040517f08c379a000000000000000000000000000000000000000000000000000000000815260040161162990613542565b60405180910390fd5b600073ffffffffffffffffffffffffffffffffffffffff168173ffffffffffffffffffffffffffffffffffffffff16036116a1576040517f08c379a000000000000000000000000000000000000000000000000000000000815260040161169890613876565b60405180910390fd5b6116aa81611bbf565b50565b600b6020528060005260406000206000915090505481565b6000600c600083815260200190815260200160002060009054906101000a900460ff169050919050565b60007f01ffc9a7000000000000000000000000000000000000000000000000000000007bffffffffffffffffffffffffffffffffffffffffffffffffffffffff1916827bffffffffffffffffffffffffffffffffffffffffffffffffffffffff1916149050919050565b60008073ffffffffffffffffffffffffffffffffffffffff166002600084815260200190815260200160002060009054906101000a900473ffffffffffffffffffffffffffffffffffffffff1673ffffffffffffffffffffffffffffffffffffffff1614159050919050565b600033905090565b816004600083815260200190815260200160002060006101000a81548173ffffffffffffffffffffffffffffffffffffffff021916908373ffffffffffffffffffffffffffffffffffffffff160217905550808273ffffffffffffffffffffffffffffffffffffffff1661184083610dba565b73ffffffffffffffffffffffffffffffffffffffff167f8c5be1e5ebec7d5bd14f71427d1e84f3dd0314c0f7b2291e5b200ac8c7c3b92560405160405180910390a45050565b8273ffffffffffffffffffffffffffffffffffffffff166118a682610dba565b73ffffffffffffffffffffffffffffffffffffffff16146118fc576040517f08c379a00000000000000000000000000000000000000000000000000000000081526004016118f390613908565b60405180910390fd5b600073ffffffffffffffffffffffffffffffffffffffff168273ffffffffffffffffffffffffffffffffffffffff160361196b576040517f08c379a00000000000000000000000000000000000000000000000000000000081526004016119629061399a565b60405180910390fd5b611976838383611f96565b6119816000826117cd565b6001600360008573ffffffffffffffffffffffffffffffffffffffff1673ffffffffffffffffffffffffffffffffffffffff16815260200190815260200160002060008282546119d191906139ba565b925050819055506001600360008473ffffffffffffffffffffffffffffffffffffffff1673ffffffffffffffffffffffffffffffffffffffff1681526020019081526020016000206000828254611a2891906139ee565b92505081905550816002600083815260200190815260200160002060006101000a81548173ffffffffffffffffffffffffffffffffffffffff021916908373ffffffffffffffffffffffffffffffffffffffff160217905550808273ffffffffffffffffffffffffffffffffffffffff168473ffffffffffffffffffffffffffffffffffffffff167fddf252ad1be2c89b69c2b068fc378daa952ba7f163c4a11628f55a4df523b3ef60405160405180910390a4505050565b6000611aec82611759565b611b2b576040517f08c379a0000000000000000000000000000000000000000000000000000000008152600401611b2290613a94565b60405180910390fd5b6000611b3683610dba565b90508073ffffffffffffffffffffffffffffffffffffffff168473ffffffffffffffffffffffffffffffffffffffff161480611ba557508373ffffffffffffffffffffffffffffffffffffffff16611b8d84610953565b73ffffffffffffffffffffffffffffffffffffffff16145b80611bb65750611bb58185611522565b5b91505092915050565b6000600760009054906101000a900473ffffffffffffffffffffffffffffffffffffffff16905081600760006101000a81548173ffffffffffffffffffffffffffffffffffffffff021916908373ffffffffffffffffffffffffffffffffffffffff1602179055508173ffffffffffffffffffffffffffffffffffffffff168173ffffffffffffffffffffffffffffffffffffffff167f8be0079c531659141344cd1fd0a4f28419497f9722a3daafe3b4186f6b6457e060405160405180910390a35050565b611c9f828260405180602001604052806000815250611f9b565b5050565b611cac82611759565b611ceb576040517f08c379a0000000000000000000000000000000000000000000000000000000008152600401611ce290613b26565b60405180910390fd5b80600660008481526020019081526020016000209081611d0b9190612f43565b505050565b8173ffffffffffffffffffffffffffffffffffffffff168373ffffffffffffffffffffffffffffffffffffffff1603611d7e576040517f08c379a0000000000000000000000000000000000000000000000000000000008152600401611d7590613b92565b60405180910390fd5b80600560008573ffffffffffffffffffffffffffffffffffffffff1673ffffffffffffffffffffffffffffffffffffffff16815260200190815260200160002060008473ffffffffffffffffffffffffffffffffffffffff1673ffffffffffffffffffffffffffffffffffffffff16815260200190815260200160002060006101000a81548160ff0219169083151502179055508173ffffffffffffffffffffffffffffffffffffffff168373ffffffffffffffffffffffffffffffffffffffff167f17307eab39ab6107e8899845ad3d59bd9653f200f220920489ca2b5937696c3183604051611e6f9190612571565b60405180910390a3505050565b611e87848484611886565b611e9384848484611ff6565b611ed2576040517f08c379a0000000000000000000000000000000000000000000000000000000008152600401611ec990613c24565b60405180910390fd5b50505050565b606060405180602001604052806000815250905090565b6060611efa82611759565b611f39576040517f08c379a0000000000000000000000000000000000000000000000000000000008152600401611f3090613cb6565b60405180910390fd5b6000611f43611ed8565b90506000815111611f635760405180602001604052806000815250611f8e565b80611f6d8461217d565b604051602001611f7e9291906137e0565b6040516020818303038152906040525b915050919050565b505050565b611fa583836122dd565b611fb26000848484611ff6565b611ff1576040517f08c379a0000000000000000000000000000000000000000000000000000000008152600401611fe890613c24565b60405180910390fd5b505050565b60006120178473ffffffffffffffffffffffffffffffffffffffff166124aa565b15612170578373ffffffffffffffffffffffffffffffffffffffff1663150b7a026120406117c5565b8786866040518563ffffffff1660e01b81526004016120629493929190613d2b565b6020604051808303816000875af192505050801561209e57506040513d601f19601f8201168201806040525081019061209b9190613d8c565b60015b612120573d80600081146120ce576040519150601f19603f3d011682016040523d82523d6000602084013e6120d3565b606091505b506000815103612118576040517f08c379a000000000000000000000000000000000000000000000000000000000815260040161210f90613c24565b60405180910390fd5b805181602001fd5b63150b7a0260e01b7bffffffffffffffffffffffffffffffffffffffffffffffffffffffff1916817bffffffffffffffffffffffffffffffffffffffffffffffffffffffff191614915050612175565b600190505b949350505050565b6060600082036121c4576040518060400160405280600181526020017f300000000000000000000000000000000000000000000000000000000000000081525090506122d8565b600082905060005b600082146121f65780806121df90613044565b915050600a826121ef9190613de8565b91506121cc565b60008167ffffffffffffffff811115612212576122116125a7565b5b6040519080825280601f01601f1916602001820160405280156122445781602001600182028036833780820191505090505b5090505b600085146122d15760018261225d91906139ba565b9150600a8561226c9190613e19565b603061227891906139ee565b60f81b81838151811061228e5761228d613e4a565b5b60200101907effffffffffffffffffffffffffffffffffffffffffffffffffffffffffffff1916908160001a905350600a856122ca9190613de8565b9450612248565b8093505050505b919050565b600073ffffffffffffffffffffffffffffffffffffffff168273ffffffffffffffffffffffffffffffffffffffff160361234c576040517f08c379a000000000000000000000000000000000000000000000000000000000815260040161234390613ec5565b60405180910390fd5b61235581611759565b15612395576040517f08c379a000000000000000000000000000000000000000000000000000000000815260040161238c90613f31565b60405180910390fd5b6123a160008383611f96565b6001600360008473ffffffffffffffffffffffffffffffffffffffff1673ffffffffffffffffffffffffffffffffffffffff16815260200190815260200160002060008282546123f191906139ee565b92505081905550816002600083815260200190815260200160002060006101000a81548173ffffffffffffffffffffffffffffffffffffffff021916908373ffffffffffffffffffffffffffffffffffffffff160217905550808273ffffffffffffffffffffffffffffffffffffffff16600073ffffffffffffffffffffffffffffffffffffffff167fddf252ad1be2c89b69c2b068fc378daa952ba7f163c4a11628f55a4df523b3ef60405160405180910390a45050565b600080823b905060008111915050919050565b6000604051905090565b600080fd5b600080fd5b60007fffffffff0000000000000000000000000000000000000000000000000000000082169050919050565b612506816124d1565b811461251157600080fd5b50565b600081359050612523816124fd565b92915050565b60006020828403121561253f5761253e6124c7565b5b600061254d84828501612514565b91505092915050565b60008115159050919050565b61256b81612556565b82525050565b60006020820190506125866000830184612562565b92915050565b600080fd5b600080fd5b6000601f19601f8301169050919050565b7f4e487b7100000000000000000000000000000000000000000000000000000000600052604160045260246000fd5b6125df82612596565b810181811067ffffffffffffffff821117156125fe576125fd6125a7565b5b80604052505050565b60006126116124bd565b905061261d82826125d6565b919050565b600067ffffffffffffffff82111561263d5761263c6125a7565b5b61264682612596565b9050602081019050919050565b82818337600083830152505050565b600061267561267084612622565b612607565b90508281526020810184848401111561269157612690612591565b5b61269c848285612653565b509392505050565b600082601f8301126126b9576126b861258c565b5b81356126c9848260208601612662565b91505092915050565b6000819050919050565b6126e5816126d2565b81146126f057600080fd5b50565b600081359050612702816126dc565b92915050565b60008060008060808587031215612722576127216124c7565b5b600085013567ffffffffffffffff8111156127405761273f6124cc565b5b61274c878288016126a4565b945050602061275d878288016126f3565b935050604061276e878288016126f3565b925050606061277f878288016126f3565b91505092959194509250565b600081519050919050565b600082825260208201905092915050565b60005b838110156127c55780820151818401526020810190506127aa565b60008484015250505050565b60006127dc8261278b565b6127e68185612796565b93506127f68185602086016127a7565b6127ff81612596565b840191505092915050565b6000602082019050818103600083015261282481846127d1565b905092915050565b600060208284031215612842576128416124c7565b5b6000612850848285016126f3565b91505092915050565b600073ffffffffffffffffffffffffffffffffffffffff82169050919050565b600061288482612859565b9050919050565b61289481612879565b82525050565b60006020820190506128af600083018461288b565b92915050565b6128be81612879565b81146128c957600080fd5b50565b6000813590506128db816128b5565b92915050565b600080604083850312156128f8576128f76124c7565b5b6000612906858286016128cc565b9250506020612917858286016126f3565b9150509250929050565b61292a816126d2565b82525050565b600060c082019050818103600083015261294a81896127d1565b90506129596020830188612921565b6129666040830187612921565b6129736060830186612921565b6129806080830185612921565b61298d60a083018461288b565b979650505050505050565b6000806000606084860312156129b1576129b06124c7565b5b60006129bf868287016128cc565b93505060206129d0868287016128cc565b92505060406129e1868287016126f3565b9150509250925092565b600060208284031215612a0157612a006124c7565b5b6000612a0f848285016128cc565b91505092915050565b6000602082019050612a2d6000830184612921565b92915050565b60008060408385031215612a4a57612a496124c7565b5b6000612a58858286016126f3565b925050602083013567ffffffffffffffff811115612a7957612a786124cc565b5b612a85858286016126a4565b9150509250929050565b612a9881612556565b8114612aa357600080fd5b50565b600081359050612ab581612a8f565b92915050565b60008060408385031215612ad257612ad16124c7565b5b6000612ae0858286016128cc565b9250506020612af185828601612aa6565b9150509250929050565b600067ffffffffffffffff821115612b1657612b156125a7565b5b612b1f82612596565b9050602081019050919050565b6000612b3f612b3a84612afb565b612607565b905082815260208101848484011115612b5b57612b5a612591565b5b612b66848285612653565b509392505050565b600082601f830112612b8357612b8261258c565b5b8135612b93848260208601612b2c565b91505092915050565b60008060008060808587031215612bb657612bb56124c7565b5b6000612bc4878288016128cc565b9450506020612bd5878288016128cc565b9350506040612be6878288016126f3565b925050606085013567ffffffffffffffff811115612c0757612c066124cc565b5b612c1387828801612b6e565b91505092959194509250565b60008060408385031215612c3657612c356124c7565b5b6000612c44858286016128cc565b9250506020612c55858286016128cc565b9150509250929050565b7f4576656e74206d75737420626520696e20746865206675747572650000000000600082015250565b6000612c95601b83612796565b9150612ca082612c5f565b602082019050919050565b60006020820190508181036000830152612cc481612c88565b9050919050565b7f5469636b657473206d757374206265206d6f7265207468616e20300000000000600082015250565b6000612d01601b83612796565b9150612d0c82612ccb565b602082019050919050565b60006020820190508181036000830152612d3081612cf4565b9050919050565b7f4e487b7100000000000000000000000000000000000000000000000000000000600052602260045260246000fd5b60006002820490506001821680612d7e57607f821691505b602082108103612d9157612d90612d37565b5b50919050565b60008190508160005260206000209050919050565b60006020601f8301049050919050565b600082821b905092915050565b600060088302612df97fffffffffffffffffffffffffffffffffffffffffffffffffffffffffffffffff82612dbc565b612e038683612dbc565b95508019841693508086168417925050509392505050565b6000819050919050565b6000612e40612e3b612e36846126d2565b612e1b565b6126d2565b9050919050565b6000819050919050565b612e5a83612e25565b612e6e612e6682612e47565b848454612dc9565b825550505050565b600090565b612e83612e76565b612e8e818484612e51565b505050565b5b81811015612eb257612ea7600082612e7b565b600181019050612e94565b5050565b601f821115612ef757612ec881612d97565b612ed184612dac565b81016020851015612ee0578190505b612ef4612eec85612dac565b830182612e93565b50505b505050565b600082821c905092915050565b6000612f1a60001984600802612efc565b1980831691505092915050565b6000612f338383612f09565b9150826002028217905092915050565b612f4c8261278b565b67ffffffffffffffff811115612f6557612f646125a7565b5b612f6f8254612d66565b612f7a828285612eb6565b600060209050601f831160018114612fad5760008415612f9b578287015190505b612fa58582612f27565b86555061300d565b601f198416612fbb86612d97565b60005b82811015612fe357848901518255600182019150602085019450602081019050612fbe565b868310156130005784890151612ffc601f891682612f09565b8355505b6001600288020188555050505b505050505050565b7f4e487b7100000000000000000000000000000000000000000000000000000000600052601160045260246000fd5b600061304f826126d2565b91507fffffffffffffffffffffffffffffffffffffffffffffffffffffffffffffffff820361308157613080613015565b5b600182019050919050565b7f4552433732313a20617070726f76656420717565727920666f72206e6f6e657860008201527f697374656e7420746f6b656e0000000000000000000000000000000000000000602082015250565b60006130e8602c83612796565b91506130f38261308c565b604082019050919050565b60006020820190508181036000830152613117816130db565b9050919050565b7f4552433732313a20617070726f76616c20746f2063757272656e74206f776e6560008201527f7200000000000000000000000000000000000000000000000000000000000000602082015250565b600061317a602183612796565b91506131858261311e565b604082019050919050565b600060208201905081810360008301526131a98161316d565b9050919050565b7f4552433732313a20617070726f76652063616c6c6572206973206e6f74206f7760008201527f6e6572206e6f7220617070726f76656420666f7220616c6c0000000000000000602082015250565b600061320c603883612796565b9150613217826131b0565b604082019050919050565b6000602082019050818103600083015261323b816131ff565b9050919050565b7f4e6f7420746865207469636b6574206f776e6572000000000000000000000000600082015250565b6000613278601483612796565b915061328382613242565b602082019050919050565b600060208201905081810360008301526132a78161326b565b9050919050565b7f526573616c65207072696365206d75737420626520677265617465722074686160008201527f6e20300000000000000000000000000000000000000000000000000000000000602082015250565b600061330a602383612796565b9150613315826132ae565b604082019050919050565b60006020820190508181036000830152613339816132fd565b9050919050565b7f4552433732313a207472616e736665722063616c6c6572206973206e6f74206f60008201527f776e6572206e6f7220617070726f766564000000000000000000000000000000602082015250565b600061339c603183612796565b91506133a782613340565b604082019050919050565b600060208201905081810360008301526133cb8161338f565b9050919050565b7f4552433732313a206f776e657220717565727920666f72206e6f6e657869737460008201527f656e7420746f6b656e0000000000000000000000000000000000000000000000602082015250565b600061342e602983612796565b9150613439826133d2565b604082019050919050565b6000602082019050818103600083015261345d81613421565b9050919050565b7f4552433732313a2062616c616e636520717565727920666f7220746865207a6560008201527f726f206164647265737300000000000000000000000000000000000000000000602082015250565b60006134c0602a83612796565b91506134cb82613464565b604082019050919050565b600060208201905081810360008301526134ef816134b3565b9050919050565b7f4f776e61626c653a2063616c6c6572206973206e6f7420746865206f776e6572600082015250565b600061352c602083612796565b9150613537826134f6565b602082019050919050565b6000602082019050818103600083015261355b8161351f565b9050919050565b7f4576656e7420646f6573206e6f74206578697374000000000000000000000000600082015250565b6000613598601483612796565b91506135a382613562565b602082019050919050565b600060208201905081810360008301526135c78161358b565b9050919050565b7f4576656e7420616c7265616479206f6363757272656400000000000000000000600082015250565b6000613604601683612796565b915061360f826135ce565b602082019050919050565b60006020820190508181036000830152613633816135f7565b9050919050565b7f536f6c64206f7574000000000000000000000000000000000000000000000000600082015250565b6000613670600883612796565b915061367b8261363a565b602082019050919050565b6000602082019050818103600083015261369f81613663565b9050919050565b7f496e636f727265637420616d6f756e7400000000000000000000000000000000600082015250565b60006136dc601083612796565b91506136e7826136a6565b602082019050919050565b6000602082019050818103600083015261370b816136cf565b9050919050565b7f45524337323155524953746f726167653a2055524920717565727920666f722060008201527f6e6f6e6578697374656e7420746f6b656e000000000000000000000000000000602082015250565b600061376e603183612796565b915061377982613712565b604082019050919050565b6000602082019050818103600083015261379d81613761565b9050919050565b600081905092915050565b60006137ba8261278b565b6137c481856137a4565b93506137d48185602086016127a7565b80840191505092915050565b60006137ec82856137af565b91506137f882846137af565b91508190509392505050565b7f4f776e61626c653a206e6577206f776e657220697320746865207a65726f206160008201527f6464726573730000000000000000000000000000000000000000000000000000602082015250565b6000613860602683612796565b915061386b82613804565b604082019050919050565b6000602082019050818103600083015261388f81613853565b9050919050565b7f4552433732313a207472616e73666572206f6620746f6b656e2074686174206960008201527f73206e6f74206f776e0000000000000000000000000000000000000000000000602082015250565b60006138f2602983612796565b91506138fd82613896565b604082019050919050565b60006020820190508181036000830152613921816138e5565b9050919050565b7f4552433732313a207472616e7366657220746f20746865207a65726f2061646460008201527f7265737300000000000000000000000000000000000000000000000000000000602082015250565b6000613984602483612796565b915061398f82613928565b604082019050919050565b600060208201905081810360008301526139b381613977565b9050919050565b60006139c5826126d2565b91506139d0836126d2565b92508282039050818111156139e8576139e7613015565b5b92915050565b60006139f9826126d2565b9150613a04836126d2565b9250828201905080821115613a1c57613a1b613015565b5b92915050565b7f4552433732313a206f70657261746f7220717565727920666f72206e6f6e657860008201527f697374656e7420746f6b656e0000000000000000000000000000000000000000602082015250565b6000613a7e602c83612796565b9150613a8982613a22565b604082019050919050565b60006020820190508181036000830152613aad81613a71565b9050919050565b7f45524337323155524953746f726167653a2055524920736574206f66206e6f6e60008201527f6578697374656e7420746f6b656e000000000000000000000000000000000000602082015250565b6000613b10602e83612796565b9150613b1b82613ab4565b604082019050919050565b60006020820190508181036000830152613b3f81613b03565b9050919050565b7f4552433732313a20617070726f766520746f2063616c6c657200000000000000600082015250565b6000613b7c601983612796565b9150613b8782613b46565b602082019050919050565b60006020820190508181036000830152613bab81613b6f565b9050919050565b7f4552433732313a207472616e7366657220746f206e6f6e20455243373231526560008201527f63656976657220696d706c656d656e7465720000000000000000000000000000602082015250565b6000613c0e603283612796565b9150613c1982613bb2565b604082019050919050565b60006020820190508181036000830152613c3d81613c01565b9050919050565b7f4552433732314d657461646174613a2055524920717565727920666f72206e6f60008201527f6e6578697374656e7420746f6b656e0000000000000000000000000000000000602082015250565b6000613ca0602f83612796565b9150613cab82613c44565b604082019050919050565b60006020820190508181036000830152613ccf81613c93565b9050919050565b600081519050919050565b600082825260208201905092915050565b6000613cfd82613cd6565b613d078185613ce1565b9350613d178185602086016127a7565b613d2081612596565b840191505092915050565b6000608082019050613d40600083018761288b565b613d4d602083018661288b565b613d5a6040830185612921565b8181036060830152613d6c8184613cf2565b905095945050505050565b600081519050613d86816124fd565b92915050565b600060208284031215613da257613da16124c7565b5b6000613db084828501613d77565b91505092915050565b7f4e487b7100000000000000000000000000000000000000000000000000000000600052601260045260246000fd5b6000613df3826126d2565b9150613dfe836126d2565b925082613e0e57613e0d613db9565b5b828204905092915050565b6000613e24826126d2565b9150613e2f836126d2565b925082613e3f57613e3e613db9565b5b828206905092915050565b7f4e487b7100000000000000000000000000000000000000000000000000000000600052603260045260246000fd5b7f4552433732313a206d696e7420746f20746865207a65726f2061646472657373600082015250565b6000613eaf602083612796565b9150613eba82613e79565b602082019050919050565b60006020820190508181036000830152613ede81613ea2565b9050919050565b7f4552433732313a20746f6b656e20616c7265616479206d696e74656400000000600082015250565b6000613f1b601c83612796565b9150613f2682613ee5565b602082019050919050565b60006020820190508181036000830152613f4a81613f0e565b905091905056fea26469706673582212201e82ca538a8269eeb51199c33e44cf7807ddb7f66b0e5294a62bb61dece1a1ed64736f6c63430008110033",
  "immutableReferences": {},
  "source": "// SPDX-License-Identifier: MIT\r\npragma solidity 0.8.17;\r\n\r\nimport \"@openzeppelin/contracts/token/ERC721/extensions/ERC721URIStorage.sol\";\r\nimport \"@openzeppelin/contracts/access/Ownable.sol\";\r\n\r\ncontract EventTicket is ERC721URIStorage, Ownable {\r\n    uint public nextTokenId;\r\n    uint public eventIdCounter;\r\n\r\n    struct Event {\r\n        string name;\r\n        uint date;\r\n        uint price;\r\n        uint totalTickets;\r\n        uint ticketsSold;\r\n        address organizer;\r\n    }\r\n\r\n    mapping(uint => Event) public events;\r\n    mapping(uint => uint) public ticketToEvent; \r\n    mapping(uint => bool) public ticketValidity; \r\n    \r\n    constructor() ERC721(\"EventTicket\", \"ETIX\") {}\r\n\r\n    function createEvent(\r\n        string memory name,\r\n        uint date,\r\n        uint price,\r\n        uint totalTickets\r\n    ) external {\r\n        require(date > block.timestamp, \"Event must be in the future\");\r\n        require(totalTickets > 0, \"Tickets must be more than 0\");\r\n\r\n        events[eventIdCounter] = Event(\r\n            name,\r\n            date,\r\n            price,\r\n            totalTickets,\r\n            0,\r\n            msg.sender\r\n        );\r\n\r\n        eventIdCounter++;\r\n    }\r\n\r\n    function buyTicket(uint eventId, string memory tokenURI) external payable {\r\n        Event storage _event = events[eventId];\r\n        require(_event.date != 0, \"Event does not exist\");\r\n        require(block.timestamp < _event.date, \"Event already occurred\");\r\n        require(_event.ticketsSold < _event.totalTickets, \"Sold out\");\r\n        require(msg.value == _event.price, \"Incorrect amount\");\r\n\r\n        _event.ticketsSold++;\r\n        uint tokenId = nextTokenId;\r\n        nextTokenId++;\r\n\r\n        _safeMint(msg.sender, tokenId);\r\n        _setTokenURI(tokenId, tokenURI);\r\n\r\n        ticketToEvent[tokenId] = eventId;\r\n        ticketValidity[tokenId] = true;\r\n\r\n        address payable organizer = payable(_event.organizer);\r\n        organizer.transfer(msg.value);\r\n    }\r\n\r\n    function resellTicket(address to, uint tokenId) external payable {\r\n\r\n    require(ownerOf(tokenId) == msg.sender, \"Not the ticket owner\");\r\n    \r\n    uint resalePrice = msg.value; \r\n\r\n    require(resalePrice > 0, \"Resale price must be greater than 0\");\r\n\r\n    ticketValidity[tokenId] = false;\r\n    _transfer(msg.sender, to, tokenId);\r\n\r\n    address payable seller = payable(msg.sender);\r\n    seller.transfer(resalePrice);\r\n}\r\n\r\n\r\n    function invalidateTicket(uint tokenId) external onlyOwner {\r\n        ticketValidity[tokenId] = false;\r\n    }\r\n\r\n    function isTicketValid(uint tokenId) external view returns (bool) {\r\n        return ticketValidity[tokenId];\r\n    }\r\n}",
  "sourcePath": "C:\\Users\\lenovo\\Desktop\\2nd year\\Blockchain\\event-ticketing-system\\Event-Ticketing-System\\contracts\\EventTicket.sol",
  "compiler": {
    "name": "solc",
    "version": "0.8.17+commit.8df45f5f.Emscripten.clang"
  },
  "schemaVersion": "3.4.16",
  "updatedAt": "2025-04-25T12:29:17.798Z",
  "networkType": "ethereum",
  "devdoc": {
    "kind": "dev",
    "methods": {
      "approve(address,uint256)": {
        "details": "See {IERC721-approve}."
      },
      "balanceOf(address)": {
        "details": "See {IERC721-balanceOf}."
      },
      "getApproved(uint256)": {
        "details": "See {IERC721-getApproved}."
      },
      "isApprovedForAll(address,address)": {
        "details": "See {IERC721-isApprovedForAll}."
      },
      "name()": {
        "details": "See {IERC721Metadata-name}."
      },
      "owner()": {
        "details": "Returns the address of the current owner."
      },
      "ownerOf(uint256)": {
        "details": "See {IERC721-ownerOf}."
      },
      "renounceOwnership()": {
        "details": "Leaves the contract without owner. It will not be possible to call `onlyOwner` functions anymore. Can only be called by the current owner. NOTE: Renouncing ownership will leave the contract without an owner, thereby removing any functionality that is only available to the owner."
      },
      "safeTransferFrom(address,address,uint256)": {
        "details": "See {IERC721-safeTransferFrom}."
      },
      "safeTransferFrom(address,address,uint256,bytes)": {
        "details": "See {IERC721-safeTransferFrom}."
      },
      "setApprovalForAll(address,bool)": {
        "details": "See {IERC721-setApprovalForAll}."
      },
      "supportsInterface(bytes4)": {
        "details": "See {IERC165-supportsInterface}."
      },
      "symbol()": {
        "details": "See {IERC721Metadata-symbol}."
      },
      "tokenURI(uint256)": {
        "details": "See {IERC721Metadata-tokenURI}."
      },
      "transferFrom(address,address,uint256)": {
        "details": "See {IERC721-transferFrom}."
      },
      "transferOwnership(address)": {
        "details": "Transfers ownership of the contract to a new account (`newOwner`). Can only be called by the current owner."
      }
    },
    "version": 1
  },
  "userdoc": {
    "kind": "user",
    "methods": {},
    "version": 1
  }
}