{
  "contractName": "EventTicket",
  "abi": [
    {
      "inputs": [],
      "stateMutability": "nonpayable",
      "type": "constructor"
    },
    {
      "anonymous": false,
      "inputs": [
        {
          "indexed": true,
          "internalType": "address",
          "name": "owner",
          "type": "address"
        },
        {
          "indexed": true,
          "internalType": "address",
          "name": "approved",
          "type": "address"
        },
        {
          "indexed": true,
          "internalType": "uint256",
          "name": "tokenId",
          "type": "uint256"
        }
      ],
      "name": "Approval",
      "type": "event"
    },
    {
      "anonymous": false,
      "inputs": [
        {
          "indexed": true,
          "internalType": "address",
          "name": "owner",
          "type": "address"
        },
        {
          "indexed": true,
          "internalType": "address",
          "name": "operator",
          "type": "address"
        },
        {
          "indexed": false,
          "internalType": "bool",
          "name": "approved",
          "type": "bool"
        }
      ],
      "name": "ApprovalForAll",
      "type": "event"
    },
    {
      "anonymous": false,
      "inputs": [
        {
          "indexed": false,
          "internalType": "uint256",
          "name": "_fromTokenId",
          "type": "uint256"
        },
        {
          "indexed": false,
          "internalType": "uint256",
          "name": "_toTokenId",
          "type": "uint256"
        }
      ],
      "name": "BatchMetadataUpdate",
      "type": "event"
    },
    {
      "anonymous": false,
      "inputs": [
        {
          "indexed": false,
          "internalType": "uint256",
          "name": "_tokenId",
          "type": "uint256"
        }
      ],
      "name": "MetadataUpdate",
      "type": "event"
    },
    {
      "anonymous": false,
      "inputs": [
        {
          "indexed": true,
          "internalType": "address",
          "name": "previousOwner",
          "type": "address"
        },
        {
          "indexed": true,
          "internalType": "address",
          "name": "newOwner",
          "type": "address"
        }
      ],
      "name": "OwnershipTransferred",
      "type": "event"
    },
    {
      "anonymous": false,
      "inputs": [
        {
          "indexed": true,
          "internalType": "address",
          "name": "from",
          "type": "address"
        },
        {
          "indexed": true,
          "internalType": "address",
          "name": "to",
          "type": "address"
        },
        {
          "indexed": true,
          "internalType": "uint256",
          "name": "tokenId",
          "type": "uint256"
        }
      ],
      "name": "Transfer",
      "type": "event"
    },
    {
      "inputs": [
        {
          "internalType": "address",
          "name": "to",
          "type": "address"
        },
        {
          "internalType": "uint256",
          "name": "tokenId",
          "type": "uint256"
        }
      ],
      "name": "approve",
      "outputs": [],
      "stateMutability": "nonpayable",
      "type": "function"
    },
    {
      "inputs": [
        {
          "internalType": "address",
          "name": "owner",
          "type": "address"
        }
      ],
      "name": "balanceOf",
      "outputs": [
        {
          "internalType": "uint256",
          "name": "",
          "type": "uint256"
        }
      ],
      "stateMutability": "view",
      "type": "function",
      "constant": true
    },
    {
      "inputs": [],
      "name": "eventIdCounter",
      "outputs": [
        {
          "internalType": "uint256",
          "name": "",
          "type": "uint256"
        }
      ],
      "stateMutability": "view",
      "type": "function",
      "constant": true
    },
    {
      "inputs": [
        {
          "internalType": "uint256",
          "name": "",
          "type": "uint256"
        }
      ],
      "name": "events",
      "outputs": [
        {
          "internalType": "string",
          "name": "name",
          "type": "string"
        },
        {
          "internalType": "uint256",
          "name": "date",
          "type": "uint256"
        },
        {
          "internalType": "uint256",
          "name": "price",
          "type": "uint256"
        },
        {
          "internalType": "uint256",
          "name": "totalTickets",
          "type": "uint256"
        },
        {
          "internalType": "uint256",
          "name": "ticketsSold",
          "type": "uint256"
        },
        {
          "internalType": "address",
          "name": "organizer",
          "type": "address"
        }
      ],
      "stateMutability": "view",
      "type": "function",
      "constant": true
    },
    {
      "inputs": [
        {
          "internalType": "uint256",
          "name": "tokenId",
          "type": "uint256"
        }
      ],
      "name": "getApproved",
      "outputs": [
        {
          "internalType": "address",
          "name": "",
          "type": "address"
        }
      ],
      "stateMutability": "view",
      "type": "function",
      "constant": true
    },
    {
      "inputs": [
        {
          "internalType": "address",
          "name": "owner",
          "type": "address"
        },
        {
          "internalType": "address",
          "name": "operator",
          "type": "address"
        }
      ],
      "name": "isApprovedForAll",
      "outputs": [
        {
          "internalType": "bool",
          "name": "",
          "type": "bool"
        }
      ],
      "stateMutability": "view",
      "type": "function",
      "constant": true
    },
    {
      "inputs": [],
      "name": "name",
      "outputs": [
        {
          "internalType": "string",
          "name": "",
          "type": "string"
        }
      ],
      "stateMutability": "view",
      "type": "function",
      "constant": true
    },
    {
      "inputs": [],
      "name": "nextTokenId",
      "outputs": [
        {
          "internalType": "uint256",
          "name": "",
          "type": "uint256"
        }
      ],
      "stateMutability": "view",
      "type": "function",
      "constant": true
    },
    {
      "inputs": [],
      "name": "owner",
      "outputs": [
        {
          "internalType": "address",
          "name": "",
          "type": "address"
        }
      ],
      "stateMutability": "view",
      "type": "function",
      "constant": true
    },
    {
      "inputs": [
        {
          "internalType": "uint256",
          "name": "tokenId",
          "type": "uint256"
        }
      ],
      "name": "ownerOf",
      "outputs": [
        {
          "internalType": "address",
          "name": "",
          "type": "address"
        }
      ],
      "stateMutability": "view",
      "type": "function",
      "constant": true
    },
    {
      "inputs": [],
      "name": "renounceOwnership",
      "outputs": [],
      "stateMutability": "nonpayable",
      "type": "function"
    },
    {
      "inputs": [
        {
          "internalType": "address",
          "name": "from",
          "type": "address"
        },
        {
          "internalType": "address",
          "name": "to",
          "type": "address"
        },
        {
          "internalType": "uint256",
          "name": "tokenId",
          "type": "uint256"
        }
      ],
      "name": "safeTransferFrom",
      "outputs": [],
      "stateMutability": "nonpayable",
      "type": "function"
    },
    {
      "inputs": [
        {
          "internalType": "address",
          "name": "from",
          "type": "address"
        },
        {
          "internalType": "address",
          "name": "to",
          "type": "address"
        },
        {
          "internalType": "uint256",
          "name": "tokenId",
          "type": "uint256"
        },
        {
          "internalType": "bytes",
          "name": "data",
          "type": "bytes"
        }
      ],
      "name": "safeTransferFrom",
      "outputs": [],
      "stateMutability": "nonpayable",
      "type": "function"
    },
    {
      "inputs": [
        {
          "internalType": "address",
          "name": "operator",
          "type": "address"
        },
        {
          "internalType": "bool",
          "name": "approved",
          "type": "bool"
        }
      ],
      "name": "setApprovalForAll",
      "outputs": [],
      "stateMutability": "nonpayable",
      "type": "function"
    },
    {
      "inputs": [
        {
          "internalType": "bytes4",
          "name": "interfaceId",
          "type": "bytes4"
        }
      ],
      "name": "supportsInterface",
      "outputs": [
        {
          "internalType": "bool",
          "name": "",
          "type": "bool"
        }
      ],
      "stateMutability": "view",
      "type": "function",
      "constant": true
    },
    {
      "inputs": [],
      "name": "symbol",
      "outputs": [
        {
          "internalType": "string",
          "name": "",
          "type": "string"
        }
      ],
      "stateMutability": "view",
      "type": "function",
      "constant": true
    },
    {
      "inputs": [
        {
          "internalType": "uint256",
          "name": "",
          "type": "uint256"
        }
      ],
      "name": "ticketToEvent",
      "outputs": [
        {
          "internalType": "uint256",
          "name": "",
          "type": "uint256"
        }
      ],
      "stateMutability": "view",
      "type": "function",
      "constant": true
    },
    {
      "inputs": [
        {
          "internalType": "uint256",
          "name": "",
          "type": "uint256"
        }
      ],
      "name": "ticketValidity",
      "outputs": [
        {
          "internalType": "bool",
          "name": "",
          "type": "bool"
        }
      ],
      "stateMutability": "view",
      "type": "function",
      "constant": true
    },
    {
      "inputs": [
        {
          "internalType": "uint256",
          "name": "tokenId",
          "type": "uint256"
        }
      ],
      "name": "tokenURI",
      "outputs": [
        {
          "internalType": "string",
          "name": "",
          "type": "string"
        }
      ],
      "stateMutability": "view",
      "type": "function",
      "constant": true
    },
    {
      "inputs": [
        {
          "internalType": "address",
          "name": "from",
          "type": "address"
        },
        {
          "internalType": "address",
          "name": "to",
          "type": "address"
        },
        {
          "internalType": "uint256",
          "name": "tokenId",
          "type": "uint256"
        }
      ],
      "name": "transferFrom",
      "outputs": [],
      "stateMutability": "nonpayable",
      "type": "function"
    },
    {
      "inputs": [
        {
          "internalType": "address",
          "name": "newOwner",
          "type": "address"
        }
      ],
      "name": "transferOwnership",
      "outputs": [],
      "stateMutability": "nonpayable",
      "type": "function"
    },
    {
      "inputs": [
        {
          "internalType": "string",
          "name": "name",
          "type": "string"
        },
        {
          "internalType": "uint256",
          "name": "date",
          "type": "uint256"
        },
        {
          "internalType": "uint256",
          "name": "price",
          "type": "uint256"
        },
        {
          "internalType": "uint256",
          "name": "totalTickets",
          "type": "uint256"
        }
      ],
      "name": "createEvent",
      "outputs": [],
      "stateMutability": "nonpayable",
      "type": "function"
    },
    {
      "inputs": [
        {
          "internalType": "uint256",
          "name": "eventId",
          "type": "uint256"
        },
        {
          "internalType": "string",
          "name": "tokenURI",
          "type": "string"
        }
      ],
      "name": "buyTicket",
      "outputs": [],
      "stateMutability": "payable",
      "type": "function",
      "payable": true
    },
    {
      "inputs": [
        {
          "internalType": "address",
          "name": "to",
          "type": "address"
        },
        {
          "internalType": "uint256",
          "name": "tokenId",
          "type": "uint256"
        }
      ],
      "name": "resellTicket",
      "outputs": [],
      "stateMutability": "payable",
      "type": "function",
      "payable": true
    },
    {
      "inputs": [
        {
          "internalType": "uint256",
          "name": "tokenId",
          "type": "uint256"
        }
      ],
      "name": "invalidateTicket",
      "outputs": [],
      "stateMutability": "nonpayable",
      "type": "function"
    },
    {
      "inputs": [
        {
          "internalType": "uint256",
          "name": "tokenId",
          "type": "uint256"
        }
      ],
      "name": "isTicketValid",
      "outputs": [
        {
          "internalType": "bool",
          "name": "",
          "type": "bool"
        }
      ],
      "stateMutability": "view",
      "type": "function",
      "constant": true
    }
  ],
  "bytecode": "0x60806040523480156200001157600080fd5b506040518060400160405280600b81526020017f4576656e745469636b65740000000000000000000000000000000000000000008152506040518060400160405280600481526020017f455449580000000000000000000000000000000000000000000000000000000081525081600090816200008f919062000412565b508060019081620000a1919062000412565b505050620000c4620000b8620000ca60201b60201c565b620000d260201b60201c565b620004f9565b600033905090565b6000600760009054906101000a900473ffffffffffffffffffffffffffffffffffffffff16905081600760006101000a81548173ffffffffffffffffffffffffffffffffffffffff021916908373ffffffffffffffffffffffffffffffffffffffff1602179055508173ffffffffffffffffffffffffffffffffffffffff168173ffffffffffffffffffffffffffffffffffffffff167f8be0079c531659141344cd1fd0a4f28419497f9722a3daafe3b4186f6b6457e060405160405180910390a35050565b600081519050919050565b7f4e487b7100000000000000000000000000000000000000000000000000000000600052604160045260246000fd5b7f4e487b7100000000000000000000000000000000000000000000000000000000600052602260045260246000fd5b600060028204905060018216806200021a57607f821691505b60208210810362000230576200022f620001d2565b5b50919050565b60008190508160005260206000209050919050565b60006020601f8301049050919050565b600082821b905092915050565b6000600883026200029a7fffffffffffffffffffffffffffffffffffffffffffffffffffffffffffffffff826200025b565b620002a686836200025b565b95508019841693508086168417925050509392505050565b6000819050919050565b6000819050919050565b6000620002f3620002ed620002e784620002be565b620002c8565b620002be565b9050919050565b6000819050919050565b6200030f83620002d2565b620003276200031e82620002fa565b84845462000268565b825550505050565b600090565b6200033e6200032f565b6200034b81848462000304565b505050565b5b8181101562000373576200036760008262000334565b60018101905062000351565b5050565b601f821115620003c2576200038c8162000236565b62000397846200024b565b81016020851015620003a7578190505b620003bf620003b6856200024b565b83018262000350565b50505b505050565b600082821c905092915050565b6000620003e760001984600802620003c7565b1980831691505092915050565b6000620004028383620003d4565b9150826002028217905092915050565b6200041d8262000198565b67ffffffffffffffff811115620004395762000438620001a3565b5b62000445825462000201565b6200045282828562000377565b600060209050601f8311600181146200048a576000841562000475578287015190505b620004818582620003f4565b865550620004f1565b601f1984166200049a8662000236565b60005b82811015620004c4578489015182556001820191506020850194506020810190506200049d565b86831015620004e45784890151620004e0601f891682620003d4565b8355505b6001600288020188555050505b505050505050565b613ccc80620005096000396000f3fe6080604052600436106101815760003560e01c806375794a3c116100d1578063c7ddab361161008a578063e985e9c511610064578063e985e9c51461057b578063f2fde38b146105b8578063f6ac04da146105e1578063fb3ae56f1461061e57610181565b8063c7ddab36146104ea578063c87b56dd14610513578063e01a0ebe1461055057610181565b806375794a3c146103fb5780638da5cb5b1461042657806395d89b41146104515780639afb93cb1461047c578063a22cb46514610498578063b88d4fde146104c157610181565b806321b9656e1161013e5780634daa058e116101185780634daa058e1461032d5780636352211e1461036a57806370a08231146103a7578063715018a6146103e457610181565b806321b9656e146102bf57806323b872dd146102db57806342842e0e1461030457610181565b806301ffc9a7146101865780630374ab0b146101c357806306fdde03146101ec578063081812fc14610217578063095ea7b3146102545780630b7914301461027d575b600080fd5b34801561019257600080fd5b506101ad60048036038101906101a891906125d5565b61065b565b6040516101ba919061261d565b60405180910390f35b3480156101cf57600080fd5b506101ea60048036038101906101e591906127b4565b6106bc565b005b3480156101f857600080fd5b50610201610840565b60405161020e91906128b6565b60405180910390f35b34801561022357600080fd5b5061023e600480360381019061023991906128d8565b6108d2565b60405161024b9190612946565b60405180910390f35b34801561026057600080fd5b5061027b6004803603810190610276919061298d565b610918565b005b34801561028957600080fd5b506102a4600480360381019061029f91906128d8565b610a2f565b6040516102b6969594939291906129dc565b60405180910390f35b6102d960048036038101906102d4919061298d565b610b13565b005b3480156102e757600080fd5b5061030260048036038101906102fd9190612a44565b610c5a565b005b34801561031057600080fd5b5061032b60048036038101906103269190612a44565b610cba565b005b34801561033957600080fd5b50610354600480360381019061034f91906128d8565b610cda565b604051610361919061261d565b60405180910390f35b34801561037657600080fd5b50610391600480360381019061038c91906128d8565b610cfa565b60405161039e9190612946565b60405180910390f35b3480156103b357600080fd5b506103ce60048036038101906103c99190612a97565b610d80565b6040516103db9190612ac4565b60405180910390f35b3480156103f057600080fd5b506103f9610e37565b005b34801561040757600080fd5b50610410610e4b565b60405161041d9190612ac4565b60405180910390f35b34801561043257600080fd5b5061043b610e51565b6040516104489190612946565b60405180910390f35b34801561045d57600080fd5b50610466610e7b565b60405161047391906128b6565b60405180910390f35b61049660048036038101906104919190612adf565b610f0d565b005b3480156104a457600080fd5b506104bf60048036038101906104ba9190612b67565b611149565b005b3480156104cd57600080fd5b506104e860048036038101906104e39190612c48565b61115f565b005b3480156104f657600080fd5b50610511600480360381019061050c91906128d8565b6111c1565b005b34801561051f57600080fd5b5061053a600480360381019061053591906128d8565b6111f8565b60405161054791906128b6565b60405180910390f35b34801561055c57600080fd5b5061056561130a565b6040516105729190612ac4565b60405180910390f35b34801561058757600080fd5b506105a2600480360381019061059d9190612ccb565b611310565b6040516105af919061261d565b60405180910390f35b3480156105c457600080fd5b506105df60048036038101906105da9190612a97565b6113a4565b005b3480156105ed57600080fd5b50610608600480360381019061060391906128d8565b611427565b6040516106159190612ac4565b60405180910390f35b34801561062a57600080fd5b50610645600480360381019061064091906128d8565b61143f565b604051610652919061261d565b60405180910390f35b6000634906490660e01b7bffffffffffffffffffffffffffffffffffffffffffffffffffffffff1916827bffffffffffffffffffffffffffffffffffffffffffffffffffffffff191614806106b557506106b482611469565b5b9050919050565b4283116106fe576040517f08c379a00000000000000000000000000000000000000000000000000000000081526004016106f590612d57565b60405180910390fd5b60008111610741576040517f08c379a000000000000000000000000000000000000000000000000000000000815260040161073890612dc3565b60405180910390fd5b6040518060c00160405280858152602001848152602001838152602001828152602001600081526020013373ffffffffffffffffffffffffffffffffffffffff16815250600a6000600954815260200190815260200160002060008201518160000190816107af9190612fef565b506020820151816001015560408201518160020155606082015181600301556080820151816004015560a08201518160050160006101000a81548173ffffffffffffffffffffffffffffffffffffffff021916908373ffffffffffffffffffffffffffffffffffffffff16021790555090505060096000815480929190610835906130f0565b919050555050505050565b60606000805461084f90612e12565b80601f016020809104026020016040519081016040528092919081815260200182805461087b90612e12565b80156108c85780601f1061089d576101008083540402835291602001916108c8565b820191906000526020600020905b8154815290600101906020018083116108ab57829003601f168201915b5050505050905090565b60006108dd8261154b565b6004600083815260200190815260200160002060009054906101000a900473ffffffffffffffffffffffffffffffffffffffff169050919050565b600061092382610cfa565b90508073ffffffffffffffffffffffffffffffffffffffff168373ffffffffffffffffffffffffffffffffffffffff1603610993576040517f08c379a000000000000000000000000000000000000000000000000000000000815260040161098a906131aa565b60405180910390fd5b8073ffffffffffffffffffffffffffffffffffffffff166109b2611596565b73ffffffffffffffffffffffffffffffffffffffff1614806109e157506109e0816109db611596565b611310565b5b610a20576040517f08c379a0000000000000000000000000000000000000000000000000000000008152600401610a179061323c565b60405180910390fd5b610a2a838361159e565b505050565b600a602052806000526040600020600091509050806000018054610a5290612e12565b80601f0160208091040260200160405190810160405280929190818152602001828054610a7e90612e12565b8015610acb5780601f10610aa057610100808354040283529160200191610acb565b820191906000526020600020905b815481529060010190602001808311610aae57829003601f168201915b5050505050908060010154908060020154908060030154908060040154908060050160009054906101000a900473ffffffffffffffffffffffffffffffffffffffff16905086565b3373ffffffffffffffffffffffffffffffffffffffff16610b3382610cfa565b73ffffffffffffffffffffffffffffffffffffffff1614610b89576040517f08c379a0000000000000000000000000000000000000000000000000000000008152600401610b80906132a8565b60405180910390fd5b600034905060008111610bd1576040517f08c379a0000000000000000000000000000000000000000000000000000000008152600401610bc89061333a565b60405180910390fd5b6000600c600084815260200190815260200160002060006101000a81548160ff021916908315150217905550610c08338484611657565b60003390508073ffffffffffffffffffffffffffffffffffffffff166108fc839081150290604051600060405180830381858888f19350505050158015610c53573d6000803e3d6000fd5b5050505050565b610c6b610c65611596565b82611950565b610caa576040517f08c379a0000000000000000000000000000000000000000000000000000000008152600401610ca1906133cc565b60405180910390fd5b610cb5838383611657565b505050565b610cd58383836040518060200160405280600081525061115f565b505050565b600c6020528060005260406000206000915054906101000a900460ff1681565b600080610d06836119e5565b9050600073ffffffffffffffffffffffffffffffffffffffff168173ffffffffffffffffffffffffffffffffffffffff1603610d77576040517f08c379a0000000000000000000000000000000000000000000000000000000008152600401610d6e90613438565b60405180910390fd5b80915050919050565b60008073ffffffffffffffffffffffffffffffffffffffff168273ffffffffffffffffffffffffffffffffffffffff1603610df0576040517f08c379a0000000000000000000000000000000000000000000000000000000008152600401610de7906134ca565b60405180910390fd5b600360008373ffffffffffffffffffffffffffffffffffffffff1673ffffffffffffffffffffffffffffffffffffffff168152602001908152602001600020549050919050565b610e3f611a22565b610e496000611aa0565b565b60085481565b6000600760009054906101000a900473ffffffffffffffffffffffffffffffffffffffff16905090565b606060018054610e8a90612e12565b80601f0160208091040260200160405190810160405280929190818152602001828054610eb690612e12565b8015610f035780601f10610ed857610100808354040283529160200191610f03565b820191906000526020600020905b815481529060010190602001808311610ee657829003601f168201915b5050505050905090565b6000600a600084815260200190815260200160002090506000816001015403610f6b576040517f08c379a0000000000000000000000000000000000000000000000000000000008152600401610f6290613536565b60405180910390fd5b80600101544210610fb1576040517f08c379a0000000000000000000000000000000000000000000000000000000008152600401610fa8906135a2565b60405180910390fd5b8060030154816004015410610ffb576040517f08c379a0000000000000000000000000000000000000000000000000000000008152600401610ff29061360e565b60405180910390fd5b80600201543414611041576040517f08c379a00000000000000000000000000000000000000000000000000000000081526004016110389061367a565b60405180910390fd5b806004016000815480929190611056906130f0565b91905055506000600854905060086000815480929190611075906130f0565b91905055506110843382611b66565b61108e8184611b84565b83600b6000838152602001908152602001600020819055506001600c600083815260200190815260200160002060006101000a81548160ff02191690831515021790555060008260050160009054906101000a900473ffffffffffffffffffffffffffffffffffffffff1690508073ffffffffffffffffffffffffffffffffffffffff166108fc349081150290604051600060405180830381858888f19350505050158015611141573d6000803e3d6000fd5b505050505050565b61115b611154611596565b8383611c28565b5050565b61117061116a611596565b83611950565b6111af576040517f08c379a00000000000000000000000000000000000000000000000000000000081526004016111a6906133cc565b60405180910390fd5b6111bb84848484611d94565b50505050565b6111c9611a22565b6000600c600083815260200190815260200160002060006101000a81548160ff02191690831515021790555050565b60606112038261154b565b600060066000848152602001908152602001600020805461122390612e12565b80601f016020809104026020016040519081016040528092919081815260200182805461124f90612e12565b801561129c5780601f106112715761010080835404028352916020019161129c565b820191906000526020600020905b81548152906001019060200180831161127f57829003601f168201915b5050505050905060006112ad611df0565b905060008151036112c2578192505050611305565b6000825111156112f75780826040516020016112df9291906136d6565b60405160208183030381529060405292505050611305565b61130084611e07565b925050505b919050565b60095481565b6000600560008473ffffffffffffffffffffffffffffffffffffffff1673ffffffffffffffffffffffffffffffffffffffff16815260200190815260200160002060008373ffffffffffffffffffffffffffffffffffffffff1673ffffffffffffffffffffffffffffffffffffffff16815260200190815260200160002060009054906101000a900460ff16905092915050565b6113ac611a22565b600073ffffffffffffffffffffffffffffffffffffffff168173ffffffffffffffffffffffffffffffffffffffff160361141b576040517f08c379a00000000000000000000000000000000000000000000000000000000081526004016114129061376c565b60405180910390fd5b61142481611aa0565b50565b600b6020528060005260406000206000915090505481565b6000600c600083815260200190815260200160002060009054906101000a900460ff169050919050565b60007f80ac58cd000000000000000000000000000000000000000000000000000000007bffffffffffffffffffffffffffffffffffffffffffffffffffffffff1916827bffffffffffffffffffffffffffffffffffffffffffffffffffffffff1916148061153457507f5b5e139f000000000000000000000000000000000000000000000000000000007bffffffffffffffffffffffffffffffffffffffffffffffffffffffff1916827bffffffffffffffffffffffffffffffffffffffffffffffffffffffff1916145b80611544575061154382611e6f565b5b9050919050565b61155481611ed9565b611593576040517f08c379a000000000000000000000000000000000000000000000000000000000815260040161158a90613438565b60405180910390fd5b50565b600033905090565b816004600083815260200190815260200160002060006101000a81548173ffffffffffffffffffffffffffffffffffffffff021916908373ffffffffffffffffffffffffffffffffffffffff160217905550808273ffffffffffffffffffffffffffffffffffffffff1661161183610cfa565b73ffffffffffffffffffffffffffffffffffffffff167f8c5be1e5ebec7d5bd14f71427d1e84f3dd0314c0f7b2291e5b200ac8c7c3b92560405160405180910390a45050565b8273ffffffffffffffffffffffffffffffffffffffff1661167782610cfa565b73ffffffffffffffffffffffffffffffffffffffff16146116cd576040517f08c379a00000000000000000000000000000000000000000000000000000000081526004016116c4906137fe565b60405180910390fd5b600073ffffffffffffffffffffffffffffffffffffffff168273ffffffffffffffffffffffffffffffffffffffff160361173c576040517f08c379a000000000000000000000000000000000000000000000000000000000815260040161173390613890565b60405180910390fd5b6117498383836001611f1a565b8273ffffffffffffffffffffffffffffffffffffffff1661176982610cfa565b73ffffffffffffffffffffffffffffffffffffffff16146117bf576040517f08c379a00000000000000000000000000000000000000000000000000000000081526004016117b6906137fe565b60405180910390fd5b6004600082815260200190815260200160002060006101000a81549073ffffffffffffffffffffffffffffffffffffffff02191690556001600360008573ffffffffffffffffffffffffffffffffffffffff1673ffffffffffffffffffffffffffffffffffffffff168152602001908152602001600020600082825403925050819055506001600360008473ffffffffffffffffffffffffffffffffffffffff1673ffffffffffffffffffffffffffffffffffffffff16815260200190815260200160002060008282540192505081905550816002600083815260200190815260200160002060006101000a81548173ffffffffffffffffffffffffffffffffffffffff021916908373ffffffffffffffffffffffffffffffffffffffff160217905550808273ffffffffffffffffffffffffffffffffffffffff168473ffffffffffffffffffffffffffffffffffffffff167fddf252ad1be2c89b69c2b068fc378daa952ba7f163c4a11628f55a4df523b3ef60405160405180910390a461194b8383836001611f20565b505050565b60008061195c83610cfa565b90508073ffffffffffffffffffffffffffffffffffffffff168473ffffffffffffffffffffffffffffffffffffffff16148061199e575061199d8185611310565b5b806119dc57508373ffffffffffffffffffffffffffffffffffffffff166119c4846108d2565b73ffffffffffffffffffffffffffffffffffffffff16145b91505092915050565b60006002600083815260200190815260200160002060009054906101000a900473ffffffffffffffffffffffffffffffffffffffff169050919050565b611a2a611596565b73ffffffffffffffffffffffffffffffffffffffff16611a48610e51565b73ffffffffffffffffffffffffffffffffffffffff1614611a9e576040517f08c379a0000000000000000000000000000000000000000000000000000000008152600401611a95906138fc565b60405180910390fd5b565b6000600760009054906101000a900473ffffffffffffffffffffffffffffffffffffffff16905081600760006101000a81548173ffffffffffffffffffffffffffffffffffffffff021916908373ffffffffffffffffffffffffffffffffffffffff1602179055508173ffffffffffffffffffffffffffffffffffffffff168173ffffffffffffffffffffffffffffffffffffffff167f8be0079c531659141344cd1fd0a4f28419497f9722a3daafe3b4186f6b6457e060405160405180910390a35050565b611b80828260405180602001604052806000815250611f26565b5050565b611b8d82611ed9565b611bcc576040517f08c379a0000000000000000000000000000000000000000000000000000000008152600401611bc39061398e565b60405180910390fd5b80600660008481526020019081526020016000209081611bec9190612fef565b507ff8e1a15aba9398e019f0b49df1a4fde98ee17ae345cb5f6b5e2c27f5033e8ce782604051611c1c9190612ac4565b60405180910390a15050565b8173ffffffffffffffffffffffffffffffffffffffff168373ffffffffffffffffffffffffffffffffffffffff1603611c96576040517f08c379a0000000000000000000000000000000000000000000000000000000008152600401611c8d906139fa565b60405180910390fd5b80600560008573ffffffffffffffffffffffffffffffffffffffff1673ffffffffffffffffffffffffffffffffffffffff16815260200190815260200160002060008473ffffffffffffffffffffffffffffffffffffffff1673ffffffffffffffffffffffffffffffffffffffff16815260200190815260200160002060006101000a81548160ff0219169083151502179055508173ffffffffffffffffffffffffffffffffffffffff168373ffffffffffffffffffffffffffffffffffffffff167f17307eab39ab6107e8899845ad3d59bd9653f200f220920489ca2b5937696c3183604051611d87919061261d565b60405180910390a3505050565b611d9f848484611657565b611dab84848484611f81565b611dea576040517f08c379a0000000000000000000000000000000000000000000000000000000008152600401611de190613a8c565b60405180910390fd5b50505050565b606060405180602001604052806000815250905090565b6060611e128261154b565b6000611e1c611df0565b90506000815111611e3c5760405180602001604052806000815250611e67565b80611e4684612108565b604051602001611e579291906136d6565b6040516020818303038152906040525b915050919050565b60007f01ffc9a7000000000000000000000000000000000000000000000000000000007bffffffffffffffffffffffffffffffffffffffffffffffffffffffff1916827bffffffffffffffffffffffffffffffffffffffffffffffffffffffff1916149050919050565b60008073ffffffffffffffffffffffffffffffffffffffff16611efb836119e5565b73ffffffffffffffffffffffffffffffffffffffff1614159050919050565b50505050565b50505050565b611f3083836121d6565b611f3d6000848484611f81565b611f7c576040517f08c379a0000000000000000000000000000000000000000000000000000000008152600401611f7390613a8c565b60405180910390fd5b505050565b6000611fa28473ffffffffffffffffffffffffffffffffffffffff166123f3565b156120fb578373ffffffffffffffffffffffffffffffffffffffff1663150b7a02611fcb611596565b8786866040518563ffffffff1660e01b8152600401611fed9493929190613b01565b6020604051808303816000875af192505050801561202957506040513d601f19601f820116820180604052508101906120269190613b62565b60015b6120ab573d8060008114612059576040519150601f19603f3d011682016040523d82523d6000602084013e61205e565b606091505b5060008151036120a3576040517f08c379a000000000000000000000000000000000000000000000000000000000815260040161209a90613a8c565b60405180910390fd5b805181602001fd5b63150b7a0260e01b7bffffffffffffffffffffffffffffffffffffffffffffffffffffffff1916817bffffffffffffffffffffffffffffffffffffffffffffffffffffffff191614915050612100565b600190505b949350505050565b60606000600161211784612416565b01905060008167ffffffffffffffff81111561213657612135612653565b5b6040519080825280601f01601f1916602001820160405280156121685781602001600182028036833780820191505090505b509050600082602001820190505b6001156121cb578080600190039150507f3031323334353637383961626364656600000000000000000000000000000000600a86061a8153600a85816121bf576121be613b8f565b5b04945060008503612176575b819350505050919050565b600073ffffffffffffffffffffffffffffffffffffffff168273ffffffffffffffffffffffffffffffffffffffff1603612245576040517f08c379a000000000000000000000000000000000000000000000000000000000815260040161223c90613c0a565b60405180910390fd5b61224e81611ed9565b1561228e576040517f08c379a000000000000000000000000000000000000000000000000000000000815260040161228590613c76565b60405180910390fd5b61229c600083836001611f1a565b6122a581611ed9565b156122e5576040517f08c379a00000000000000000000000000000000000000000000000000000000081526004016122dc90613c76565b60405180910390fd5b6001600360008473ffffffffffffffffffffffffffffffffffffffff1673ffffffffffffffffffffffffffffffffffffffff16815260200190815260200160002060008282540192505081905550816002600083815260200190815260200160002060006101000a81548173ffffffffffffffffffffffffffffffffffffffff021916908373ffffffffffffffffffffffffffffffffffffffff160217905550808273ffffffffffffffffffffffffffffffffffffffff16600073ffffffffffffffffffffffffffffffffffffffff167fddf252ad1be2c89b69c2b068fc378daa952ba7f163c4a11628f55a4df523b3ef60405160405180910390a46123ef600083836001611f20565b5050565b6000808273ffffffffffffffffffffffffffffffffffffffff163b119050919050565b600080600090507a184f03e93ff9f4daa797ed6e38ed64bf6a1f0100000000000000008310612474577a184f03e93ff9f4daa797ed6e38ed64bf6a1f010000000000000000838161246a57612469613b8f565b5b0492506040810190505b6d04ee2d6d415b85acef810000000083106124b1576d04ee2d6d415b85acef810000000083816124a7576124a6613b8f565b5b0492506020810190505b662386f26fc1000083106124e057662386f26fc1000083816124d6576124d5613b8f565b5b0492506010810190505b6305f5e1008310612509576305f5e10083816124ff576124fe613b8f565b5b0492506008810190505b612710831061252e57612710838161252457612523613b8f565b5b0492506004810190505b60648310612551576064838161254757612546613b8f565b5b0492506002810190505b600a8310612560576001810190505b80915050919050565b6000604051905090565b600080fd5b600080fd5b60007fffffffff0000000000000000000000000000000000000000000000000000000082169050919050565b6125b28161257d565b81146125bd57600080fd5b50565b6000813590506125cf816125a9565b92915050565b6000602082840312156125eb576125ea612573565b5b60006125f9848285016125c0565b91505092915050565b60008115159050919050565b61261781612602565b82525050565b6000602082019050612632600083018461260e565b92915050565b600080fd5b600080fd5b6000601f19601f8301169050919050565b7f4e487b7100000000000000000000000000000000000000000000000000000000600052604160045260246000fd5b61268b82612642565b810181811067ffffffffffffffff821117156126aa576126a9612653565b5b80604052505050565b60006126bd612569565b90506126c98282612682565b919050565b600067ffffffffffffffff8211156126e9576126e8612653565b5b6126f282612642565b9050602081019050919050565b82818337600083830152505050565b600061272161271c846126ce565b6126b3565b90508281526020810184848401111561273d5761273c61263d565b5b6127488482856126ff565b509392505050565b600082601f83011261276557612764612638565b5b813561277584826020860161270e565b91505092915050565b6000819050919050565b6127918161277e565b811461279c57600080fd5b50565b6000813590506127ae81612788565b92915050565b600080600080608085870312156127ce576127cd612573565b5b600085013567ffffffffffffffff8111156127ec576127eb612578565b5b6127f887828801612750565b94505060206128098782880161279f565b935050604061281a8782880161279f565b925050606061282b8782880161279f565b91505092959194509250565b600081519050919050565b600082825260208201905092915050565b60005b83811015612871578082015181840152602081019050612856565b60008484015250505050565b600061288882612837565b6128928185612842565b93506128a2818560208601612853565b6128ab81612642565b840191505092915050565b600060208201905081810360008301526128d0818461287d565b905092915050565b6000602082840312156128ee576128ed612573565b5b60006128fc8482850161279f565b91505092915050565b600073ffffffffffffffffffffffffffffffffffffffff82169050919050565b600061293082612905565b9050919050565b61294081612925565b82525050565b600060208201905061295b6000830184612937565b92915050565b61296a81612925565b811461297557600080fd5b50565b60008135905061298781612961565b92915050565b600080604083850312156129a4576129a3612573565b5b60006129b285828601612978565b92505060206129c38582860161279f565b9150509250929050565b6129d68161277e565b82525050565b600060c08201905081810360008301526129f6818961287d565b9050612a0560208301886129cd565b612a1260408301876129cd565b612a1f60608301866129cd565b612a2c60808301856129cd565b612a3960a0830184612937565b979650505050505050565b600080600060608486031215612a5d57612a5c612573565b5b6000612a6b86828701612978565b9350506020612a7c86828701612978565b9250506040612a8d8682870161279f565b9150509250925092565b600060208284031215612aad57612aac612573565b5b6000612abb84828501612978565b91505092915050565b6000602082019050612ad960008301846129cd565b92915050565b60008060408385031215612af657612af5612573565b5b6000612b048582860161279f565b925050602083013567ffffffffffffffff811115612b2557612b24612578565b5b612b3185828601612750565b9150509250929050565b612b4481612602565b8114612b4f57600080fd5b50565b600081359050612b6181612b3b565b92915050565b60008060408385031215612b7e57612b7d612573565b5b6000612b8c85828601612978565b9250506020612b9d85828601612b52565b9150509250929050565b600067ffffffffffffffff821115612bc257612bc1612653565b5b612bcb82612642565b9050602081019050919050565b6000612beb612be684612ba7565b6126b3565b905082815260208101848484011115612c0757612c0661263d565b5b612c128482856126ff565b509392505050565b600082601f830112612c2f57612c2e612638565b5b8135612c3f848260208601612bd8565b91505092915050565b60008060008060808587031215612c6257612c61612573565b5b6000612c7087828801612978565b9450506020612c8187828801612978565b9350506040612c928782880161279f565b925050606085013567ffffffffffffffff811115612cb357612cb2612578565b5b612cbf87828801612c1a565b91505092959194509250565b60008060408385031215612ce257612ce1612573565b5b6000612cf085828601612978565b9250506020612d0185828601612978565b9150509250929050565b7f4576656e74206d75737420626520696e20746865206675747572650000000000600082015250565b6000612d41601b83612842565b9150612d4c82612d0b565b602082019050919050565b60006020820190508181036000830152612d7081612d34565b9050919050565b7f5469636b657473206d757374206265206d6f7265207468616e20300000000000600082015250565b6000612dad601b83612842565b9150612db882612d77565b602082019050919050565b60006020820190508181036000830152612ddc81612da0565b9050919050565b7f4e487b7100000000000000000000000000000000000000000000000000000000600052602260045260246000fd5b60006002820490506001821680612e2a57607f821691505b602082108103612e3d57612e3c612de3565b5b50919050565b60008190508160005260206000209050919050565b60006020601f8301049050919050565b600082821b905092915050565b600060088302612ea57fffffffffffffffffffffffffffffffffffffffffffffffffffffffffffffffff82612e68565b612eaf8683612e68565b95508019841693508086168417925050509392505050565b6000819050919050565b6000612eec612ee7612ee28461277e565b612ec7565b61277e565b9050919050565b6000819050919050565b612f0683612ed1565b612f1a612f1282612ef3565b848454612e75565b825550505050565b600090565b612f2f612f22565b612f3a818484612efd565b505050565b5b81811015612f5e57612f53600082612f27565b600181019050612f40565b5050565b601f821115612fa357612f7481612e43565b612f7d84612e58565b81016020851015612f8c578190505b612fa0612f9885612e58565b830182612f3f565b50505b505050565b600082821c905092915050565b6000612fc660001984600802612fa8565b1980831691505092915050565b6000612fdf8383612fb5565b9150826002028217905092915050565b612ff882612837565b67ffffffffffffffff81111561301157613010612653565b5b61301b8254612e12565b613026828285612f62565b600060209050601f8311600181146130595760008415613047578287015190505b6130518582612fd3565b8655506130b9565b601f19841661306786612e43565b60005b8281101561308f5784890151825560018201915060208501945060208101905061306a565b868310156130ac57848901516130a8601f891682612fb5565b8355505b6001600288020188555050505b505050505050565b7f4e487b7100000000000000000000000000000000000000000000000000000000600052601160045260246000fd5b60006130fb8261277e565b91507fffffffffffffffffffffffffffffffffffffffffffffffffffffffffffffffff820361312d5761312c6130c1565b5b600182019050919050565b7f4552433732313a20617070726f76616c20746f2063757272656e74206f776e6560008201527f7200000000000000000000000000000000000000000000000000000000000000602082015250565b6000613194602183612842565b915061319f82613138565b604082019050919050565b600060208201905081810360008301526131c381613187565b9050919050565b7f4552433732313a20617070726f76652063616c6c6572206973206e6f7420746f60008201527f6b656e206f776e6572206f7220617070726f76656420666f7220616c6c000000602082015250565b6000613226603d83612842565b9150613231826131ca565b604082019050919050565b6000602082019050818103600083015261325581613219565b9050919050565b7f4e6f7420746865207469636b6574206f776e6572000000000000000000000000600082015250565b6000613292601483612842565b915061329d8261325c565b602082019050919050565b600060208201905081810360008301526132c181613285565b9050919050565b7f526573616c65207072696365206d75737420626520677265617465722074686160008201527f6e20300000000000000000000000000000000000000000000000000000000000602082015250565b6000613324602383612842565b915061332f826132c8565b604082019050919050565b6000602082019050818103600083015261335381613317565b9050919050565b7f4552433732313a2063616c6c6572206973206e6f7420746f6b656e206f776e6560008201527f72206f7220617070726f76656400000000000000000000000000000000000000602082015250565b60006133b6602d83612842565b91506133c18261335a565b604082019050919050565b600060208201905081810360008301526133e5816133a9565b9050919050565b7f4552433732313a20696e76616c696420746f6b656e2049440000000000000000600082015250565b6000613422601883612842565b915061342d826133ec565b602082019050919050565b6000602082019050818103600083015261345181613415565b9050919050565b7f4552433732313a2061646472657373207a65726f206973206e6f74206120766160008201527f6c6964206f776e65720000000000000000000000000000000000000000000000602082015250565b60006134b4602983612842565b91506134bf82613458565b604082019050919050565b600060208201905081810360008301526134e3816134a7565b9050919050565b7f4576656e7420646f6573206e6f74206578697374000000000000000000000000600082015250565b6000613520601483612842565b915061352b826134ea565b602082019050919050565b6000602082019050818103600083015261354f81613513565b9050919050565b7f4576656e7420616c7265616479206f6363757272656400000000000000000000600082015250565b600061358c601683612842565b915061359782613556565b602082019050919050565b600060208201905081810360008301526135bb8161357f565b9050919050565b7f536f6c64206f7574000000000000000000000000000000000000000000000000600082015250565b60006135f8600883612842565b9150613603826135c2565b602082019050919050565b60006020820190508181036000830152613627816135eb565b9050919050565b7f496e636f727265637420616d6f756e7400000000000000000000000000000000600082015250565b6000613664601083612842565b915061366f8261362e565b602082019050919050565b6000602082019050818103600083015261369381613657565b9050919050565b600081905092915050565b60006136b082612837565b6136ba818561369a565b93506136ca818560208601612853565b80840191505092915050565b60006136e282856136a5565b91506136ee82846136a5565b91508190509392505050565b7f4f776e61626c653a206e6577206f776e657220697320746865207a65726f206160008201527f6464726573730000000000000000000000000000000000000000000000000000602082015250565b6000613756602683612842565b9150613761826136fa565b604082019050919050565b6000602082019050818103600083015261378581613749565b9050919050565b7f4552433732313a207472616e736665722066726f6d20696e636f72726563742060008201527f6f776e6572000000000000000000000000000000000000000000000000000000602082015250565b60006137e8602583612842565b91506137f38261378c565b604082019050919050565b60006020820190508181036000830152613817816137db565b9050919050565b7f4552433732313a207472616e7366657220746f20746865207a65726f2061646460008201527f7265737300000000000000000000000000000000000000000000000000000000602082015250565b600061387a602483612842565b91506138858261381e565b604082019050919050565b600060208201905081810360008301526138a98161386d565b9050919050565b7f4f776e61626c653a2063616c6c6572206973206e6f7420746865206f776e6572600082015250565b60006138e6602083612842565b91506138f1826138b0565b602082019050919050565b60006020820190508181036000830152613915816138d9565b9050919050565b7f45524337323155524953746f726167653a2055524920736574206f66206e6f6e60008201527f6578697374656e7420746f6b656e000000000000000000000000000000000000602082015250565b6000613978602e83612842565b91506139838261391c565b604082019050919050565b600060208201905081810360008301526139a78161396b565b9050919050565b7f4552433732313a20617070726f766520746f2063616c6c657200000000000000600082015250565b60006139e4601983612842565b91506139ef826139ae565b602082019050919050565b60006020820190508181036000830152613a13816139d7565b9050919050565b7f4552433732313a207472616e7366657220746f206e6f6e20455243373231526560008201527f63656976657220696d706c656d656e7465720000000000000000000000000000602082015250565b6000613a76603283612842565b9150613a8182613a1a565b604082019050919050565b60006020820190508181036000830152613aa581613a69565b9050919050565b600081519050919050565b600082825260208201905092915050565b6000613ad382613aac565b613add8185613ab7565b9350613aed818560208601612853565b613af681612642565b840191505092915050565b6000608082019050613b166000830187612937565b613b236020830186612937565b613b3060408301856129cd565b8181036060830152613b428184613ac8565b905095945050505050565b600081519050613b5c816125a9565b92915050565b600060208284031215613b7857613b77612573565b5b6000613b8684828501613b4d565b91505092915050565b7f4e487b7100000000000000000000000000000000000000000000000000000000600052601260045260246000fd5b7f4552433732313a206d696e7420746f20746865207a65726f2061646472657373600082015250565b6000613bf4602083612842565b9150613bff82613bbe565b602082019050919050565b60006020820190508181036000830152613c2381613be7565b9050919050565b7f4552433732313a20746f6b656e20616c7265616479206d696e74656400000000600082015250565b6000613c60601c83612842565b9150613c6b82613c2a565b602082019050919050565b60006020820190508181036000830152613c8f81613c53565b905091905056fea26469706673582212206694bbf37e1e1754a4b15dfc84380278c38db7de0d7b1c8f4c9f8bafaeea9be164736f6c63430008110033",
  "immutableReferences": {},
  "source": "// SPDX-License-Identifier: MIT\r\npragma solidity 0.8.17;\r\n\r\nimport \"@openzeppelin/contracts/token/ERC721/extensions/ERC721URIStorage.sol\";\r\nimport \"@openzeppelin/contracts/access/Ownable.sol\";\r\n\r\ncontract EventTicket is ERC721URIStorage, Ownable {\r\n    uint public nextTokenId;\r\n    uint public eventIdCounter;\r\n\r\n    struct Event {\r\n        string name;\r\n        uint256 date;\r\n        // string location;\r\n        // string description;\r\n        // string imageUrl;\r\n        uint price;\r\n        uint totalTickets;\r\n        uint ticketsSold;\r\n        address organizer;\r\n    }\r\n\r\n    mapping(uint => Event) public events;\r\n    mapping(uint => uint) public ticketToEvent;\r\n    mapping(uint => bool) public ticketValidity;\r\n\r\n    constructor() ERC721(\"EventTicket\", \"ETIX\") {}\r\n\r\n    function createEvent(\r\n        string memory name,\r\n        uint date,\r\n        uint price,\r\n        uint totalTickets\r\n    ) external {\r\n        require(date > block.timestamp, \"Event must be in the future\");\r\n        require(totalTickets > 0, \"Tickets must be more than 0\");\r\n\r\n        events[eventIdCounter] = Event(\r\n            name,\r\n            date,\r\n            price,\r\n            totalTickets,\r\n            0,\r\n            msg.sender\r\n        );\r\n\r\n        eventIdCounter++;\r\n    }\r\n\r\n    function buyTicket(uint eventId, string memory tokenURI) external payable {\r\n        Event storage _event = events[eventId];\r\n        require(_event.date != 0, \"Event does not exist\");\r\n        require(block.timestamp < _event.date, \"Event already occurred\");\r\n        require(_event.ticketsSold < _event.totalTickets, \"Sold out\");\r\n        require(msg.value == _event.price, \"Incorrect amount\");\r\n\r\n        _event.ticketsSold++;\r\n        uint tokenId = nextTokenId;\r\n        nextTokenId++;\r\n\r\n        _safeMint(msg.sender, tokenId);\r\n        _setTokenURI(tokenId, tokenURI);\r\n\r\n        ticketToEvent[tokenId] = eventId;\r\n        ticketValidity[tokenId] = true;\r\n\r\n        address payable organizer = payable(_event.organizer);\r\n        organizer.transfer(msg.value);\r\n    }\r\n\r\n    function resellTicket(address to, uint tokenId) external payable {\r\n        require(ownerOf(tokenId) == msg.sender, \"Not the ticket owner\");\r\n\r\n        uint resalePrice = msg.value;\r\n\r\n        require(resalePrice > 0, \"Resale price must be greater than 0\");\r\n\r\n        ticketValidity[tokenId] = false;\r\n        _transfer(msg.sender, to, tokenId);\r\n\r\n        address payable seller = payable(msg.sender);\r\n        seller.transfer(resalePrice);\r\n    }\r\n\r\n    function invalidateTicket(uint tokenId) external onlyOwner {\r\n        ticketValidity[tokenId] = false;\r\n    }\r\n\r\n    function isTicketValid(uint tokenId) external view returns (bool) {\r\n        return ticketValidity[tokenId];\r\n    }\r\n}\r\n",
  "sourcePath": "C:\\Users\\asus\\Event-Ticketing-System\\contracts\\EventTicket.sol",
  "compiler": {
    "name": "solc",
    "version": "0.8.17+commit.8df45f5f.Emscripten.clang"
  },
  "schemaVersion": "3.4.16",
  "updatedAt": "2025-04-25T20:36:36.828Z",
  "networkType": "ethereum",
  "devdoc": {
    "kind": "dev",
    "methods": {
      "approve(address,uint256)": {
        "details": "See {IERC721-approve}."
      },
      "balanceOf(address)": {
        "details": "See {IERC721-balanceOf}."
      },
      "getApproved(uint256)": {
        "details": "See {IERC721-getApproved}."
      },
      "isApprovedForAll(address,address)": {
        "details": "See {IERC721-isApprovedForAll}."
      },
      "name()": {
        "details": "See {IERC721Metadata-name}."
      },
      "owner()": {
        "details": "Returns the address of the current owner."
      },
      "ownerOf(uint256)": {
        "details": "See {IERC721-ownerOf}."
      },
      "renounceOwnership()": {
        "details": "Leaves the contract without owner. It will not be possible to call `onlyOwner` functions. Can only be called by the current owner. NOTE: Renouncing ownership will leave the contract without an owner, thereby disabling any functionality that is only available to the owner."
      },
      "safeTransferFrom(address,address,uint256)": {
        "details": "See {IERC721-safeTransferFrom}."
      },
      "safeTransferFrom(address,address,uint256,bytes)": {
        "details": "See {IERC721-safeTransferFrom}."
      },
      "setApprovalForAll(address,bool)": {
        "details": "See {IERC721-setApprovalForAll}."
      },
      "supportsInterface(bytes4)": {
        "details": "See {IERC165-supportsInterface}"
      },
      "symbol()": {
        "details": "See {IERC721Metadata-symbol}."
      },
      "tokenURI(uint256)": {
        "details": "See {IERC721Metadata-tokenURI}."
      },
      "transferFrom(address,address,uint256)": {
        "details": "See {IERC721-transferFrom}."
      },
      "transferOwnership(address)": {
        "details": "Transfers ownership of the contract to a new account (`newOwner`). Can only be called by the current owner."
      }
    },
    "version": 1
  },
  "userdoc": {
    "kind": "user",
    "methods": {},
    "version": 1
  }
}