{
  "contractName": "EventTicket",
  "abi": [
    {
      "inputs": [],
      "stateMutability": "nonpayable",
      "type": "constructor"
    },
    {
      "anonymous": false,
      "inputs": [
        {
          "indexed": true,
          "internalType": "address",
          "name": "owner",
          "type": "address"
        },
        {
          "indexed": true,
          "internalType": "address",
          "name": "approved",
          "type": "address"
        },
        {
          "indexed": true,
          "internalType": "uint256",
          "name": "tokenId",
          "type": "uint256"
        }
      ],
      "name": "Approval",
      "type": "event"
    },
    {
      "anonymous": false,
      "inputs": [
        {
          "indexed": true,
          "internalType": "address",
          "name": "owner",
          "type": "address"
        },
        {
          "indexed": true,
          "internalType": "address",
          "name": "operator",
          "type": "address"
        },
        {
          "indexed": false,
          "internalType": "bool",
          "name": "approved",
          "type": "bool"
        }
      ],
      "name": "ApprovalForAll",
      "type": "event"
    },
    {
      "anonymous": false,
      "inputs": [
        {
          "indexed": false,
          "internalType": "uint256",
          "name": "_fromTokenId",
          "type": "uint256"
        },
        {
          "indexed": false,
          "internalType": "uint256",
          "name": "_toTokenId",
          "type": "uint256"
        }
      ],
      "name": "BatchMetadataUpdate",
      "type": "event"
    },
    {
      "anonymous": false,
      "inputs": [
        {
          "indexed": false,
          "internalType": "string",
          "name": "eventName",
          "type": "string"
        },
        {
          "indexed": false,
          "internalType": "uint256",
          "name": "eventDate",
          "type": "uint256"
        },
        {
          "indexed": false,
          "internalType": "uint256",
          "name": "eventPrice",
          "type": "uint256"
        },
        {
          "indexed": false,
          "internalType": "uint256",
          "name": "totalTickets",
          "type": "uint256"
        },
        {
          "indexed": false,
          "internalType": "string",
          "name": "location",
          "type": "string"
        },
        {
          "indexed": false,
          "internalType": "string",
          "name": "description",
          "type": "string"
        },
        {
          "indexed": false,
          "internalType": "string",
          "name": "imageUrl",
          "type": "string"
        }
      ],
      "name": "EventCreated",
      "type": "event"
    },
    {
      "anonymous": false,
      "inputs": [
        {
          "indexed": false,
          "internalType": "uint256",
          "name": "_tokenId",
          "type": "uint256"
        }
      ],
      "name": "MetadataUpdate",
      "type": "event"
    },
    {
      "anonymous": false,
      "inputs": [
        {
          "indexed": true,
          "internalType": "address",
          "name": "previousOwner",
          "type": "address"
        },
        {
          "indexed": true,
          "internalType": "address",
          "name": "newOwner",
          "type": "address"
        }
      ],
      "name": "OwnershipTransferred",
      "type": "event"
    },
    {
      "anonymous": false,
      "inputs": [
        {
          "indexed": true,
          "internalType": "address",
          "name": "from",
          "type": "address"
        },
        {
          "indexed": true,
          "internalType": "address",
          "name": "to",
          "type": "address"
        },
        {
          "indexed": true,
          "internalType": "uint256",
          "name": "tokenId",
          "type": "uint256"
        }
      ],
      "name": "Transfer",
      "type": "event"
    },
    {
      "inputs": [
        {
          "internalType": "address",
          "name": "to",
          "type": "address"
        },
        {
          "internalType": "uint256",
          "name": "tokenId",
          "type": "uint256"
        }
      ],
      "name": "approve",
      "outputs": [],
      "stateMutability": "nonpayable",
      "type": "function"
    },
    {
      "inputs": [
        {
          "internalType": "address",
          "name": "owner",
          "type": "address"
        }
      ],
      "name": "balanceOf",
      "outputs": [
        {
          "internalType": "uint256",
          "name": "",
          "type": "uint256"
        }
      ],
      "stateMutability": "view",
      "type": "function",
      "constant": true
    },
    {
      "inputs": [],
      "name": "eventIdCounter",
      "outputs": [
        {
          "internalType": "uint256",
          "name": "",
          "type": "uint256"
        }
      ],
      "stateMutability": "view",
      "type": "function",
      "constant": true
    },
    {
      "inputs": [
        {
          "internalType": "uint256",
          "name": "",
          "type": "uint256"
        }
      ],
      "name": "events",
      "outputs": [
        {
          "internalType": "string",
          "name": "name",
          "type": "string"
        },
        {
          "internalType": "uint256",
          "name": "date",
          "type": "uint256"
        },
        {
          "internalType": "string",
          "name": "location",
          "type": "string"
        },
        {
          "internalType": "string",
          "name": "description",
          "type": "string"
        },
        {
          "internalType": "string",
          "name": "imageUrl",
          "type": "string"
        },
        {
          "internalType": "uint256",
          "name": "price",
          "type": "uint256"
        },
        {
          "internalType": "uint256",
          "name": "totalTickets",
          "type": "uint256"
        },
        {
          "internalType": "uint256",
          "name": "ticketsSold",
          "type": "uint256"
        },
        {
          "internalType": "address",
          "name": "organizer",
          "type": "address"
        }
      ],
      "stateMutability": "view",
      "type": "function",
      "constant": true
    },
    {
      "inputs": [
        {
          "internalType": "uint256",
          "name": "tokenId",
          "type": "uint256"
        }
      ],
      "name": "getApproved",
      "outputs": [
        {
          "internalType": "address",
          "name": "",
          "type": "address"
        }
      ],
      "stateMutability": "view",
      "type": "function",
      "constant": true
    },
    {
      "inputs": [
        {
          "internalType": "address",
          "name": "owner",
          "type": "address"
        },
        {
          "internalType": "address",
          "name": "operator",
          "type": "address"
        }
      ],
      "name": "isApprovedForAll",
      "outputs": [
        {
          "internalType": "bool",
          "name": "",
          "type": "bool"
        }
      ],
      "stateMutability": "view",
      "type": "function",
      "constant": true
    },
    {
      "inputs": [],
      "name": "name",
      "outputs": [
        {
          "internalType": "string",
          "name": "",
          "type": "string"
        }
      ],
      "stateMutability": "view",
      "type": "function",
      "constant": true
    },
    {
      "inputs": [],
      "name": "nextTokenId",
      "outputs": [
        {
          "internalType": "uint256",
          "name": "",
          "type": "uint256"
        }
      ],
      "stateMutability": "view",
      "type": "function",
      "constant": true
    },
    {
      "inputs": [],
      "name": "owner",
      "outputs": [
        {
          "internalType": "address",
          "name": "",
          "type": "address"
        }
      ],
      "stateMutability": "view",
      "type": "function",
      "constant": true
    },
    {
      "inputs": [
        {
          "internalType": "uint256",
          "name": "tokenId",
          "type": "uint256"
        }
      ],
      "name": "ownerOf",
      "outputs": [
        {
          "internalType": "address",
          "name": "",
          "type": "address"
        }
      ],
      "stateMutability": "view",
      "type": "function",
      "constant": true
    },
    {
      "inputs": [],
      "name": "renounceOwnership",
      "outputs": [],
      "stateMutability": "nonpayable",
      "type": "function"
    },
    {
      "inputs": [
        {
          "internalType": "address",
          "name": "from",
          "type": "address"
        },
        {
          "internalType": "address",
          "name": "to",
          "type": "address"
        },
        {
          "internalType": "uint256",
          "name": "tokenId",
          "type": "uint256"
        }
      ],
      "name": "safeTransferFrom",
      "outputs": [],
      "stateMutability": "nonpayable",
      "type": "function"
    },
    {
      "inputs": [
        {
          "internalType": "address",
          "name": "from",
          "type": "address"
        },
        {
          "internalType": "address",
          "name": "to",
          "type": "address"
        },
        {
          "internalType": "uint256",
          "name": "tokenId",
          "type": "uint256"
        },
        {
          "internalType": "bytes",
          "name": "data",
          "type": "bytes"
        }
      ],
      "name": "safeTransferFrom",
      "outputs": [],
      "stateMutability": "nonpayable",
      "type": "function"
    },
    {
      "inputs": [
        {
          "internalType": "address",
          "name": "operator",
          "type": "address"
        },
        {
          "internalType": "bool",
          "name": "approved",
          "type": "bool"
        }
      ],
      "name": "setApprovalForAll",
      "outputs": [],
      "stateMutability": "nonpayable",
      "type": "function"
    },
    {
      "inputs": [
        {
          "internalType": "bytes4",
          "name": "interfaceId",
          "type": "bytes4"
        }
      ],
      "name": "supportsInterface",
      "outputs": [
        {
          "internalType": "bool",
          "name": "",
          "type": "bool"
        }
      ],
      "stateMutability": "view",
      "type": "function",
      "constant": true
    },
    {
      "inputs": [],
      "name": "symbol",
      "outputs": [
        {
          "internalType": "string",
          "name": "",
          "type": "string"
        }
      ],
      "stateMutability": "view",
      "type": "function",
      "constant": true
    },
    {
      "inputs": [
        {
          "internalType": "uint256",
          "name": "",
          "type": "uint256"
        }
      ],
      "name": "ticketToEvent",
      "outputs": [
        {
          "internalType": "uint256",
          "name": "",
          "type": "uint256"
        }
      ],
      "stateMutability": "view",
      "type": "function",
      "constant": true
    },
    {
      "inputs": [
        {
          "internalType": "uint256",
          "name": "",
          "type": "uint256"
        }
      ],
      "name": "ticketValidity",
      "outputs": [
        {
          "internalType": "bool",
          "name": "",
          "type": "bool"
        }
      ],
      "stateMutability": "view",
      "type": "function",
      "constant": true
    },
    {
      "inputs": [
        {
          "internalType": "uint256",
          "name": "tokenId",
          "type": "uint256"
        }
      ],
      "name": "tokenURI",
      "outputs": [
        {
          "internalType": "string",
          "name": "",
          "type": "string"
        }
      ],
      "stateMutability": "view",
      "type": "function",
      "constant": true
    },
    {
      "inputs": [
        {
          "internalType": "address",
          "name": "from",
          "type": "address"
        },
        {
          "internalType": "address",
          "name": "to",
          "type": "address"
        },
        {
          "internalType": "uint256",
          "name": "tokenId",
          "type": "uint256"
        }
      ],
      "name": "transferFrom",
      "outputs": [],
      "stateMutability": "nonpayable",
      "type": "function"
    },
    {
      "inputs": [
        {
          "internalType": "address",
          "name": "newOwner",
          "type": "address"
        }
      ],
      "name": "transferOwnership",
      "outputs": [],
      "stateMutability": "nonpayable",
      "type": "function"
    },
    {
      "inputs": [
        {
          "internalType": "string",
          "name": "name",
          "type": "string"
        },
        {
          "internalType": "uint256",
          "name": "date",
          "type": "uint256"
        },
        {
          "internalType": "uint256",
          "name": "price",
          "type": "uint256"
        },
        {
          "internalType": "uint256",
          "name": "totalTickets",
          "type": "uint256"
        },
        {
          "internalType": "string",
          "name": "location",
          "type": "string"
        },
        {
          "internalType": "string",
          "name": "description",
          "type": "string"
        },
        {
          "internalType": "string",
          "name": "imageUrl",
          "type": "string"
        }
      ],
      "name": "createEvent",
      "outputs": [],
      "stateMutability": "nonpayable",
      "type": "function"
    },
    {
      "inputs": [
        {
          "internalType": "uint256",
          "name": "eventId",
          "type": "uint256"
        },
        {
          "internalType": "string",
          "name": "tokenURI",
          "type": "string"
        }
      ],
      "name": "buyTicket",
      "outputs": [],
      "stateMutability": "payable",
      "type": "function",
      "payable": true
    },
    {
      "inputs": [
        {
          "internalType": "address",
          "name": "to",
          "type": "address"
        },
        {
          "internalType": "uint256",
          "name": "tokenId",
          "type": "uint256"
        }
      ],
      "name": "resellTicket",
      "outputs": [],
      "stateMutability": "payable",
      "type": "function",
      "payable": true
    },
    {
      "inputs": [
        {
          "internalType": "uint256",
          "name": "tokenId",
          "type": "uint256"
        }
      ],
      "name": "invalidateTicket",
      "outputs": [],
      "stateMutability": "nonpayable",
      "type": "function"
    },
    {
      "inputs": [
        {
          "internalType": "uint256",
          "name": "tokenId",
          "type": "uint256"
        }
      ],
      "name": "isTicketValid",
      "outputs": [
        {
          "internalType": "bool",
          "name": "",
          "type": "bool"
        }
      ],
      "stateMutability": "view",
      "type": "function",
      "constant": true
    }
  ],
  "bytecode": "0x60806040523480156200001157600080fd5b506040518060400160405280600b81526020017f4576656e745469636b65740000000000000000000000000000000000000000008152506040518060400160405280600481526020017f455449580000000000000000000000000000000000000000000000000000000081525081600090816200008f919062000412565b508060019081620000a1919062000412565b505050620000c4620000b8620000ca60201b60201c565b620000d260201b60201c565b620004f9565b600033905090565b6000600760009054906101000a900473ffffffffffffffffffffffffffffffffffffffff16905081600760006101000a81548173ffffffffffffffffffffffffffffffffffffffff021916908373ffffffffffffffffffffffffffffffffffffffff1602179055508173ffffffffffffffffffffffffffffffffffffffff168173ffffffffffffffffffffffffffffffffffffffff167f8be0079c531659141344cd1fd0a4f28419497f9722a3daafe3b4186f6b6457e060405160405180910390a35050565b600081519050919050565b7f4e487b7100000000000000000000000000000000000000000000000000000000600052604160045260246000fd5b7f4e487b7100000000000000000000000000000000000000000000000000000000600052602260045260246000fd5b600060028204905060018216806200021a57607f821691505b60208210810362000230576200022f620001d2565b5b50919050565b60008190508160005260206000209050919050565b60006020601f8301049050919050565b600082821b905092915050565b6000600883026200029a7fffffffffffffffffffffffffffffffffffffffffffffffffffffffffffffffff826200025b565b620002a686836200025b565b95508019841693508086168417925050509392505050565b6000819050919050565b6000819050919050565b6000620002f3620002ed620002e784620002be565b620002c8565b620002be565b9050919050565b6000819050919050565b6200030f83620002d2565b620003276200031e82620002fa565b84845462000268565b825550505050565b600090565b6200033e6200032f565b6200034b81848462000304565b505050565b5b8181101562000373576200036760008262000334565b60018101905062000351565b5050565b601f821115620003c2576200038c8162000236565b62000397846200024b565b81016020851015620003a7578190505b620003bf620003b6856200024b565b83018262000350565b50505b505050565b600082821c905092915050565b6000620003e760001984600802620003c7565b1980831691505092915050565b6000620004028383620003d4565b9150826002028217905092915050565b6200041d8262000198565b67ffffffffffffffff811115620004395762000438620001a3565b5b62000445825462000201565b6200045282828562000377565b600060209050601f8311600181146200048a576000841562000475578287015190505b620004818582620003f4565b865550620004f1565b601f1984166200049a8662000236565b60005b82811015620004c4578489015182556001820191506020850194506020810190506200049d565b86831015620004e45784890151620004e0601f891682620003d4565b8355505b6001600288020188555050505b505050505050565b61407080620005096000396000f3fe6080604052600436106101815760003560e01c806375794a3c116100d1578063c7ddab361161008a578063e985e9c511610064578063e985e9c51461057e578063f2fde38b146105bb578063f6ac04da146105e4578063fb3ae56f1461062157610181565b8063c7ddab36146104ed578063c87b56dd14610516578063e01a0ebe1461055357610181565b806375794a3c146103fe5780638da5cb5b1461042957806395d89b41146104545780639afb93cb1461047f578063a22cb4651461049b578063b88d4fde146104c457610181565b806323b872dd1161013e5780636352211e116101185780636352211e1461034457806370a0823114610381578063715018a6146103be57806372adbc5f146103d557610181565b806323b872dd146102b557806342842e0e146102de5780634daa058e1461030757610181565b806301ffc9a71461018657806306fdde03146101c3578063081812fc146101ee578063095ea7b31461022b5780630b7914301461025457806321b9656e14610299575b600080fd5b34801561019257600080fd5b506101ad60048036038101906101a8919061281e565b61065e565b6040516101ba9190612866565b60405180910390f35b3480156101cf57600080fd5b506101d86106bf565b6040516101e59190612911565b60405180910390f35b3480156101fa57600080fd5b5061021560048036038101906102109190612969565b610751565b60405161022291906129d7565b60405180910390f35b34801561023757600080fd5b50610252600480360381019061024d9190612a1e565b610797565b005b34801561026057600080fd5b5061027b60048036038101906102769190612969565b6108ae565b60405161029099989796959493929190612a6d565b60405180910390f35b6102b360048036038101906102ae9190612a1e565b610b3c565b005b3480156102c157600080fd5b506102dc60048036038101906102d79190612b16565b610c83565b005b3480156102ea57600080fd5b5061030560048036038101906103009190612b16565b610ce3565b005b34801561031357600080fd5b5061032e60048036038101906103299190612969565b610d03565b60405161033b9190612866565b60405180910390f35b34801561035057600080fd5b5061036b60048036038101906103669190612969565b610d23565b60405161037891906129d7565b60405180910390f35b34801561038d57600080fd5b506103a860048036038101906103a39190612b69565b610da9565b6040516103b59190612b96565b60405180910390f35b3480156103ca57600080fd5b506103d3610e60565b005b3480156103e157600080fd5b506103fc60048036038101906103f79190612ce6565b610e74565b005b34801561040a57600080fd5b50610413611094565b6040516104209190612b96565b60405180910390f35b34801561043557600080fd5b5061043e61109a565b60405161044b91906129d7565b60405180910390f35b34801561046057600080fd5b506104696110c4565b6040516104769190612911565b60405180910390f35b61049960048036038101906104949190612df8565b611156565b005b3480156104a757600080fd5b506104c260048036038101906104bd9190612e80565b611392565b005b3480156104d057600080fd5b506104eb60048036038101906104e69190612f61565b6113a8565b005b3480156104f957600080fd5b50610514600480360381019061050f9190612969565b61140a565b005b34801561052257600080fd5b5061053d60048036038101906105389190612969565b611441565b60405161054a9190612911565b60405180910390f35b34801561055f57600080fd5b50610568611553565b6040516105759190612b96565b60405180910390f35b34801561058a57600080fd5b506105a560048036038101906105a09190612fe4565b611559565b6040516105b29190612866565b60405180910390f35b3480156105c757600080fd5b506105e260048036038101906105dd9190612b69565b6115ed565b005b3480156105f057600080fd5b5061060b60048036038101906106069190612969565b611670565b6040516106189190612b96565b60405180910390f35b34801561062d57600080fd5b5061064860048036038101906106439190612969565b611688565b6040516106559190612866565b60405180910390f35b6000634906490660e01b7bffffffffffffffffffffffffffffffffffffffffffffffffffffffff1916827bffffffffffffffffffffffffffffffffffffffffffffffffffffffff191614806106b857506106b7826116b2565b5b9050919050565b6060600080546106ce90613053565b80601f01602080910402602001604051908101604052809291908181526020018280546106fa90613053565b80156107475780601f1061071c57610100808354040283529160200191610747565b820191906000526020600020905b81548152906001019060200180831161072a57829003601f168201915b5050505050905090565b600061075c82611794565b6004600083815260200190815260200160002060009054906101000a900473ffffffffffffffffffffffffffffffffffffffff169050919050565b60006107a282610d23565b90508073ffffffffffffffffffffffffffffffffffffffff168373ffffffffffffffffffffffffffffffffffffffff1603610812576040517f08c379a0000000000000000000000000000000000000000000000000000000008152600401610809906130f6565b60405180910390fd5b8073ffffffffffffffffffffffffffffffffffffffff166108316117df565b73ffffffffffffffffffffffffffffffffffffffff161480610860575061085f8161085a6117df565b611559565b5b61089f576040517f08c379a000000000000000000000000000000000000000000000000000000000815260040161089690613188565b60405180910390fd5b6108a983836117e7565b505050565b600a6020528060005260406000206000915090508060000180546108d190613053565b80601f01602080910402602001604051908101604052809291908181526020018280546108fd90613053565b801561094a5780601f1061091f5761010080835404028352916020019161094a565b820191906000526020600020905b81548152906001019060200180831161092d57829003601f168201915b50505050509080600101549080600201805461096590613053565b80601f016020809104026020016040519081016040528092919081815260200182805461099190613053565b80156109de5780601f106109b3576101008083540402835291602001916109de565b820191906000526020600020905b8154815290600101906020018083116109c157829003601f168201915b5050505050908060030180546109f390613053565b80601f0160208091040260200160405190810160405280929190818152602001828054610a1f90613053565b8015610a6c5780601f10610a4157610100808354040283529160200191610a6c565b820191906000526020600020905b815481529060010190602001808311610a4f57829003601f168201915b505050505090806004018054610a8190613053565b80601f0160208091040260200160405190810160405280929190818152602001828054610aad90613053565b8015610afa5780601f10610acf57610100808354040283529160200191610afa565b820191906000526020600020905b815481529060010190602001808311610add57829003601f168201915b5050505050908060050154908060060154908060070154908060080160009054906101000a900473ffffffffffffffffffffffffffffffffffffffff16905089565b3373ffffffffffffffffffffffffffffffffffffffff16610b5c82610d23565b73ffffffffffffffffffffffffffffffffffffffff1614610bb2576040517f08c379a0000000000000000000000000000000000000000000000000000000008152600401610ba9906131f4565b60405180910390fd5b600034905060008111610bfa576040517f08c379a0000000000000000000000000000000000000000000000000000000008152600401610bf190613286565b60405180910390fd5b6000600c600084815260200190815260200160002060006101000a81548160ff021916908315150217905550610c313384846118a0565b60003390508073ffffffffffffffffffffffffffffffffffffffff166108fc839081150290604051600060405180830381858888f19350505050158015610c7c573d6000803e3d6000fd5b5050505050565b610c94610c8e6117df565b82611b99565b610cd3576040517f08c379a0000000000000000000000000000000000000000000000000000000008152600401610cca90613318565b60405180910390fd5b610cde8383836118a0565b505050565b610cfe838383604051806020016040528060008152506113a8565b505050565b600c6020528060005260406000206000915054906101000a900460ff1681565b600080610d2f83611c2e565b9050600073ffffffffffffffffffffffffffffffffffffffff168173ffffffffffffffffffffffffffffffffffffffff1603610da0576040517f08c379a0000000000000000000000000000000000000000000000000000000008152600401610d9790613384565b60405180910390fd5b80915050919050565b60008073ffffffffffffffffffffffffffffffffffffffff168273ffffffffffffffffffffffffffffffffffffffff1603610e19576040517f08c379a0000000000000000000000000000000000000000000000000000000008152600401610e1090613416565b60405180910390fd5b600360008373ffffffffffffffffffffffffffffffffffffffff1673ffffffffffffffffffffffffffffffffffffffff168152602001908152602001600020549050919050565b610e68611c6b565b610e726000611ce9565b565b428611610eb6576040517f08c379a0000000000000000000000000000000000000000000000000000000008152600401610ead90613482565b60405180910390fd5b60008411610ef9576040517f08c379a0000000000000000000000000000000000000000000000000000000008152600401610ef0906134ee565b60405180910390fd5b604051806101200160405280888152602001878152602001848152602001838152602001828152602001868152602001858152602001600081526020013373ffffffffffffffffffffffffffffffffffffffff16815250600a600060095481526020019081526020016000206000820151816000019081610f7a91906136ba565b50602082015181600101556040820151816002019081610f9a91906136ba565b506060820151816003019081610fb091906136ba565b506080820151816004019081610fc691906136ba565b5060a0820151816005015560c0820151816006015560e082015181600701556101008201518160080160006101000a81548173ffffffffffffffffffffffffffffffffffffffff021916908373ffffffffffffffffffffffffffffffffffffffff16021790555090505060096000815480929190611043906137bb565b91905055507ff150b168f43a8b14cd6272b0d08eabf752cac06296b3bc3c275bdc8c0a61dec3878787878787876040516110839796959493929190613803565b60405180910390a150505050505050565b60085481565b6000600760009054906101000a900473ffffffffffffffffffffffffffffffffffffffff16905090565b6060600180546110d390613053565b80601f01602080910402602001604051908101604052809291908181526020018280546110ff90613053565b801561114c5780601f106111215761010080835404028352916020019161114c565b820191906000526020600020905b81548152906001019060200180831161112f57829003601f168201915b5050505050905090565b6000600a6000848152602001908152602001600020905060008160010154036111b4576040517f08c379a00000000000000000000000000000000000000000000000000000000081526004016111ab906138da565b60405180910390fd5b806001015442106111fa576040517f08c379a00000000000000000000000000000000000000000000000000000000081526004016111f190613946565b60405180910390fd5b8060060154816007015410611244576040517f08c379a000000000000000000000000000000000000000000000000000000000815260040161123b906139b2565b60405180910390fd5b8060050154341461128a576040517f08c379a000000000000000000000000000000000000000000000000000000000815260040161128190613a1e565b60405180910390fd5b80600701600081548092919061129f906137bb565b919050555060006008549050600860008154809291906112be906137bb565b91905055506112cd3382611daf565b6112d78184611dcd565b83600b6000838152602001908152602001600020819055506001600c600083815260200190815260200160002060006101000a81548160ff02191690831515021790555060008260080160009054906101000a900473ffffffffffffffffffffffffffffffffffffffff1690508073ffffffffffffffffffffffffffffffffffffffff166108fc349081150290604051600060405180830381858888f1935050505015801561138a573d6000803e3d6000fd5b505050505050565b6113a461139d6117df565b8383611e71565b5050565b6113b96113b36117df565b83611b99565b6113f8576040517f08c379a00000000000000000000000000000000000000000000000000000000081526004016113ef90613318565b60405180910390fd5b61140484848484611fdd565b50505050565b611412611c6b565b6000600c600083815260200190815260200160002060006101000a81548160ff02191690831515021790555050565b606061144c82611794565b600060066000848152602001908152602001600020805461146c90613053565b80601f016020809104026020016040519081016040528092919081815260200182805461149890613053565b80156114e55780601f106114ba576101008083540402835291602001916114e5565b820191906000526020600020905b8154815290600101906020018083116114c857829003601f168201915b5050505050905060006114f6612039565b9050600081510361150b57819250505061154e565b600082511115611540578082604051602001611528929190613a7a565b6040516020818303038152906040529250505061154e565b61154984612050565b925050505b919050565b60095481565b6000600560008473ffffffffffffffffffffffffffffffffffffffff1673ffffffffffffffffffffffffffffffffffffffff16815260200190815260200160002060008373ffffffffffffffffffffffffffffffffffffffff1673ffffffffffffffffffffffffffffffffffffffff16815260200190815260200160002060009054906101000a900460ff16905092915050565b6115f5611c6b565b600073ffffffffffffffffffffffffffffffffffffffff168173ffffffffffffffffffffffffffffffffffffffff1603611664576040517f08c379a000000000000000000000000000000000000000000000000000000000815260040161165b90613b10565b60405180910390fd5b61166d81611ce9565b50565b600b6020528060005260406000206000915090505481565b6000600c600083815260200190815260200160002060009054906101000a900460ff169050919050565b60007f80ac58cd000000000000000000000000000000000000000000000000000000007bffffffffffffffffffffffffffffffffffffffffffffffffffffffff1916827bffffffffffffffffffffffffffffffffffffffffffffffffffffffff1916148061177d57507f5b5e139f000000000000000000000000000000000000000000000000000000007bffffffffffffffffffffffffffffffffffffffffffffffffffffffff1916827bffffffffffffffffffffffffffffffffffffffffffffffffffffffff1916145b8061178d575061178c826120b8565b5b9050919050565b61179d81612122565b6117dc576040517f08c379a00000000000000000000000000000000000000000000000000000000081526004016117d390613384565b60405180910390fd5b50565b600033905090565b816004600083815260200190815260200160002060006101000a81548173ffffffffffffffffffffffffffffffffffffffff021916908373ffffffffffffffffffffffffffffffffffffffff160217905550808273ffffffffffffffffffffffffffffffffffffffff1661185a83610d23565b73ffffffffffffffffffffffffffffffffffffffff167f8c5be1e5ebec7d5bd14f71427d1e84f3dd0314c0f7b2291e5b200ac8c7c3b92560405160405180910390a45050565b8273ffffffffffffffffffffffffffffffffffffffff166118c082610d23565b73ffffffffffffffffffffffffffffffffffffffff1614611916576040517f08c379a000000000000000000000000000000000000000000000000000000000815260040161190d90613ba2565b60405180910390fd5b600073ffffffffffffffffffffffffffffffffffffffff168273ffffffffffffffffffffffffffffffffffffffff1603611985576040517f08c379a000000000000000000000000000000000000000000000000000000000815260040161197c90613c34565b60405180910390fd5b6119928383836001612163565b8273ffffffffffffffffffffffffffffffffffffffff166119b282610d23565b73ffffffffffffffffffffffffffffffffffffffff1614611a08576040517f08c379a00000000000000000000000000000000000000000000000000000000081526004016119ff90613ba2565b60405180910390fd5b6004600082815260200190815260200160002060006101000a81549073ffffffffffffffffffffffffffffffffffffffff02191690556001600360008573ffffffffffffffffffffffffffffffffffffffff1673ffffffffffffffffffffffffffffffffffffffff168152602001908152602001600020600082825403925050819055506001600360008473ffffffffffffffffffffffffffffffffffffffff1673ffffffffffffffffffffffffffffffffffffffff16815260200190815260200160002060008282540192505081905550816002600083815260200190815260200160002060006101000a81548173ffffffffffffffffffffffffffffffffffffffff021916908373ffffffffffffffffffffffffffffffffffffffff160217905550808273ffffffffffffffffffffffffffffffffffffffff168473ffffffffffffffffffffffffffffffffffffffff167fddf252ad1be2c89b69c2b068fc378daa952ba7f163c4a11628f55a4df523b3ef60405160405180910390a4611b948383836001612169565b505050565b600080611ba583610d23565b90508073ffffffffffffffffffffffffffffffffffffffff168473ffffffffffffffffffffffffffffffffffffffff161480611be75750611be68185611559565b5b80611c2557508373ffffffffffffffffffffffffffffffffffffffff16611c0d84610751565b73ffffffffffffffffffffffffffffffffffffffff16145b91505092915050565b60006002600083815260200190815260200160002060009054906101000a900473ffffffffffffffffffffffffffffffffffffffff169050919050565b611c736117df565b73ffffffffffffffffffffffffffffffffffffffff16611c9161109a565b73ffffffffffffffffffffffffffffffffffffffff1614611ce7576040517f08c379a0000000000000000000000000000000000000000000000000000000008152600401611cde90613ca0565b60405180910390fd5b565b6000600760009054906101000a900473ffffffffffffffffffffffffffffffffffffffff16905081600760006101000a81548173ffffffffffffffffffffffffffffffffffffffff021916908373ffffffffffffffffffffffffffffffffffffffff1602179055508173ffffffffffffffffffffffffffffffffffffffff168173ffffffffffffffffffffffffffffffffffffffff167f8be0079c531659141344cd1fd0a4f28419497f9722a3daafe3b4186f6b6457e060405160405180910390a35050565b611dc982826040518060200160405280600081525061216f565b5050565b611dd682612122565b611e15576040517f08c379a0000000000000000000000000000000000000000000000000000000008152600401611e0c90613d32565b60405180910390fd5b80600660008481526020019081526020016000209081611e3591906136ba565b507ff8e1a15aba9398e019f0b49df1a4fde98ee17ae345cb5f6b5e2c27f5033e8ce782604051611e659190612b96565b60405180910390a15050565b8173ffffffffffffffffffffffffffffffffffffffff168373ffffffffffffffffffffffffffffffffffffffff1603611edf576040517f08c379a0000000000000000000000000000000000000000000000000000000008152600401611ed690613d9e565b60405180910390fd5b80600560008573ffffffffffffffffffffffffffffffffffffffff1673ffffffffffffffffffffffffffffffffffffffff16815260200190815260200160002060008473ffffffffffffffffffffffffffffffffffffffff1673ffffffffffffffffffffffffffffffffffffffff16815260200190815260200160002060006101000a81548160ff0219169083151502179055508173ffffffffffffffffffffffffffffffffffffffff168373ffffffffffffffffffffffffffffffffffffffff167f17307eab39ab6107e8899845ad3d59bd9653f200f220920489ca2b5937696c3183604051611fd09190612866565b60405180910390a3505050565b611fe88484846118a0565b611ff4848484846121ca565b612033576040517f08c379a000000000000000000000000000000000000000000000000000000000815260040161202a90613e30565b60405180910390fd5b50505050565b606060405180602001604052806000815250905090565b606061205b82611794565b6000612065612039565b9050600081511161208557604051806020016040528060008152506120b0565b8061208f84612351565b6040516020016120a0929190613a7a565b6040516020818303038152906040525b915050919050565b60007f01ffc9a7000000000000000000000000000000000000000000000000000000007bffffffffffffffffffffffffffffffffffffffffffffffffffffffff1916827bffffffffffffffffffffffffffffffffffffffffffffffffffffffff1916149050919050565b60008073ffffffffffffffffffffffffffffffffffffffff1661214483611c2e565b73ffffffffffffffffffffffffffffffffffffffff1614159050919050565b50505050565b50505050565b612179838361241f565b61218660008484846121ca565b6121c5576040517f08c379a00000000000000000000000000000000000000000000000000000000081526004016121bc90613e30565b60405180910390fd5b505050565b60006121eb8473ffffffffffffffffffffffffffffffffffffffff1661263c565b15612344578373ffffffffffffffffffffffffffffffffffffffff1663150b7a026122146117df565b8786866040518563ffffffff1660e01b81526004016122369493929190613ea5565b6020604051808303816000875af192505050801561227257506040513d601f19601f8201168201806040525081019061226f9190613f06565b60015b6122f4573d80600081146122a2576040519150601f19603f3d011682016040523d82523d6000602084013e6122a7565b606091505b5060008151036122ec576040517f08c379a00000000000000000000000000000000000000000000000000000000081526004016122e390613e30565b60405180910390fd5b805181602001fd5b63150b7a0260e01b7bffffffffffffffffffffffffffffffffffffffffffffffffffffffff1916817bffffffffffffffffffffffffffffffffffffffffffffffffffffffff191614915050612349565b600190505b949350505050565b6060600060016123608461265f565b01905060008167ffffffffffffffff81111561237f5761237e612bbb565b5b6040519080825280601f01601f1916602001820160405280156123b15781602001600182028036833780820191505090505b509050600082602001820190505b600115612414578080600190039150507f3031323334353637383961626364656600000000000000000000000000000000600a86061a8153600a858161240857612407613f33565b5b049450600085036123bf575b819350505050919050565b600073ffffffffffffffffffffffffffffffffffffffff168273ffffffffffffffffffffffffffffffffffffffff160361248e576040517f08c379a000000000000000000000000000000000000000000000000000000000815260040161248590613fae565b60405180910390fd5b61249781612122565b156124d7576040517f08c379a00000000000000000000000000000000000000000000000000000000081526004016124ce9061401a565b60405180910390fd5b6124e5600083836001612163565b6124ee81612122565b1561252e576040517f08c379a00000000000000000000000000000000000000000000000000000000081526004016125259061401a565b60405180910390fd5b6001600360008473ffffffffffffffffffffffffffffffffffffffff1673ffffffffffffffffffffffffffffffffffffffff16815260200190815260200160002060008282540192505081905550816002600083815260200190815260200160002060006101000a81548173ffffffffffffffffffffffffffffffffffffffff021916908373ffffffffffffffffffffffffffffffffffffffff160217905550808273ffffffffffffffffffffffffffffffffffffffff16600073ffffffffffffffffffffffffffffffffffffffff167fddf252ad1be2c89b69c2b068fc378daa952ba7f163c4a11628f55a4df523b3ef60405160405180910390a4612638600083836001612169565b5050565b6000808273ffffffffffffffffffffffffffffffffffffffff163b119050919050565b600080600090507a184f03e93ff9f4daa797ed6e38ed64bf6a1f01000000000000000083106126bd577a184f03e93ff9f4daa797ed6e38ed64bf6a1f01000000000000000083816126b3576126b2613f33565b5b0492506040810190505b6d04ee2d6d415b85acef810000000083106126fa576d04ee2d6d415b85acef810000000083816126f0576126ef613f33565b5b0492506020810190505b662386f26fc10000831061272957662386f26fc10000838161271f5761271e613f33565b5b0492506010810190505b6305f5e1008310612752576305f5e100838161274857612747613f33565b5b0492506008810190505b612710831061277757612710838161276d5761276c613f33565b5b0492506004810190505b6064831061279a57606483816127905761278f613f33565b5b0492506002810190505b600a83106127a9576001810190505b80915050919050565b6000604051905090565b600080fd5b600080fd5b60007fffffffff0000000000000000000000000000000000000000000000000000000082169050919050565b6127fb816127c6565b811461280657600080fd5b50565b600081359050612818816127f2565b92915050565b600060208284031215612834576128336127bc565b5b600061284284828501612809565b91505092915050565b60008115159050919050565b6128608161284b565b82525050565b600060208201905061287b6000830184612857565b92915050565b600081519050919050565b600082825260208201905092915050565b60005b838110156128bb5780820151818401526020810190506128a0565b60008484015250505050565b6000601f19601f8301169050919050565b60006128e382612881565b6128ed818561288c565b93506128fd81856020860161289d565b612906816128c7565b840191505092915050565b6000602082019050818103600083015261292b81846128d8565b905092915050565b6000819050919050565b61294681612933565b811461295157600080fd5b50565b6000813590506129638161293d565b92915050565b60006020828403121561297f5761297e6127bc565b5b600061298d84828501612954565b91505092915050565b600073ffffffffffffffffffffffffffffffffffffffff82169050919050565b60006129c182612996565b9050919050565b6129d1816129b6565b82525050565b60006020820190506129ec60008301846129c8565b92915050565b6129fb816129b6565b8114612a0657600080fd5b50565b600081359050612a18816129f2565b92915050565b60008060408385031215612a3557612a346127bc565b5b6000612a4385828601612a09565b9250506020612a5485828601612954565b9150509250929050565b612a6781612933565b82525050565b6000610120820190508181036000830152612a88818c6128d8565b9050612a97602083018b612a5e565b8181036040830152612aa9818a6128d8565b90508181036060830152612abd81896128d8565b90508181036080830152612ad181886128d8565b9050612ae060a0830187612a5e565b612aed60c0830186612a5e565b612afa60e0830185612a5e565b612b086101008301846129c8565b9a9950505050505050505050565b600080600060608486031215612b2f57612b2e6127bc565b5b6000612b3d86828701612a09565b9350506020612b4e86828701612a09565b9250506040612b5f86828701612954565b9150509250925092565b600060208284031215612b7f57612b7e6127bc565b5b6000612b8d84828501612a09565b91505092915050565b6000602082019050612bab6000830184612a5e565b92915050565b600080fd5b600080fd5b7f4e487b7100000000000000000000000000000000000000000000000000000000600052604160045260246000fd5b612bf3826128c7565b810181811067ffffffffffffffff82111715612c1257612c11612bbb565b5b80604052505050565b6000612c256127b2565b9050612c318282612bea565b919050565b600067ffffffffffffffff821115612c5157612c50612bbb565b5b612c5a826128c7565b9050602081019050919050565b82818337600083830152505050565b6000612c89612c8484612c36565b612c1b565b905082815260208101848484011115612ca557612ca4612bb6565b5b612cb0848285612c67565b509392505050565b600082601f830112612ccd57612ccc612bb1565b5b8135612cdd848260208601612c76565b91505092915050565b600080600080600080600060e0888a031215612d0557612d046127bc565b5b600088013567ffffffffffffffff811115612d2357612d226127c1565b5b612d2f8a828b01612cb8565b9750506020612d408a828b01612954565b9650506040612d518a828b01612954565b9550506060612d628a828b01612954565b945050608088013567ffffffffffffffff811115612d8357612d826127c1565b5b612d8f8a828b01612cb8565b93505060a088013567ffffffffffffffff811115612db057612daf6127c1565b5b612dbc8a828b01612cb8565b92505060c088013567ffffffffffffffff811115612ddd57612ddc6127c1565b5b612de98a828b01612cb8565b91505092959891949750929550565b60008060408385031215612e0f57612e0e6127bc565b5b6000612e1d85828601612954565b925050602083013567ffffffffffffffff811115612e3e57612e3d6127c1565b5b612e4a85828601612cb8565b9150509250929050565b612e5d8161284b565b8114612e6857600080fd5b50565b600081359050612e7a81612e54565b92915050565b60008060408385031215612e9757612e966127bc565b5b6000612ea585828601612a09565b9250506020612eb685828601612e6b565b9150509250929050565b600067ffffffffffffffff821115612edb57612eda612bbb565b5b612ee4826128c7565b9050602081019050919050565b6000612f04612eff84612ec0565b612c1b565b905082815260208101848484011115612f2057612f1f612bb6565b5b612f2b848285612c67565b509392505050565b600082601f830112612f4857612f47612bb1565b5b8135612f58848260208601612ef1565b91505092915050565b60008060008060808587031215612f7b57612f7a6127bc565b5b6000612f8987828801612a09565b9450506020612f9a87828801612a09565b9350506040612fab87828801612954565b925050606085013567ffffffffffffffff811115612fcc57612fcb6127c1565b5b612fd887828801612f33565b91505092959194509250565b60008060408385031215612ffb57612ffa6127bc565b5b600061300985828601612a09565b925050602061301a85828601612a09565b9150509250929050565b7f4e487b7100000000000000000000000000000000000000000000000000000000600052602260045260246000fd5b6000600282049050600182168061306b57607f821691505b60208210810361307e5761307d613024565b5b50919050565b7f4552433732313a20617070726f76616c20746f2063757272656e74206f776e6560008201527f7200000000000000000000000000000000000000000000000000000000000000602082015250565b60006130e060218361288c565b91506130eb82613084565b604082019050919050565b6000602082019050818103600083015261310f816130d3565b9050919050565b7f4552433732313a20617070726f76652063616c6c6572206973206e6f7420746f60008201527f6b656e206f776e6572206f7220617070726f76656420666f7220616c6c000000602082015250565b6000613172603d8361288c565b915061317d82613116565b604082019050919050565b600060208201905081810360008301526131a181613165565b9050919050565b7f4e6f7420746865207469636b6574206f776e6572000000000000000000000000600082015250565b60006131de60148361288c565b91506131e9826131a8565b602082019050919050565b6000602082019050818103600083015261320d816131d1565b9050919050565b7f526573616c65207072696365206d75737420626520677265617465722074686160008201527f6e20300000000000000000000000000000000000000000000000000000000000602082015250565b600061327060238361288c565b915061327b82613214565b604082019050919050565b6000602082019050818103600083015261329f81613263565b9050919050565b7f4552433732313a2063616c6c6572206973206e6f7420746f6b656e206f776e6560008201527f72206f7220617070726f76656400000000000000000000000000000000000000602082015250565b6000613302602d8361288c565b915061330d826132a6565b604082019050919050565b60006020820190508181036000830152613331816132f5565b9050919050565b7f4552433732313a20696e76616c696420746f6b656e2049440000000000000000600082015250565b600061336e60188361288c565b915061337982613338565b602082019050919050565b6000602082019050818103600083015261339d81613361565b9050919050565b7f4552433732313a2061646472657373207a65726f206973206e6f74206120766160008201527f6c6964206f776e65720000000000000000000000000000000000000000000000602082015250565b600061340060298361288c565b915061340b826133a4565b604082019050919050565b6000602082019050818103600083015261342f816133f3565b9050919050565b7f4576656e74206d75737420626520696e20746865206675747572650000000000600082015250565b600061346c601b8361288c565b915061347782613436565b602082019050919050565b6000602082019050818103600083015261349b8161345f565b9050919050565b7f5469636b657473206d757374206265206d6f7265207468616e20300000000000600082015250565b60006134d8601b8361288c565b91506134e3826134a2565b602082019050919050565b60006020820190508181036000830152613507816134cb565b9050919050565b60008190508160005260206000209050919050565b60006020601f8301049050919050565b600082821b905092915050565b6000600883026135707fffffffffffffffffffffffffffffffffffffffffffffffffffffffffffffffff82613533565b61357a8683613533565b95508019841693508086168417925050509392505050565b6000819050919050565b60006135b76135b26135ad84612933565b613592565b612933565b9050919050565b6000819050919050565b6135d18361359c565b6135e56135dd826135be565b848454613540565b825550505050565b600090565b6135fa6135ed565b6136058184846135c8565b505050565b5b818110156136295761361e6000826135f2565b60018101905061360b565b5050565b601f82111561366e5761363f8161350e565b61364884613523565b81016020851015613657578190505b61366b61366385613523565b83018261360a565b50505b505050565b600082821c905092915050565b600061369160001984600802613673565b1980831691505092915050565b60006136aa8383613680565b9150826002028217905092915050565b6136c382612881565b67ffffffffffffffff8111156136dc576136db612bbb565b5b6136e68254613053565b6136f182828561362d565b600060209050601f8311600181146137245760008415613712578287015190505b61371c858261369e565b865550613784565b601f1984166137328661350e565b60005b8281101561375a57848901518255600182019150602085019450602081019050613735565b868310156137775784890151613773601f891682613680565b8355505b6001600288020188555050505b505050505050565b7f4e487b7100000000000000000000000000000000000000000000000000000000600052601160045260246000fd5b60006137c682612933565b91507fffffffffffffffffffffffffffffffffffffffffffffffffffffffffffffffff82036137f8576137f761378c565b5b600182019050919050565b600060e082019050818103600083015261381d818a6128d8565b905061382c6020830189612a5e565b6138396040830188612a5e565b6138466060830187612a5e565b818103608083015261385881866128d8565b905081810360a083015261386c81856128d8565b905081810360c083015261388081846128d8565b905098975050505050505050565b7f4576656e7420646f6573206e6f74206578697374000000000000000000000000600082015250565b60006138c460148361288c565b91506138cf8261388e565b602082019050919050565b600060208201905081810360008301526138f3816138b7565b9050919050565b7f4576656e7420616c7265616479206f6363757272656400000000000000000000600082015250565b600061393060168361288c565b915061393b826138fa565b602082019050919050565b6000602082019050818103600083015261395f81613923565b9050919050565b7f536f6c64206f7574000000000000000000000000000000000000000000000000600082015250565b600061399c60088361288c565b91506139a782613966565b602082019050919050565b600060208201905081810360008301526139cb8161398f565b9050919050565b7f496e636f727265637420616d6f756e7400000000000000000000000000000000600082015250565b6000613a0860108361288c565b9150613a13826139d2565b602082019050919050565b60006020820190508181036000830152613a37816139fb565b9050919050565b600081905092915050565b6000613a5482612881565b613a5e8185613a3e565b9350613a6e81856020860161289d565b80840191505092915050565b6000613a868285613a49565b9150613a928284613a49565b91508190509392505050565b7f4f776e61626c653a206e6577206f776e657220697320746865207a65726f206160008201527f6464726573730000000000000000000000000000000000000000000000000000602082015250565b6000613afa60268361288c565b9150613b0582613a9e565b604082019050919050565b60006020820190508181036000830152613b2981613aed565b9050919050565b7f4552433732313a207472616e736665722066726f6d20696e636f72726563742060008201527f6f776e6572000000000000000000000000000000000000000000000000000000602082015250565b6000613b8c60258361288c565b9150613b9782613b30565b604082019050919050565b60006020820190508181036000830152613bbb81613b7f565b9050919050565b7f4552433732313a207472616e7366657220746f20746865207a65726f2061646460008201527f7265737300000000000000000000000000000000000000000000000000000000602082015250565b6000613c1e60248361288c565b9150613c2982613bc2565b604082019050919050565b60006020820190508181036000830152613c4d81613c11565b9050919050565b7f4f776e61626c653a2063616c6c6572206973206e6f7420746865206f776e6572600082015250565b6000613c8a60208361288c565b9150613c9582613c54565b602082019050919050565b60006020820190508181036000830152613cb981613c7d565b9050919050565b7f45524337323155524953746f726167653a2055524920736574206f66206e6f6e60008201527f6578697374656e7420746f6b656e000000000000000000000000000000000000602082015250565b6000613d1c602e8361288c565b9150613d2782613cc0565b604082019050919050565b60006020820190508181036000830152613d4b81613d0f565b9050919050565b7f4552433732313a20617070726f766520746f2063616c6c657200000000000000600082015250565b6000613d8860198361288c565b9150613d9382613d52565b602082019050919050565b60006020820190508181036000830152613db781613d7b565b9050919050565b7f4552433732313a207472616e7366657220746f206e6f6e20455243373231526560008201527f63656976657220696d706c656d656e7465720000000000000000000000000000602082015250565b6000613e1a60328361288c565b9150613e2582613dbe565b604082019050919050565b60006020820190508181036000830152613e4981613e0d565b9050919050565b600081519050919050565b600082825260208201905092915050565b6000613e7782613e50565b613e818185613e5b565b9350613e9181856020860161289d565b613e9a816128c7565b840191505092915050565b6000608082019050613eba60008301876129c8565b613ec760208301866129c8565b613ed46040830185612a5e565b8181036060830152613ee68184613e6c565b905095945050505050565b600081519050613f00816127f2565b92915050565b600060208284031215613f1c57613f1b6127bc565b5b6000613f2a84828501613ef1565b91505092915050565b7f4e487b7100000000000000000000000000000000000000000000000000000000600052601260045260246000fd5b7f4552433732313a206d696e7420746f20746865207a65726f2061646472657373600082015250565b6000613f9860208361288c565b9150613fa382613f62565b602082019050919050565b60006020820190508181036000830152613fc781613f8b565b9050919050565b7f4552433732313a20746f6b656e20616c7265616479206d696e74656400000000600082015250565b6000614004601c8361288c565b915061400f82613fce565b602082019050919050565b6000602082019050818103600083015261403381613ff7565b905091905056fea2646970667358221220bafa58a89d4b274748d3c9d55ae36542efae65e539665a1876e6167b6f05431264736f6c63430008110033",
  "immutableReferences": {},
  "source": "// SPDX-License-Identifier: MIT\r\npragma solidity 0.8.17;\r\n\r\nimport \"@openzeppelin/contracts/token/ERC721/extensions/ERC721URIStorage.sol\";\r\nimport \"@openzeppelin/contracts/access/Ownable.sol\";\r\n\r\ncontract EventTicket is ERC721URIStorage, Ownable {\r\n    uint public nextTokenId;\r\n    uint public eventIdCounter;\r\n\r\n    struct Event {\r\n        string name;\r\n        uint256 date;\r\n        string location;\r\n        string description;\r\n        string imageUrl;\r\n        uint price;\r\n        uint totalTickets;\r\n        uint ticketsSold;\r\n        address organizer;\r\n    }\r\n\r\n    mapping(uint => Event) public events;\r\n    mapping(uint => uint) public ticketToEvent;\r\n    mapping(uint => bool) public ticketValidity;\r\n\r\n    constructor() ERC721(\"EventTicket\", \"ETIX\") {}\r\n\r\n    event EventCreated(string eventName, uint256 eventDate, uint256 eventPrice, uint256 totalTickets, string location, string description, string imageUrl);\r\n\r\n    function createEvent(\r\n        string memory name,\r\n        uint date,\r\n        uint price,\r\n        uint totalTickets,\r\n        string memory location,\r\n        string memory description,\r\n        string memory imageUrl\r\n    ) external {\r\n        require(date > block.timestamp, \"Event must be in the future\");\r\n        require(totalTickets > 0, \"Tickets must be more than 0\");\r\n\r\n        events[eventIdCounter] = Event(\r\n            name,\r\n            date,\r\n            location,\r\n            description,\r\n            imageUrl,\r\n            price,\r\n            totalTickets,\r\n            0,\r\n            msg.sender\r\n        );\r\n\r\n        eventIdCounter++;\r\n\r\n        emit EventCreated(name, date, price, totalTickets, location, description, imageUrl);\r\n    }\r\n\r\n    function buyTicket(uint eventId, string memory tokenURI) external payable {\r\n        Event storage _event = events[eventId];\r\n        require(_event.date != 0, \"Event does not exist\");\r\n        require(block.timestamp < _event.date, \"Event already occurred\");\r\n        require(_event.ticketsSold < _event.totalTickets, \"Sold out\");\r\n        require(msg.value == _event.price, \"Incorrect amount\");\r\n\r\n        _event.ticketsSold++;\r\n        uint tokenId = nextTokenId;\r\n        nextTokenId++;\r\n\r\n        _safeMint(msg.sender, tokenId);\r\n        _setTokenURI(tokenId, tokenURI);\r\n\r\n        ticketToEvent[tokenId] = eventId;\r\n        ticketValidity[tokenId] = true;\r\n\r\n        address payable organizer = payable(_event.organizer);\r\n        organizer.transfer(msg.value);\r\n    }\r\n\r\n    function resellTicket(address to, uint tokenId) external payable {\r\n        require(ownerOf(tokenId) == msg.sender, \"Not the ticket owner\");\r\n\r\n        uint resalePrice = msg.value;\r\n\r\n        require(resalePrice > 0, \"Resale price must be greater than 0\");\r\n\r\n        ticketValidity[tokenId] = false;\r\n        _transfer(msg.sender, to, tokenId);\r\n\r\n        address payable seller = payable(msg.sender);\r\n        seller.transfer(resalePrice);\r\n    }\r\n\r\n    function invalidateTicket(uint tokenId) external onlyOwner {\r\n        ticketValidity[tokenId] = false;\r\n    }\r\n\r\n    function isTicketValid(uint tokenId) external view returns (bool) {\r\n        return ticketValidity[tokenId];\r\n    }\r\n}\r\n",
  "sourcePath": "C:\\Users\\lenovo\\Desktop\\2nd year\\Blockchain\\event-ticketing-system\\Event-Ticketing-System\\contracts\\EventTicket.sol",
  "compiler": {
    "name": "solc",
    "version": "0.8.17+commit.8df45f5f.Emscripten.clang"
  },
  "schemaVersion": "3.4.16",
  "updatedAt": "2025-04-26T09:13:23.279Z",
  "networkType": "ethereum",
  "devdoc": {
    "kind": "dev",
    "methods": {
      "approve(address,uint256)": {
        "details": "See {IERC721-approve}."
      },
      "balanceOf(address)": {
        "details": "See {IERC721-balanceOf}."
      },
      "getApproved(uint256)": {
        "details": "See {IERC721-getApproved}."
      },
      "isApprovedForAll(address,address)": {
        "details": "See {IERC721-isApprovedForAll}."
      },
      "name()": {
        "details": "See {IERC721Metadata-name}."
      },
      "owner()": {
        "details": "Returns the address of the current owner."
      },
      "ownerOf(uint256)": {
        "details": "See {IERC721-ownerOf}."
      },
      "renounceOwnership()": {
        "details": "Leaves the contract without owner. It will not be possible to call `onlyOwner` functions. Can only be called by the current owner. NOTE: Renouncing ownership will leave the contract without an owner, thereby disabling any functionality that is only available to the owner."
      },
      "safeTransferFrom(address,address,uint256)": {
        "details": "See {IERC721-safeTransferFrom}."
      },
      "safeTransferFrom(address,address,uint256,bytes)": {
        "details": "See {IERC721-safeTransferFrom}."
      },
      "setApprovalForAll(address,bool)": {
        "details": "See {IERC721-setApprovalForAll}."
      },
      "supportsInterface(bytes4)": {
        "details": "See {IERC165-supportsInterface}"
      },
      "symbol()": {
        "details": "See {IERC721Metadata-symbol}."
      },
      "tokenURI(uint256)": {
        "details": "See {IERC721Metadata-tokenURI}."
      },
      "transferFrom(address,address,uint256)": {
        "details": "See {IERC721-transferFrom}."
      },
      "transferOwnership(address)": {
        "details": "Transfers ownership of the contract to a new account (`newOwner`). Can only be called by the current owner."
      }
    },
    "version": 1
  },
  "userdoc": {
    "kind": "user",
    "methods": {},
    "version": 1
  }
}