{
  "contractName": "TicketMarketplace",
  "abi": [
    {
      "inputs": [
        {
          "internalType": "address",
          "name": "_eventTicketAddress",
          "type": "address"
        }
      ],
      "stateMutability": "nonpayable",
      "type": "constructor"
    },
    {
      "inputs": [],
      "name": "eventTicketAddress",
      "outputs": [
        {
          "internalType": "address",
          "name": "",
          "type": "address"
        }
      ],
      "stateMutability": "view",
      "type": "function",
      "constant": true
    },
    {
      "inputs": [
        {
          "internalType": "uint256",
          "name": "",
          "type": "uint256"
        }
      ],
      "name": "listings",
      "outputs": [
        {
          "internalType": "address",
          "name": "seller",
          "type": "address"
        },
        {
          "internalType": "uint256",
          "name": "price",
          "type": "uint256"
        }
      ],
      "stateMutability": "view",
      "type": "function",
      "constant": true
    },
    {
      "inputs": [
        {
          "internalType": "uint256",
          "name": "tokenId",
          "type": "uint256"
        },
        {
          "internalType": "uint256",
          "name": "price",
          "type": "uint256"
        }
      ],
      "name": "listTicket",
      "outputs": [],
      "stateMutability": "nonpayable",
      "type": "function"
    },
    {
      "inputs": [
        {
          "internalType": "uint256",
          "name": "tokenId",
          "type": "uint256"
        }
      ],
      "name": "cancelListing",
      "outputs": [],
      "stateMutability": "nonpayable",
      "type": "function"
    },
    {
      "inputs": [
        {
          "internalType": "uint256",
          "name": "tokenId",
          "type": "uint256"
        }
      ],
      "name": "buyTicket",
      "outputs": [],
      "stateMutability": "payable",
      "type": "function",
      "payable": true
    },
    {
      "inputs": [
        {
          "internalType": "uint256",
          "name": "tokenId",
          "type": "uint256"
        }
      ],
      "name": "getListing",
      "outputs": [
        {
          "internalType": "address",
          "name": "seller",
          "type": "address"
        },
        {
          "internalType": "uint256",
          "name": "price",
          "type": "uint256"
        }
      ],
      "stateMutability": "view",
      "type": "function",
      "constant": true
    }
  ],
  "bytecode": "0x608060405234801561001057600080fd5b50604051610e64380380610e64833981810160405281019061003291906100db565b806000806101000a81548173ffffffffffffffffffffffffffffffffffffffff021916908373ffffffffffffffffffffffffffffffffffffffff16021790555050610108565b600080fd5b600073ffffffffffffffffffffffffffffffffffffffff82169050919050565b60006100a88261007d565b9050919050565b6100b88161009d565b81146100c357600080fd5b50565b6000815190506100d5816100af565b92915050565b6000602082840312156100f1576100f0610078565b5b60006100ff848285016100c6565b91505092915050565b610d4d806101176000396000f3fe6080604052600436106100555760003560e01c8063107a274a1461005a578063305a67a814610098578063305a905a146100c157806367dd74ca146100ea578063d634729f14610106578063de74e57b14610131575b600080fd5b34801561006657600080fd5b50610081600480360381019061007c919061086d565b61016f565b60405161008f9291906108ea565b60405180910390f35b3480156100a457600080fd5b506100bf60048036038101906100ba919061086d565b610208565b005b3480156100cd57600080fd5b506100e860048036038101906100e39190610913565b6102f4565b005b61010460048036038101906100ff919061086d565b610594565b005b34801561011257600080fd5b5061011b6107ca565b6040516101289190610953565b60405180910390f35b34801561013d57600080fd5b506101586004803603810190610153919061086d565b6107ee565b6040516101669291906108ea565b60405180910390f35b6000806000600160008581526020019081526020016000206040518060400160405290816000820160009054906101000a900473ffffffffffffffffffffffffffffffffffffffff1673ffffffffffffffffffffffffffffffffffffffff1673ffffffffffffffffffffffffffffffffffffffff1681526020016001820154815250509050806000015181602001519250925050915091565b3373ffffffffffffffffffffffffffffffffffffffff166001600083815260200190815260200160002060000160009054906101000a900473ffffffffffffffffffffffffffffffffffffffff1673ffffffffffffffffffffffffffffffffffffffff16146102ac576040517f08c379a00000000000000000000000000000000000000000000000000000000081526004016102a3906109cb565b60405180910390fd5b60016000828152602001908152602001600020600080820160006101000a81549073ffffffffffffffffffffffffffffffffffffffff02191690556001820160009055505050565b60008060009054906101000a900473ffffffffffffffffffffffffffffffffffffffff1690503373ffffffffffffffffffffffffffffffffffffffff168173ffffffffffffffffffffffffffffffffffffffff16636352211e856040518263ffffffff1660e01b815260040161036a91906109eb565b602060405180830381865afa158015610387573d6000803e3d6000fd5b505050506040513d601f19601f820116820180604052508101906103ab9190610a32565b73ffffffffffffffffffffffffffffffffffffffff1614610401576040517f08c379a00000000000000000000000000000000000000000000000000000000081526004016103f890610aab565b60405180910390fd5b8073ffffffffffffffffffffffffffffffffffffffff1663fb3ae56f846040518263ffffffff1660e01b815260040161043a91906109eb565b602060405180830381865afa158015610457573d6000803e3d6000fd5b505050506040513d601f19601f8201168201806040525081019061047b9190610b03565b6104ba576040517f08c379a00000000000000000000000000000000000000000000000000000000081526004016104b190610b7c565b60405180910390fd5b600082116104fd576040517f08c379a00000000000000000000000000000000000000000000000000000000081526004016104f490610be8565b60405180910390fd5b60405180604001604052803373ffffffffffffffffffffffffffffffffffffffff168152602001838152506001600085815260200190815260200160002060008201518160000160006101000a81548173ffffffffffffffffffffffffffffffffffffffff021916908373ffffffffffffffffffffffffffffffffffffffff16021790555060208201518160010155905050505050565b6000600160008381526020019081526020016000206040518060400160405290816000820160009054906101000a900473ffffffffffffffffffffffffffffffffffffffff1673ffffffffffffffffffffffffffffffffffffffff1673ffffffffffffffffffffffffffffffffffffffff1681526020016001820154815250509050600081602001511161065d576040517f08c379a000000000000000000000000000000000000000000000000000000000815260040161065490610c54565b60405180910390fd5b806020015134146106a3576040517f08c379a000000000000000000000000000000000000000000000000000000000815260040161069a90610cc0565b60405180910390fd5b60008054906101000a900473ffffffffffffffffffffffffffffffffffffffff1673ffffffffffffffffffffffffffffffffffffffff166323b872dd826000015133856040518463ffffffff1660e01b815260040161070493929190610ce0565b600060405180830381600087803b15801561071e57600080fd5b505af1158015610732573d6000803e3d6000fd5b50505050806000015173ffffffffffffffffffffffffffffffffffffffff166108fc349081150290604051600060405180830381858888f19350505050158015610780573d6000803e3d6000fd5b5060016000838152602001908152602001600020600080820160006101000a81549073ffffffffffffffffffffffffffffffffffffffff0219169055600182016000905550505050565b60008054906101000a900473ffffffffffffffffffffffffffffffffffffffff1681565b60016020528060005260406000206000915090508060000160009054906101000a900473ffffffffffffffffffffffffffffffffffffffff16908060010154905082565b600080fd5b6000819050919050565b61084a81610837565b811461085557600080fd5b50565b60008135905061086781610841565b92915050565b60006020828403121561088357610882610832565b5b600061089184828501610858565b91505092915050565b600073ffffffffffffffffffffffffffffffffffffffff82169050919050565b60006108c58261089a565b9050919050565b6108d5816108ba565b82525050565b6108e481610837565b82525050565b60006040820190506108ff60008301856108cc565b61090c60208301846108db565b9392505050565b6000806040838503121561092a57610929610832565b5b600061093885828601610858565b925050602061094985828601610858565b9150509250929050565b600060208201905061096860008301846108cc565b92915050565b600082825260208201905092915050565b7f4e6f74207468652073656c6c6572000000000000000000000000000000000000600082015250565b60006109b5600e8361096e565b91506109c08261097f565b602082019050919050565b600060208201905081810360008301526109e4816109a8565b9050919050565b6000602082019050610a0060008301846108db565b92915050565b610a0f816108ba565b8114610a1a57600080fd5b50565b600081519050610a2c81610a06565b92915050565b600060208284031215610a4857610a47610832565b5b6000610a5684828501610a1d565b91505092915050565b7f4e6f7420746865207469636b6574206f776e6572000000000000000000000000600082015250565b6000610a9560148361096e565b9150610aa082610a5f565b602082019050919050565b60006020820190508181036000830152610ac481610a88565b9050919050565b60008115159050919050565b610ae081610acb565b8114610aeb57600080fd5b50565b600081519050610afd81610ad7565b92915050565b600060208284031215610b1957610b18610832565b5b6000610b2784828501610aee565b91505092915050565b7f5469636b657420697320696e76616c6964000000000000000000000000000000600082015250565b6000610b6660118361096e565b9150610b7182610b30565b602082019050919050565b60006020820190508181036000830152610b9581610b59565b9050919050565b7f5072696365206d7573742062652067726561746572207468616e203000000000600082015250565b6000610bd2601c8361096e565b9150610bdd82610b9c565b602082019050919050565b60006020820190508181036000830152610c0181610bc5565b9050919050565b7f5469636b6574206e6f7420666f722073616c6500000000000000000000000000600082015250565b6000610c3e60138361096e565b9150610c4982610c08565b602082019050919050565b60006020820190508181036000830152610c6d81610c31565b9050919050565b7f496e636f7272656374207061796d656e74000000000000000000000000000000600082015250565b6000610caa60118361096e565b9150610cb582610c74565b602082019050919050565b60006020820190508181036000830152610cd981610c9d565b9050919050565b6000606082019050610cf560008301866108cc565b610d0260208301856108cc565b610d0f60408301846108db565b94935050505056fea2646970667358221220860064042bcbdc5af3259762a0cb1fc50d451eba539217345bb62685faf56bd564736f6c63430008110033",
  "immutableReferences": {},
  "source": "// SPDX-License-Identifier: MIT\r\npragma solidity ^0.8.17;\r\n\r\nimport \"@openzeppelin/contracts/token/ERC721/extensions/ERC721URIStorage.sol\";\r\nimport \"@openzeppelin/contracts/access/Ownable.sol\";\r\n\r\ninterface IEventTicket {\r\n    function transferFrom(address from, address to, uint256 tokenId) external;\r\n\r\n    function ownerOf(uint256 tokenId) external view returns (address);\r\n\r\n    function isTicketValid(uint tokenId) external view returns (bool);\r\n}\r\n\r\n// Contract to resell tickets in the marketplace\r\ncontract TicketMarketplace {\r\n    struct Listing {\r\n        address seller;\r\n        uint price;\r\n    }\r\n\r\n    address public eventTicketAddress;\r\n    mapping(uint => Listing) public listings;\r\n\r\n    constructor(address _eventTicketAddress) {\r\n        eventTicketAddress = _eventTicketAddress;\r\n    }\r\n\r\n    function listTicket(uint tokenId, uint price) external {\r\n        IEventTicket ticket = IEventTicket(eventTicketAddress);\r\n\r\n        require(ticket.ownerOf(tokenId) == msg.sender, \"Not the ticket owner\");\r\n        require(ticket.isTicketValid(tokenId), \"Ticket is invalid\");\r\n        require(price > 0, \"Price must be greater than 0\");\r\n\r\n        listings[tokenId] = Listing(msg.sender, price);\r\n    }\r\n\r\n    function cancelListing(uint tokenId) external {\r\n        require(listings[tokenId].seller == msg.sender, \"Not the seller\");\r\n        delete listings[tokenId];\r\n    }\r\n\r\n    function buyTicket(uint tokenId) external payable {\r\n        Listing memory item = listings[tokenId];\r\n        require(item.price > 0, \"Ticket not for sale\");\r\n        require(msg.value == item.price, \"Incorrect payment\");\r\n\r\n        // Transfer the ticket\r\n        IEventTicket(eventTicketAddress).transferFrom(\r\n            item.seller,\r\n            msg.sender,\r\n            tokenId\r\n        );\r\n\r\n        // Pay the seller\r\n        payable(item.seller).transfer(msg.value);\r\n\r\n        // Remove listing\r\n        delete listings[tokenId];\r\n    }\r\n\r\n    function getListing(\r\n        uint tokenId\r\n    ) external view returns (address seller, uint price) {\r\n        Listing memory item = listings[tokenId];\r\n        return (item.seller, item.price);\r\n    }\r\n}\r\n",
  "sourcePath": "C:\\Users\\lenovo\\Desktop\\2nd year\\Blockchain\\event-ticketing-system\\Event-Ticketing-System\\contracts\\TicketMarketplace.sol",
  "compiler": {
    "name": "solc",
    "version": "0.8.17+commit.8df45f5f.Emscripten.clang"
  },
  "schemaVersion": "3.4.16",
  "updatedAt": "2025-04-26T08:52:56.396Z",
  "networkType": "ethereum",
  "devdoc": {
    "kind": "dev",
    "methods": {},
    "version": 1
  },
  "userdoc": {
    "kind": "user",
    "methods": {},
    "version": 1
  }
}